{
	"data": {
		"bytecode": {
			"linkReferences": {},
			"object": "60806040526000600b553480156200001657600080fd5b50604051620065b3380380620065b383398181016040528101906200003c91906200038b565b838381600090816200004f91906200069b565b5080600190816200006191906200069b565b5050506200008462000078620000ef60201b60201c565b620000f760201b60201c565b33601260006101000a81548173ffffffffffffffffffffffffffffffffffffffff021916908373ffffffffffffffffffffffffffffffffffffffff1602179055504260098190555081600a9081620000dd91906200069b565b5080600b819055505050505062000782565b600033905090565b6000600760009054906101000a900473ffffffffffffffffffffffffffffffffffffffff16905081600760006101000a81548173ffffffffffffffffffffffffffffffffffffffff021916908373ffffffffffffffffffffffffffffffffffffffff1602179055508173ffffffffffffffffffffffffffffffffffffffff168173ffffffffffffffffffffffffffffffffffffffff167f8be0079c531659141344cd1fd0a4f28419497f9722a3daafe3b4186f6b6457e060405160405180910390a35050565b6000604051905090565b600080fd5b600080fd5b600080fd5b600080fd5b6000601f19601f8301169050919050565b7f4e487b7100000000000000000000000000000000000000000000000000000000600052604160045260246000fd5b6200022682620001db565b810181811067ffffffffffffffff82111715620002485762000247620001ec565b5b80604052505050565b60006200025d620001bd565b90506200026b82826200021b565b919050565b600067ffffffffffffffff8211156200028e576200028d620001ec565b5b6200029982620001db565b9050602081019050919050565b60005b83811015620002c6578082015181840152602081019050620002a9565b60008484015250505050565b6000620002e9620002e38462000270565b62000251565b905082815260208101848484011115620003085762000307620001d6565b5b62000315848285620002a6565b509392505050565b600082601f830112620003355762000334620001d1565b5b815162000347848260208601620002d2565b91505092915050565b6000819050919050565b620003658162000350565b81146200037157600080fd5b50565b60008151905062000385816200035a565b92915050565b60008060008060808587031215620003a857620003a7620001c7565b5b600085015167ffffffffffffffff811115620003c957620003c8620001cc565b5b620003d7878288016200031d565b945050602085015167ffffffffffffffff811115620003fb57620003fa620001cc565b5b62000409878288016200031d565b935050604085015167ffffffffffffffff8111156200042d576200042c620001cc565b5b6200043b878288016200031d565b92505060606200044e8782880162000374565b91505092959194509250565b600081519050919050565b7f4e487b7100000000000000000000000000000000000000000000000000000000600052602260045260246000fd5b60006002820490506001821680620004ad57607f821691505b602082108103620004c357620004c262000465565b5b50919050565b60008190508160005260206000209050919050565b60006020601f8301049050919050565b600082821b905092915050565b6000600883026200052d7fffffffffffffffffffffffffffffffffffffffffffffffffffffffffffffffff82620004ee565b620005398683620004ee565b95508019841693508086168417925050509392505050565b6000819050919050565b60006200057c62000576620005708462000350565b62000551565b62000350565b9050919050565b6000819050919050565b62000598836200055b565b620005b0620005a78262000583565b848454620004fb565b825550505050565b600090565b620005c7620005b8565b620005d48184846200058d565b505050565b5b81811015620005fc57620005f0600082620005bd565b600181019050620005da565b5050565b601f8211156200064b576200061581620004c9565b6200062084620004de565b8101602085101562000630578190505b620006486200063f85620004de565b830182620005d9565b50505b505050565b600082821c905092915050565b6000620006706000198460080262000650565b1980831691505092915050565b60006200068b83836200065d565b9150826002028217905092915050565b620006a6826200045a565b67ffffffffffffffff811115620006c257620006c1620001ec565b5b620006ce825462000494565b620006db82828562000600565b600060209050601f831160018114620007135760008415620006fe578287015190505b6200070a85826200067d565b8655506200077a565b601f1984166200072386620004c9565b60005b828110156200074d5784890151825560018201915060208501945060208101905062000726565b868310156200076d578489015162000769601f8916826200065d565b8355505b6001600288020188555050505b505050505050565b615e2180620007926000396000f3fe6080604052600436106102305760003560e01c80637284e4161161012e578063c144dd2a116100ab578063e96055441161006f578063e9605544146108a2578063e985e9c5146108cb578063ef74248d14610908578063f2fde38b14610931578063f67a769c1461095a57610230565b8063c144dd2a14610795578063c6af1122146107d2578063c87b56dd146107fd578063d800fe451461083a578063d8270dce1461087757610230565b8063934689a9116100f2578063934689a91461069e57806395d89b41146106db578063a22cb46514610706578063b88d4fde1461072f578063bc8c778f1461075857610230565b80637284e416146105c9578063768d7dbb146105f45780637d5298b91461061f5780638909ab121461064a5780638da5cb5b1461067357610230565b80632aa2e90a116101bc5780634da6de3f116101805780634da6de3f146104d05780636352211e146104fb578063639032cc1461053857806370a0823114610575578063715018a6146105b257610230565b80632aa2e90a146103fa578063385eda9c146104165780633ccfd60b1461045357806342842e0e1461046a5780634d159ec91461049357610230565b8063095ea7b311610203578063095ea7b3146103035780630e2587261461032c5780631741f3e2146103575780631b8899ce1461039457806323b872dd146103d157610230565b8063010f77351461023557806301ffc9a71461025e57806306fdde031461029b578063081812fc146102c6575b600080fd5b34801561024157600080fd5b5061025c60048036038101906102579190613f78565b610985565b005b34801561026a57600080fd5b506102856004803603810190610280919061402c565b610a48565b6040516102929190614074565b60405180910390f35b3480156102a757600080fd5b506102b0610b2a565b6040516102bd919061410e565b60405180910390f35b3480156102d257600080fd5b506102ed60048036038101906102e89190614130565b610bbc565b6040516102fa919061419e565b60405180910390f35b34801561030f57600080fd5b5061032a600480360381019061032591906141e5565b610c41565b005b34801561033857600080fd5b50610341610d58565b60405161034e919061419e565b60405180910390f35b34801561036357600080fd5b5061037e60048036038101906103799190614225565b610d82565b60405161038b919061432c565b60405180910390f35b3480156103a057600080fd5b506103bb60048036038101906103b69190614373565b610df8565b6040516103c8919061432c565b60405180910390f35b3480156103dd57600080fd5b506103f860048036038101906103f391906143cf565b610ed4565b005b610414600480360381019061040f9190613f78565b610f34565b005b34801561042257600080fd5b5061043d60048036038101906104389190614130565b611204565b60405161044a9190614074565b60405180910390f35b34801561045f57600080fd5b5061046861122e565b005b34801561047657600080fd5b50610491600480360381019061048c91906143cf565b6112fa565b005b34801561049f57600080fd5b506104ba60048036038101906104b59190614422565b61131a565b6040516104c7919061432c565b60405180910390f35b3480156104dc57600080fd5b506104e561143a565b6040516104f291906144a0565b60405180910390f35b34801561050757600080fd5b50610522600480360381019061051d9190614130565b611444565b60405161052f919061419e565b60405180910390f35b34801561054457600080fd5b5061055f600480360381019061055a9190614130565b6114f5565b60405161056c919061432c565b60405180910390f35b34801561058157600080fd5b5061059c600480360381019061059791906144bb565b6115c1565b6040516105a991906144a0565b60405180910390f35b3480156105be57600080fd5b506105c7611678565b005b3480156105d557600080fd5b506105de611700565b6040516105eb919061410e565b60405180910390f35b34801561060057600080fd5b5061060961178e565b60405161061691906145a6565b60405180910390f35b34801561062b57600080fd5b5061063461181c565b60405161064191906144a0565b60405180910390f35b34801561065657600080fd5b50610671600480360381019061066c9190614690565b611826565b005b34801561067f57600080fd5b50610688611a18565b604051610695919061419e565b60405180910390f35b3480156106aa57600080fd5b506106c560048036038101906106c09190614130565b611a42565b6040516106d2919061419e565b60405180910390f35b3480156106e757600080fd5b506106f0611ac7565b6040516106fd919061410e565b60405180910390f35b34801561071257600080fd5b5061072d60048036038101906107289190614747565b611b59565b005b34801561073b57600080fd5b5061075660048036038101906107519190614828565b611b6f565b005b34801561076457600080fd5b5061077f600480360381019061077a9190614130565b611bd1565b60405161078c91906144a0565b60405180910390f35b3480156107a157600080fd5b506107bc60048036038101906107b79190614130565b611c4e565b6040516107c99190614074565b60405180910390f35b3480156107de57600080fd5b506107e7611cc0565b6040516107f491906144a0565b60405180910390f35b34801561080957600080fd5b50610824600480360381019061081f9190614130565b611cca565b604051610831919061410e565b60405180910390f35b34801561084657600080fd5b50610861600480360381019061085c9190614130565b611cdc565b60405161086e91906144a0565b60405180910390f35b34801561088357600080fd5b5061088c611cf9565b60405161089991906144a0565b60405180910390f35b3480156108ae57600080fd5b506108c960048036038101906108c491906148ab565b611cff565b005b3480156108d757600080fd5b506108f260048036038101906108ed9190614923565b611f70565b6040516108ff9190614074565b60405180910390f35b34801561091457600080fd5b5061092f600480360381019061092a9190614963565b612004565b005b34801561093d57600080fd5b50610958600480360381019061095391906144bb565b612169565b005b34801561096657600080fd5b5061096f612260565b60405161097c91906144a0565b60405180910390f35b610996610990612277565b8361227f565b6109d5576040517f08c379a00000000000000000000000000000000000000000000000000000000081526004016109cc90614a15565b60405180910390fd5b6109df818361235d565b600c600083815260200190815260200160002060009054906101000a900460ff1615610a225760176000815480929190610a1890614a64565b9190505550610a3b565b60166000815480929190610a3590614a64565b91905055505b610a4482612446565b5050565b60007f80ac58cd000000000000000000000000000000000000000000000000000000007bffffffffffffffffffffffffffffffffffffffffffffffffffffffff1916827bffffffffffffffffffffffffffffffffffffffffffffffffffffffff19161480610b1357507f5b5e139f000000000000000000000000000000000000000000000000000000007bffffffffffffffffffffffffffffffffffffffffffffffffffffffff1916827bffffffffffffffffffffffffffffffffffffffffffffffffffffffff1916145b80610b235750610b22826127f3565b5b9050919050565b606060008054610b3990614abc565b80601f0160208091040260200160405190810160405280929190818152602001828054610b6590614abc565b8015610bb25780601f10610b8757610100808354040283529160200191610bb2565b820191906000526020600020905b815481529060010190602001808311610b9557829003601f168201915b5050505050905090565b6000610bc78261285d565b610c06576040517f08c379a0000000000000000000000000000000000000000000000000000000008152600401610bfd90614b5f565b60405180910390fd5b6004600083815260200190815260200160002060009054906101000a900473ffffffffffffffffffffffffffffffffffffffff169050919050565b6000610c4c82611444565b90508073ffffffffffffffffffffffffffffffffffffffff168373ffffffffffffffffffffffffffffffffffffffff1603610cbc576040517f08c379a0000000000000000000000000000000000000000000000000000000008152600401610cb390614bf1565b60405180910390fd5b8073ffffffffffffffffffffffffffffffffffffffff16610cdb612277565b73ffffffffffffffffffffffffffffffffffffffff161480610d0a5750610d0981610d04612277565b611f70565b5b610d49576040517f08c379a0000000000000000000000000000000000000000000000000000000008152600401610d4090614c83565b60405180910390fd5b610d5383836128c9565b505050565b6000601260009054906101000a900473ffffffffffffffffffffffffffffffffffffffff16905090565b6060601082604051610d949190614cdf565b9081526020016040518091039020805480602002602001604051908101604052809291908181526020018280548015610dec57602002820191906000526020600020905b815481526020019060010190808311610dd8575b50505050509050919050565b60606000601083604051610e0c9190614cdf565b9081526020016040518091039020805480602002602001604051908101604052809291908181526020018280548015610e6457602002820191906000526020600020905b815481526020019060010190808311610e50575b50505050509050610ecb6015805480602002602001604051908101604052809291908181526020018280548015610eba57602002820191906000526020600020905b815481526020019060010190808311610ea6575b505050505085836000875111612982565b91505092915050565b610ee5610edf612277565b8261227f565b610f24576040517f08c379a0000000000000000000000000000000000000000000000000000000008152600401610f1b90614d68565b60405180910390fd5b610f2f838383612acd565b505050565b610f3d8261285d565b610f7c576040517f08c379a0000000000000000000000000000000000000000000000000000000008152600401610f7390614dd4565b60405180910390fd5b600c600083815260200190815260200160002060009054906101000a900460ff1615610fdd576040517f08c379a0000000000000000000000000000000000000000000000000000000008152600401610fd490614e40565b60405180910390fd5b600080600e6000858152602001908152602001600020541161100157600b54611016565b600e6000848152602001908152602001600020545b90508034101561105b576040517f08c379a000000000000000000000000000000000000000000000000000000000815260040161105290614eac565b60405180910390fd5b6110656008612d79565b60006110716008612d8f565b905061107d3382612d9d565b6001600c600083815260200190815260200160002060006101000a81548160ff02191690831515021790555083600d6000838152602001908152602001600020819055506110cb8184612dbb565b60146000858152602001908152602001600020819080600181540180825580915050600190039060005260206000200160009091909190915055601360003373ffffffffffffffffffffffffffffffffffffffff1673ffffffffffffffffffffffffffffffffffffffff1681526020019081526020016000208190806001815401808255809150506001900390600052602060002001600090919091909150556015819080600181540180825580915050600190039060005260206000200160009091909190915055601760008154809291906111a790614ecc565b9190505550336011600083815260200190815260200160002060006101000a81548173ffffffffffffffffffffffffffffffffffffffff021916908373ffffffffffffffffffffffffffffffffffffffff16021790555050505050565b6000600c600083815260200190815260200160002060009054906101000a900460ff169050919050565b611236612277565b73ffffffffffffffffffffffffffffffffffffffff16611254611a18565b73ffffffffffffffffffffffffffffffffffffffff16146112aa576040517f08c379a00000000000000000000000000000000000000000000000000000000081526004016112a190614f60565b60405180910390fd5b6112b2611a18565b73ffffffffffffffffffffffffffffffffffffffff166108fc479081150290604051600060405180830381858888f193505050501580156112f7573d6000803e3d6000fd5b50565b61131583838360405180602001604052806000815250611b6f565b505050565b60606000601360008673ffffffffffffffffffffffffffffffffffffffff1673ffffffffffffffffffffffffffffffffffffffff1681526020019081526020016000208054806020026020016040519081016040528092919081815260200182805480156113a757602002820191906000526020600020905b815481526020019060010190808311611393575b5050505050905060006010846040516113c09190614cdf565b908152602001604051809103902080548060200260200160405190810160405280929190818152602001828054801561141857602002820191906000526020600020905b815481526020019060010190808311611404575b5050505050905061142f8286836000885111612982565b925050509392505050565b6000601654905090565b6000806002600084815260200190815260200160002060009054906101000a900473ffffffffffffffffffffffffffffffffffffffff169050600073ffffffffffffffffffffffffffffffffffffffff168173ffffffffffffffffffffffffffffffffffffffff16036114ec576040517f08c379a00000000000000000000000000000000000000000000000000000000081526004016114e390614ff2565b60405180910390fd5b80915050919050565b6060600c600083815260200190815260200160002060009054906101000a900460ff1615611558576040517f08c379a000000000000000000000000000000000000000000000000000000000815260040161154f90615084565b60405180910390fd5b601460008381526020019081526020016000208054806020026020016040519081016040528092919081815260200182805480156115b557602002820191906000526020600020905b8154815260200190600101908083116115a1575b50505050509050919050565b60008073ffffffffffffffffffffffffffffffffffffffff168273ffffffffffffffffffffffffffffffffffffffff1603611631576040517f08c379a000000000000000000000000000000000000000000000000000000000815260040161162890615116565b60405180910390fd5b600360008373ffffffffffffffffffffffffffffffffffffffff1673ffffffffffffffffffffffffffffffffffffffff168152602001908152602001600020549050919050565b611680612277565b73ffffffffffffffffffffffffffffffffffffffff1661169e611a18565b73ffffffffffffffffffffffffffffffffffffffff16146116f4576040517f08c379a00000000000000000000000000000000000000000000000000000000081526004016116eb90614f60565b60405180910390fd5b6116fe6000612e28565b565b600a805461170d90614abc565b80601f016020809104026020016040519081016040528092919081815260200182805461173990614abc565b80156117865780601f1061175b57610100808354040283529160200191611786565b820191906000526020600020905b81548152906001019060200180831161176957829003601f168201915b505050505081565b6060601980548060200260200160405190810160405280929190818152602001828054801561181257602002820191906000526020600020905b8160009054906101000a900473ffffffffffffffffffffffffffffffffffffffff1673ffffffffffffffffffffffffffffffffffffffff16815260200190600101908083116117c8575b5050505050905090565b6000601754905090565b61182e612277565b73ffffffffffffffffffffffffffffffffffffffff1661184c611a18565b73ffffffffffffffffffffffffffffffffffffffff16146118a2576040517f08c379a000000000000000000000000000000000000000000000000000000000815260040161189990614f60565b60405180910390fd5b82600a90816118b191906152e2565b5081600b8190555060005b6019805490508110156119695760186000601983815481106118e1576118e06153b4565b5b9060005260206000200160009054906101000a900473ffffffffffffffffffffffffffffffffffffffff1673ffffffffffffffffffffffffffffffffffffffff1673ffffffffffffffffffffffffffffffffffffffff16815260200190815260200160002060006101000a81549060ff0219169055808061196190614ecc565b9150506118bc565b508060199080519060200190611980929190613ce0565b5060005b8151811015611a12576001601860008484815181106119a6576119a56153b4565b5b602002602001015173ffffffffffffffffffffffffffffffffffffffff1673ffffffffffffffffffffffffffffffffffffffff16815260200190815260200160002060006101000a81548160ff0219169083151502179055508080611a0a90614ecc565b915050611984565b50505050565b6000600760009054906101000a900473ffffffffffffffffffffffffffffffffffffffff16905090565b6000611a4d8261285d565b611a8c576040517f08c379a0000000000000000000000000000000000000000000000000000000008152600401611a839061542f565b60405180910390fd5b6011600083815260200190815260200160002060009054906101000a900473ffffffffffffffffffffffffffffffffffffffff169050919050565b606060018054611ad690614abc565b80601f0160208091040260200160405190810160405280929190818152602001828054611b0290614abc565b8015611b4f5780601f10611b2457610100808354040283529160200191611b4f565b820191906000526020600020905b815481529060010190602001808311611b3257829003601f168201915b5050505050905090565b611b6b611b64612277565b8383612eee565b5050565b611b80611b7a612277565b8361227f565b611bbf576040517f08c379a0000000000000000000000000000000000000000000000000000000008152600401611bb690614d68565b60405180910390fd5b611bcb8484848461305a565b50505050565b6000600c600083815260200190815260200160002060009054906101000a900460ff16611c33576040517f08c379a0000000000000000000000000000000000000000000000000000000008152600401611c2a9061549b565b60405180910390fd5b600d6000838152602001908152602001600020549050919050565b6000611c598261285d565b611c98576040517f08c379a0000000000000000000000000000000000000000000000000000000008152600401611c8f9061542f565b60405180910390fd5b600f600083815260200190815260200160002060009054906101000a900460ff169050919050565b6000600b54905090565b6060611cd5826130b6565b9050919050565b6000600e6000838152602001908152602001600020549050919050565b60095481565b611d07611a18565b73ffffffffffffffffffffffffffffffffffffffff163373ffffffffffffffffffffffffffffffffffffffff161480611d895750601860003373ffffffffffffffffffffffffffffffffffffffff1673ffffffffffffffffffffffffffffffffffffffff16815260200190815260200160002060009054906101000a900460ff165b611dc8576040517f08c379a0000000000000000000000000000000000000000000000000000000008152600401611dbf90615507565b60405180910390fd5b611dd26008612d79565b6000611ddc612277565b90506000611dea6008612d8f565b9050611df68282612d9d565b6000600c600083815260200190815260200160002060006101000a81548160ff021916908315150217905550611e2c8185612dbb565b601083604051611e3c9190614cdf565b9081526020016040518091039020819080600181540180825580915050600190039060005260206000200160009091909190915055601360008373ffffffffffffffffffffffffffffffffffffffff1673ffffffffffffffffffffffffffffffffffffffff168152602001908152602001600020819080600181540180825580915050600190039060005260206000200160009091909190915055601581908060018154018082558091505060019003906000526020600020016000909190919091505560166000815480929190611f1390614ecc565b9190505550816011600083815260200190815260200160002060006101000a81548173ffffffffffffffffffffffffffffffffffffffff021916908373ffffffffffffffffffffffffffffffffffffffff16021790555050505050565b6000600560008473ffffffffffffffffffffffffffffffffffffffff1673ffffffffffffffffffffffffffffffffffffffff16815260200190815260200160002060008373ffffffffffffffffffffffffffffffffffffffff1673ffffffffffffffffffffffffffffffffffffffff16815260200190815260200160002060009054906101000a900460ff16905092915050565b61200c611a18565b73ffffffffffffffffffffffffffffffffffffffff163373ffffffffffffffffffffffffffffffffffffffff16148061208e5750601860003373ffffffffffffffffffffffffffffffffffffffff1673ffffffffffffffffffffffffffffffffffffffff16815260200190815260200160002060009054906101000a900460ff165b6120cd576040517f08c379a00000000000000000000000000000000000000000000000000000000081526004016120c490615599565b60405180910390fd5b600081111561211f576001600f600084815260200190815260200160002060006101000a81548160ff02191690831515021790555080600e600084815260200190815260200160002081905550612165565b6000600f600084815260200190815260200160002060006101000a81548160ff0219169083151502179055506000600e6000848152602001908152602001600020819055505b5050565b612171612277565b73ffffffffffffffffffffffffffffffffffffffff1661218f611a18565b73ffffffffffffffffffffffffffffffffffffffff16146121e5576040517f08c379a00000000000000000000000000000000000000000000000000000000081526004016121dc90614f60565b60405180910390fd5b600073ffffffffffffffffffffffffffffffffffffffff168173ffffffffffffffffffffffffffffffffffffffff1603612254576040517f08c379a000000000000000000000000000000000000000000000000000000000815260040161224b9061562b565b60405180910390fd5b61225d81612e28565b50565b6000601754601654612272919061564b565b905090565b600033905090565b600061228a8261285d565b6122c9576040517f08c379a00000000000000000000000000000000000000000000000000000000081526004016122c0906156f1565b60405180910390fd5b60006122d483611444565b90508073ffffffffffffffffffffffffffffffffffffffff168473ffffffffffffffffffffffffffffffffffffffff16148061234357508373ffffffffffffffffffffffffffffffffffffffff1661232b84610bbc565b73ffffffffffffffffffffffffffffffffffffffff16145b8061235457506123538185611f70565b5b91505092915050565b600060108360405161236f9190614cdf565b9081526020016040518091039020905060005b818054905081101561244057828282815481106123a2576123a16153b4565b5b90600052602060002001540361242d5781600183805490506123c49190615711565b815481106123d5576123d46153b4565b5b90600052602060002001548282815481106123f3576123f26153b4565b5b90600052602060002001819055508180548061241257612411615745565b5b60019003818190600052602060002001600090559055612440565b808061243890614ecc565b915050612382565b50505050565b600061245182611444565b905061245c82613207565b600c600083815260200190815260200160002060009054906101000a900460ff1615612591576000600d6000848152602001908152602001600020549050600060146000838152602001908152602001600020905060005b818054905081101561257257848282815481106124d4576124d36153b4565b5b90600052602060002001540361255f5781600183805490506124f69190615711565b81548110612507576125066153b4565b5b9060005260206000200154828281548110612525576125246153b4565b5b90600052602060002001819055508180548061254457612543615745565b5b60019003818190600052602060002001600090559055612572565b808061256a90614ecc565b9150506124b4565b50600d60008581526020019081526020016000206000905550506125b1565b6014600083815260200190815260200160002060006125b09190613d6a565b5b600c600083815260200190815260200160002060006101000a81549060ff0219169055600e6000838152602001908152602001600020600090556011600083815260200190815260200160002060006101000a81549073ffffffffffffffffffffffffffffffffffffffff02191690556000601360008373ffffffffffffffffffffffffffffffffffffffff1673ffffffffffffffffffffffffffffffffffffffff168152602001908152602001600020905060005b81805490508110156127255783828281548110612687576126866153b4565b5b9060005260206000200154036127125781600183805490506126a99190615711565b815481106126ba576126b96153b4565b5b90600052602060002001548282815481106126d8576126d76153b4565b5b9060005260206000200181905550818054806126f7576126f6615745565b5b60019003818190600052602060002001600090559055612725565b808061271d90614ecc565b915050612667565b5060005b6015805490508110156127ed57836015828154811061274b5761274a6153b4565b5b9060005260206000200154036127da576015600160158054905061276f9190615711565b815481106127805761277f6153b4565b5b90600052602060002001546015828154811061279f5761279e6153b4565b5b906000526020600020018190555060158054806127bf576127be615745565b5b600190038181906000526020600020016000905590556127ed565b80806127e590614ecc565b915050612729565b50505050565b60007f01ffc9a7000000000000000000000000000000000000000000000000000000007bffffffffffffffffffffffffffffffffffffffffffffffffffffffff1916827bffffffffffffffffffffffffffffffffffffffffffffffffffffffff1916149050919050565b60008073ffffffffffffffffffffffffffffffffffffffff166002600084815260200190815260200160002060009054906101000a900473ffffffffffffffffffffffffffffffffffffffff1673ffffffffffffffffffffffffffffffffffffffff1614159050919050565b816004600083815260200190815260200160002060006101000a81548173ffffffffffffffffffffffffffffffffffffffff021916908373ffffffffffffffffffffffffffffffffffffffff160217905550808273ffffffffffffffffffffffffffffffffffffffff1661293c83611444565b73ffffffffffffffffffffffffffffffffffffffff167f8c5be1e5ebec7d5bd14f71427d1e84f3dd0314c0f7b2291e5b200ac8c7c3b92560405160405180910390a45050565b60606000805b86518110156129de576129b78782815181106129a7576129a66153b4565b5b602002602001015187878761325a565b156129cb5781806129c790614ecc565b9250505b80806129d690614ecc565b915050612988565b5060008167ffffffffffffffff8111156129fb576129fa613e4d565b5b604051908082528060200260200182016040528015612a295781602001602082028036833780820191505090505b5090506000805b8851811015612abe57612a5f898281518110612a4f57612a4e6153b4565b5b602002602001015189898961325a565b15612aab57888181518110612a7757612a766153b4565b5b6020026020010151838380612a8b90614ecc565b945081518110612a9e57612a9d6153b4565b5b6020026020010181815250505b8080612ab690614ecc565b915050612a30565b50819350505050949350505050565b612ad8838383613334565b60005b601360008573ffffffffffffffffffffffffffffffffffffffff1673ffffffffffffffffffffffffffffffffffffffff16815260200190815260200160002080549050811015612d0d5781601360008673ffffffffffffffffffffffffffffffffffffffff1673ffffffffffffffffffffffffffffffffffffffff1681526020019081526020016000208281548110612b7757612b766153b4565b5b906000526020600020015403612cfa57601360008573ffffffffffffffffffffffffffffffffffffffff1673ffffffffffffffffffffffffffffffffffffffff1681526020019081526020016000206001601360008773ffffffffffffffffffffffffffffffffffffffff1673ffffffffffffffffffffffffffffffffffffffff16815260200190815260200160002080549050612c159190615711565b81548110612c2657612c256153b4565b5b9060005260206000200154601360008673ffffffffffffffffffffffffffffffffffffffff1673ffffffffffffffffffffffffffffffffffffffff1681526020019081526020016000208281548110612c8257612c816153b4565b5b9060005260206000200181905550601360008573ffffffffffffffffffffffffffffffffffffffff1673ffffffffffffffffffffffffffffffffffffffff168152602001908152602001600020805480612cdf57612cde615745565b5b60019003818190600052602060002001600090559055612d0d565b8080612d0590614ecc565b915050612adb565b50601360008373ffffffffffffffffffffffffffffffffffffffff1673ffffffffffffffffffffffffffffffffffffffff168152602001908152602001600020819080600181540180825580915050600190039060005260206000200160009091909190915055505050565b6001816000016000828254019250508190555050565b600081600001549050919050565b612db782826040518060200160405280600081525061358f565b5050565b612dc48261285d565b612e03576040517f08c379a0000000000000000000000000000000000000000000000000000000008152600401612dfa906157e6565b60405180910390fd5b80600660008481526020019081526020016000209081612e2391906152e2565b505050565b6000600760009054906101000a900473ffffffffffffffffffffffffffffffffffffffff16905081600760006101000a81548173ffffffffffffffffffffffffffffffffffffffff021916908373ffffffffffffffffffffffffffffffffffffffff1602179055508173ffffffffffffffffffffffffffffffffffffffff168173ffffffffffffffffffffffffffffffffffffffff167f8be0079c531659141344cd1fd0a4f28419497f9722a3daafe3b4186f6b6457e060405160405180910390a35050565b8173ffffffffffffffffffffffffffffffffffffffff168373ffffffffffffffffffffffffffffffffffffffff1603612f5c576040517f08c379a0000000000000000000000000000000000000000000000000000000008152600401612f5390615852565b60405180910390fd5b80600560008573ffffffffffffffffffffffffffffffffffffffff1673ffffffffffffffffffffffffffffffffffffffff16815260200190815260200160002060008473ffffffffffffffffffffffffffffffffffffffff1673ffffffffffffffffffffffffffffffffffffffff16815260200190815260200160002060006101000a81548160ff0219169083151502179055508173ffffffffffffffffffffffffffffffffffffffff168373ffffffffffffffffffffffffffffffffffffffff167f17307eab39ab6107e8899845ad3d59bd9653f200f220920489ca2b5937696c318360405161304d9190614074565b60405180910390a3505050565b613065848484612acd565b613071848484846135ea565b6130b0576040517f08c379a00000000000000000000000000000000000000000000000000000000081526004016130a7906158e4565b60405180910390fd5b50505050565b60606130c18261285d565b613100576040517f08c379a00000000000000000000000000000000000000000000000000000000081526004016130f790615976565b60405180910390fd5b600060066000848152602001908152602001600020805461312090614abc565b80601f016020809104026020016040519081016040528092919081815260200182805461314c90614abc565b80156131995780601f1061316e57610100808354040283529160200191613199565b820191906000526020600020905b81548152906001019060200180831161317c57829003601f168201915b5050505050905060006131aa613771565b905060008151036131bf578192505050613202565b6000825111156131f45780826040516020016131dc929190615996565b60405160208183030381529060405292505050613202565b6131fd84613788565b925050505b919050565b6132108161382f565b600060066000838152602001908152602001600020805461323090614abc565b905014613257576006600082815260200190815260200160002060006132569190613d8b565b5b50565b60008061326686611204565b905060006001600281111561327e5761327d6159ba565b5b866002811115613291576132906159ba565b5b14801561329b5750815b806132d357506002808111156132b4576132b36159ba565b5b8660028111156132c7576132c66159ba565b5b1480156132d2575081155b5b806133025750600060028111156132ed576132ec6159ba565b5b866002811115613300576132ff6159ba565b5b145b905083156133265780801561331d575061331c8588613940565b5b9250505061332c565b80925050505b949350505050565b8273ffffffffffffffffffffffffffffffffffffffff1661335482611444565b73ffffffffffffffffffffffffffffffffffffffff16146133aa576040517f08c379a00000000000000000000000000000000000000000000000000000000081526004016133a190615a5b565b60405180910390fd5b600073ffffffffffffffffffffffffffffffffffffffff168273ffffffffffffffffffffffffffffffffffffffff1603613419576040517f08c379a000000000000000000000000000000000000000000000000000000000815260040161341090615aed565b60405180910390fd5b61342483838361399b565b61342f6000826128c9565b6001600360008573ffffffffffffffffffffffffffffffffffffffff1673ffffffffffffffffffffffffffffffffffffffff168152602001908152602001600020600082825461347f9190615711565b925050819055506001600360008473ffffffffffffffffffffffffffffffffffffffff1673ffffffffffffffffffffffffffffffffffffffff16815260200190815260200160002060008282546134d6919061564b565b92505081905550816002600083815260200190815260200160002060006101000a81548173ffffffffffffffffffffffffffffffffffffffff021916908373ffffffffffffffffffffffffffffffffffffffff160217905550808273ffffffffffffffffffffffffffffffffffffffff168473ffffffffffffffffffffffffffffffffffffffff167fddf252ad1be2c89b69c2b068fc378daa952ba7f163c4a11628f55a4df523b3ef60405160405180910390a4505050565b61359983836139a0565b6135a660008484846135ea565b6135e5576040517f08c379a00000000000000000000000000000000000000000000000000000000081526004016135dc906158e4565b60405180910390fd5b505050565b600061360b8473ffffffffffffffffffffffffffffffffffffffff16613b6d565b15613764578373ffffffffffffffffffffffffffffffffffffffff1663150b7a02613634612277565b8786866040518563ffffffff1660e01b81526004016136569493929190615b62565b6020604051808303816000875af192505050801561369257506040513d601f19601f8201168201806040525081019061368f9190615bc3565b60015b613714573d80600081146136c2576040519150601f19603f3d011682016040523d82523d6000602084013e6136c7565b606091505b50600081510361370c576040517f08c379a0000000000000000000000000000000000000000000000000000000008152600401613703906158e4565b60405180910390fd5b805181602001fd5b63150b7a0260e01b7bffffffffffffffffffffffffffffffffffffffffffffffffffffffff1916817bffffffffffffffffffffffffffffffffffffffffffffffffffffffff191614915050613769565b600190505b949350505050565b606060405180602001604052806000815250905090565b60606137938261285d565b6137d2576040517f08c379a00000000000000000000000000000000000000000000000000000000081526004016137c990615c62565b60405180910390fd5b60006137dc613771565b905060008151116137fc5760405180602001604052806000815250613827565b8061380684613b80565b604051602001613817929190615996565b6040516020818303038152906040525b915050919050565b600061383a82611444565b90506138488160008461399b565b6138536000836128c9565b6001600360008373ffffffffffffffffffffffffffffffffffffffff1673ffffffffffffffffffffffffffffffffffffffff16815260200190815260200160002060008282546138a39190615711565b925050819055506002600083815260200190815260200160002060006101000a81549073ffffffffffffffffffffffffffffffffffffffff021916905581600073ffffffffffffffffffffffffffffffffffffffff168273ffffffffffffffffffffffffffffffffffffffff167fddf252ad1be2c89b69c2b068fc378daa952ba7f163c4a11628f55a4df523b3ef60405160405180910390a45050565b600080600090505b835181101561398f57838181518110613964576139636153b4565b5b6020026020010151830361397c576001915050613995565b808061398790614ecc565b915050613948565b50600090505b92915050565b505050565b600073ffffffffffffffffffffffffffffffffffffffff168273ffffffffffffffffffffffffffffffffffffffff1603613a0f576040517f08c379a0000000000000000000000000000000000000000000000000000000008152600401613a0690615cce565b60405180910390fd5b613a188161285d565b15613a58576040517f08c379a0000000000000000000000000000000000000000000000000000000008152600401613a4f90615d3a565b60405180910390fd5b613a646000838361399b565b6001600360008473ffffffffffffffffffffffffffffffffffffffff1673ffffffffffffffffffffffffffffffffffffffff1681526020019081526020016000206000828254613ab4919061564b565b92505081905550816002600083815260200190815260200160002060006101000a81548173ffffffffffffffffffffffffffffffffffffffff021916908373ffffffffffffffffffffffffffffffffffffffff160217905550808273ffffffffffffffffffffffffffffffffffffffff16600073ffffffffffffffffffffffffffffffffffffffff167fddf252ad1be2c89b69c2b068fc378daa952ba7f163c4a11628f55a4df523b3ef60405160405180910390a45050565b600080823b905060008111915050919050565b606060008203613bc7576040518060400160405280600181526020017f30000000000000000000000000000000000000000000000000000000000000008152509050613cdb565b600082905060005b60008214613bf9578080613be290614ecc565b915050600a82613bf29190615d89565b9150613bcf565b60008167ffffffffffffffff811115613c1557613c14613e4d565b5b6040519080825280601f01601f191660200182016040528015613c475781602001600182028036833780820191505090505b5090505b60008514613cd457600182613c609190615711565b9150600a85613c6f9190615dba565b6030613c7b919061564b565b60f81b818381518110613c9157613c906153b4565b5b60200101907effffffffffffffffffffffffffffffffffffffffffffffffffffffffffffff1916908160001a905350600a85613ccd9190615d89565b9450613c4b565b8093505050505b919050565b828054828255906000526020600020908101928215613d59579160200282015b82811115613d585782518260006101000a81548173ffffffffffffffffffffffffffffffffffffffff021916908373ffffffffffffffffffffffffffffffffffffffff16021790555091602001919060010190613d00565b5b509050613d669190613dcb565b5090565b5080546000825590600052602060002090810190613d889190613dcb565b50565b508054613d9790614abc565b6000825580601f10613da95750613dc8565b601f016020900490600052602060002090810190613dc79190613dcb565b5b50565b5b80821115613de4576000816000905550600101613dcc565b5090565b6000604051905090565b600080fd5b600080fd5b6000819050919050565b613e0f81613dfc565b8114613e1a57600080fd5b50565b600081359050613e2c81613e06565b92915050565b600080fd5b600080fd5b6000601f19601f8301169050919050565b7f4e487b7100000000000000000000000000000000000000000000000000000000600052604160045260246000fd5b613e8582613e3c565b810181811067ffffffffffffffff82111715613ea457613ea3613e4d565b5b80604052505050565b6000613eb7613de8565b9050613ec38282613e7c565b919050565b600067ffffffffffffffff821115613ee357613ee2613e4d565b5b613eec82613e3c565b9050602081019050919050565b82818337600083830152505050565b6000613f1b613f1684613ec8565b613ead565b905082815260208101848484011115613f3757613f36613e37565b5b613f42848285613ef9565b509392505050565b600082601f830112613f5f57613f5e613e32565b5b8135613f6f848260208601613f08565b91505092915050565b60008060408385031215613f8f57613f8e613df2565b5b6000613f9d85828601613e1d565b925050602083013567ffffffffffffffff811115613fbe57613fbd613df7565b5b613fca85828601613f4a565b9150509250929050565b60007fffffffff0000000000000000000000000000000000000000000000000000000082169050919050565b61400981613fd4565b811461401457600080fd5b50565b60008135905061402681614000565b92915050565b60006020828403121561404257614041613df2565b5b600061405084828501614017565b91505092915050565b60008115159050919050565b61406e81614059565b82525050565b60006020820190506140896000830184614065565b92915050565b600081519050919050565b600082825260208201905092915050565b60005b838110156140c95780820151818401526020810190506140ae565b60008484015250505050565b60006140e08261408f565b6140ea818561409a565b93506140fa8185602086016140ab565b61410381613e3c565b840191505092915050565b6000602082019050818103600083015261412881846140d5565b905092915050565b60006020828403121561414657614145613df2565b5b600061415484828501613e1d565b91505092915050565b600073ffffffffffffffffffffffffffffffffffffffff82169050919050565b60006141888261415d565b9050919050565b6141988161417d565b82525050565b60006020820190506141b3600083018461418f565b92915050565b6141c28161417d565b81146141cd57600080fd5b50565b6000813590506141df816141b9565b92915050565b600080604083850312156141fc576141fb613df2565b5b600061420a858286016141d0565b925050602061421b85828601613e1d565b9150509250929050565b60006020828403121561423b5761423a613df2565b5b600082013567ffffffffffffffff81111561425957614258613df7565b5b61426584828501613f4a565b91505092915050565b600081519050919050565b600082825260208201905092915050565b6000819050602082019050919050565b6142a381613dfc565b82525050565b60006142b5838361429a565b60208301905092915050565b6000602082019050919050565b60006142d98261426e565b6142e38185614279565b93506142ee8361428a565b8060005b8381101561431f57815161430688826142a9565b9750614311836142c1565b9250506001810190506142f2565b5085935050505092915050565b6000602082019050818103600083015261434681846142ce565b905092915050565b6003811061435b57600080fd5b50565b60008135905061436d8161434e565b92915050565b6000806040838503121561438a57614389613df2565b5b60006143988582860161435e565b925050602083013567ffffffffffffffff8111156143b9576143b8613df7565b5b6143c585828601613f4a565b9150509250929050565b6000806000606084860312156143e8576143e7613df2565b5b60006143f6868287016141d0565b9350506020614407868287016141d0565b925050604061441886828701613e1d565b9150509250925092565b60008060006060848603121561443b5761443a613df2565b5b6000614449868287016141d0565b935050602061445a8682870161435e565b925050604084013567ffffffffffffffff81111561447b5761447a613df7565b5b61448786828701613f4a565b9150509250925092565b61449a81613dfc565b82525050565b60006020820190506144b56000830184614491565b92915050565b6000602082840312156144d1576144d0613df2565b5b60006144df848285016141d0565b91505092915050565b600081519050919050565b600082825260208201905092915050565b6000819050602082019050919050565b61451d8161417d565b82525050565b600061452f8383614514565b60208301905092915050565b6000602082019050919050565b6000614553826144e8565b61455d81856144f3565b935061456883614504565b8060005b838110156145995781516145808882614523565b975061458b8361453b565b92505060018101905061456c565b5085935050505092915050565b600060208201905081810360008301526145c08184614548565b905092915050565b600067ffffffffffffffff8211156145e3576145e2613e4d565b5b602082029050602081019050919050565b600080fd5b600061460c614607846145c8565b613ead565b9050808382526020820190506020840283018581111561462f5761462e6145f4565b5b835b81811015614658578061464488826141d0565b845260208401935050602081019050614631565b5050509392505050565b600082601f83011261467757614676613e32565b5b81356146878482602086016145f9565b91505092915050565b6000806000606084860312156146a9576146a8613df2565b5b600084013567ffffffffffffffff8111156146c7576146c6613df7565b5b6146d386828701613f4a565b93505060206146e486828701613e1d565b925050604084013567ffffffffffffffff81111561470557614704613df7565b5b61471186828701614662565b9150509250925092565b61472481614059565b811461472f57600080fd5b50565b6000813590506147418161471b565b92915050565b6000806040838503121561475e5761475d613df2565b5b600061476c858286016141d0565b925050602061477d85828601614732565b9150509250929050565b600067ffffffffffffffff8211156147a2576147a1613e4d565b5b6147ab82613e3c565b9050602081019050919050565b60006147cb6147c684614787565b613ead565b9050828152602081018484840111156147e7576147e6613e37565b5b6147f2848285613ef9565b509392505050565b600082601f83011261480f5761480e613e32565b5b813561481f8482602086016147b8565b91505092915050565b6000806000806080858703121561484257614841613df2565b5b6000614850878288016141d0565b9450506020614861878288016141d0565b935050604061487287828801613e1d565b925050606085013567ffffffffffffffff81111561489357614892613df7565b5b61489f878288016147fa565b91505092959194509250565b600080604083850312156148c2576148c1613df2565b5b600083013567ffffffffffffffff8111156148e0576148df613df7565b5b6148ec85828601613f4a565b925050602083013567ffffffffffffffff81111561490d5761490c613df7565b5b61491985828601613f4a565b9150509250929050565b6000806040838503121561493a57614939613df2565b5b6000614948858286016141d0565b9250506020614959858286016141d0565b9150509250929050565b6000806040838503121561497a57614979613df2565b5b600061498885828601613e1d565b925050602061499985828601613e1d565b9150509250929050565b7f4552433732313a2063616c6c6572206973206e6f74206f776e6572206e6f722060008201527f617070726f766564000000000000000000000000000000000000000000000000602082015250565b60006149ff60288361409a565b9150614a0a826149a3565b604082019050919050565b60006020820190508181036000830152614a2e816149f2565b9050919050565b7f4e487b7100000000000000000000000000000000000000000000000000000000600052601160045260246000fd5b6000614a6f82613dfc565b915060008203614a8257614a81614a35565b5b600182039050919050565b7f4e487b7100000000000000000000000000000000000000000000000000000000600052602260045260246000fd5b60006002820490506001821680614ad457607f821691505b602082108103614ae757614ae6614a8d565b5b50919050565b7f4552433732313a20617070726f76656420717565727920666f72206e6f6e657860008201527f697374656e7420746f6b656e0000000000000000000000000000000000000000602082015250565b6000614b49602c8361409a565b9150614b5482614aed565b604082019050919050565b60006020820190508181036000830152614b7881614b3c565b9050919050565b7f4552433732313a20617070726f76616c20746f2063757272656e74206f776e6560008201527f7200000000000000000000000000000000000000000000000000000000000000602082015250565b6000614bdb60218361409a565b9150614be682614b7f565b604082019050919050565b60006020820190508181036000830152614c0a81614bce565b9050919050565b7f4552433732313a20617070726f76652063616c6c6572206973206e6f74206f7760008201527f6e6572206e6f7220617070726f76656420666f7220616c6c0000000000000000602082015250565b6000614c6d60388361409a565b9150614c7882614c11565b604082019050919050565b60006020820190508181036000830152614c9c81614c60565b9050919050565b600081905092915050565b6000614cb98261408f565b614cc38185614ca3565b9350614cd38185602086016140ab565b80840191505092915050565b6000614ceb8284614cae565b915081905092915050565b7f4552433732313a207472616e736665722063616c6c6572206973206e6f74206f60008201527f776e6572206e6f7220617070726f766564000000000000000000000000000000602082015250565b6000614d5260318361409a565b9150614d5d82614cf6565b604082019050919050565b60006020820190508181036000830152614d8181614d45565b9050919050565b7f496e76616c696420746f6b656e20494400000000000000000000000000000000600082015250565b6000614dbe60108361409a565b9150614dc982614d88565b602082019050919050565b60006020820190508181036000830152614ded81614db1565b9050919050565b7f43616e6e6f7420636c6f6e65206120636c6f6e65000000000000000000000000600082015250565b6000614e2a60148361409a565b9150614e3582614df4565b602082019050919050565b60006020820190508181036000830152614e5981614e1d565b9050919050565b7f496e73756666696369656e742066756e647320746f206d696e7420636c6f6e65600082015250565b6000614e9660208361409a565b9150614ea182614e60565b602082019050919050565b60006020820190508181036000830152614ec581614e89565b9050919050565b6000614ed782613dfc565b91507fffffffffffffffffffffffffffffffffffffffffffffffffffffffffffffffff8203614f0957614f08614a35565b5b600182019050919050565b7f4f776e61626c653a2063616c6c6572206973206e6f7420746865206f776e6572600082015250565b6000614f4a60208361409a565b9150614f5582614f14565b602082019050919050565b60006020820190508181036000830152614f7981614f3d565b9050919050565b7f4552433732313a206f776e657220717565727920666f72206e6f6e657869737460008201527f656e7420746f6b656e0000000000000000000000000000000000000000000000602082015250565b6000614fdc60298361409a565b9150614fe782614f80565b604082019050919050565b6000602082019050818103600083015261500b81614fcf565b9050919050565b7f546f6b656e206973206120636c6f6e652c206e6f7420616e206f726967696e6160008201527f6c00000000000000000000000000000000000000000000000000000000000000602082015250565b600061506e60218361409a565b915061507982615012565b604082019050919050565b6000602082019050818103600083015261509d81615061565b9050919050565b7f4552433732313a2062616c616e636520717565727920666f7220746865207a6560008201527f726f206164647265737300000000000000000000000000000000000000000000602082015250565b6000615100602a8361409a565b915061510b826150a4565b604082019050919050565b6000602082019050818103600083015261512f816150f3565b9050919050565b60008190508160005260206000209050919050565b60006020601f8301049050919050565b600082821b905092915050565b6000600883026151987fffffffffffffffffffffffffffffffffffffffffffffffffffffffffffffffff8261515b565b6151a2868361515b565b95508019841693508086168417925050509392505050565b6000819050919050565b60006151df6151da6151d584613dfc565b6151ba565b613dfc565b9050919050565b6000819050919050565b6151f9836151c4565b61520d615205826151e6565b848454615168565b825550505050565b600090565b615222615215565b61522d8184846151f0565b505050565b5b818110156152515761524660008261521a565b600181019050615233565b5050565b601f8211156152965761526781615136565b6152708461514b565b8101602085101561527f578190505b61529361528b8561514b565b830182615232565b50505b505050565b600082821c905092915050565b60006152b96000198460080261529b565b1980831691505092915050565b60006152d283836152a8565b9150826002028217905092915050565b6152eb8261408f565b67ffffffffffffffff81111561530457615303613e4d565b5b61530e8254614abc565b615319828285615255565b600060209050601f83116001811461534c576000841561533a578287015190505b61534485826152c6565b8655506153ac565b601f19841661535a86615136565b60005b828110156153825784890151825560018201915060208501945060208101905061535d565b8683101561539f578489015161539b601f8916826152a8565b8355505b6001600288020188555050505b505050505050565b7f4e487b7100000000000000000000000000000000000000000000000000000000600052603260045260246000fd5b7f546f6b656e20646f6573206e6f74206578697374000000000000000000000000600082015250565b600061541960148361409a565b9150615424826153e3565b602082019050919050565b600060208201905081810360008301526154488161540c565b9050919050565b7f546f6b656e206973206e6f74206120636c6f6e65000000000000000000000000600082015250565b600061548560148361409a565b91506154908261544f565b602082019050919050565b600060208201905081810360008301526154b481615478565b9050919050565b7f43616c6c6572206973206e6f7420616c6c6f77656420746f206d696e74000000600082015250565b60006154f1601d8361409a565b91506154fc826154bb565b602082019050919050565b60006020820190508181036000830152615520816154e4565b9050919050565b7f43616c6c6572206973206e6f7420636f6e7472616374206f7220746f6b656e2060008201527f6f776e6572000000000000000000000000000000000000000000000000000000602082015250565b600061558360258361409a565b915061558e82615527565b604082019050919050565b600060208201905081810360008301526155b281615576565b9050919050565b7f4f776e61626c653a206e6577206f776e657220697320746865207a65726f206160008201527f6464726573730000000000000000000000000000000000000000000000000000602082015250565b600061561560268361409a565b9150615620826155b9565b604082019050919050565b6000602082019050818103600083015261564481615608565b9050919050565b600061565682613dfc565b915061566183613dfc565b925082820190508082111561567957615678614a35565b5b92915050565b7f4552433732313a206f70657261746f7220717565727920666f72206e6f6e657860008201527f697374656e7420746f6b656e0000000000000000000000000000000000000000602082015250565b60006156db602c8361409a565b91506156e68261567f565b604082019050919050565b6000602082019050818103600083015261570a816156ce565b9050919050565b600061571c82613dfc565b915061572783613dfc565b925082820390508181111561573f5761573e614a35565b5b92915050565b7f4e487b7100000000000000000000000000000000000000000000000000000000600052603160045260246000fd5b7f45524337323155524953746f726167653a2055524920736574206f66206e6f6e60008201527f6578697374656e7420746f6b656e000000000000000000000000000000000000602082015250565b60006157d0602e8361409a565b91506157db82615774565b604082019050919050565b600060208201905081810360008301526157ff816157c3565b9050919050565b7f4552433732313a20617070726f766520746f2063616c6c657200000000000000600082015250565b600061583c60198361409a565b915061584782615806565b602082019050919050565b6000602082019050818103600083015261586b8161582f565b9050919050565b7f4552433732313a207472616e7366657220746f206e6f6e20455243373231526560008201527f63656976657220696d706c656d656e7465720000000000000000000000000000602082015250565b60006158ce60328361409a565b91506158d982615872565b604082019050919050565b600060208201905081810360008301526158fd816158c1565b9050919050565b7f45524337323155524953746f726167653a2055524920717565727920666f722060008201527f6e6f6e6578697374656e7420746f6b656e000000000000000000000000000000602082015250565b600061596060318361409a565b915061596b82615904565b604082019050919050565b6000602082019050818103600083015261598f81615953565b9050919050565b60006159a28285614cae565b91506159ae8284614cae565b91508190509392505050565b7f4e487b7100000000000000000000000000000000000000000000000000000000600052602160045260246000fd5b7f4552433732313a207472616e73666572206f6620746f6b656e2074686174206960008201527f73206e6f74206f776e0000000000000000000000000000000000000000000000602082015250565b6000615a4560298361409a565b9150615a50826159e9565b604082019050919050565b60006020820190508181036000830152615a7481615a38565b9050919050565b7f4552433732313a207472616e7366657220746f20746865207a65726f2061646460008201527f7265737300000000000000000000000000000000000000000000000000000000602082015250565b6000615ad760248361409a565b9150615ae282615a7b565b604082019050919050565b60006020820190508181036000830152615b0681615aca565b9050919050565b600081519050919050565b600082825260208201905092915050565b6000615b3482615b0d565b615b3e8185615b18565b9350615b4e8185602086016140ab565b615b5781613e3c565b840191505092915050565b6000608082019050615b77600083018761418f565b615b84602083018661418f565b615b916040830185614491565b8181036060830152615ba38184615b29565b905095945050505050565b600081519050615bbd81614000565b92915050565b600060208284031215615bd957615bd8613df2565b5b6000615be784828501615bae565b91505092915050565b7f4552433732314d657461646174613a2055524920717565727920666f72206e6f60008201527f6e6578697374656e7420746f6b656e0000000000000000000000000000000000602082015250565b6000615c4c602f8361409a565b9150615c5782615bf0565b604082019050919050565b60006020820190508181036000830152615c7b81615c3f565b9050919050565b7f4552433732313a206d696e7420746f20746865207a65726f2061646472657373600082015250565b6000615cb860208361409a565b9150615cc382615c82565b602082019050919050565b60006020820190508181036000830152615ce781615cab565b9050919050565b7f4552433732313a20746f6b656e20616c7265616479206d696e74656400000000600082015250565b6000615d24601c8361409a565b9150615d2f82615cee565b602082019050919050565b60006020820190508181036000830152615d5381615d17565b9050919050565b7f4e487b7100000000000000000000000000000000000000000000000000000000600052601260045260246000fd5b6000615d9482613dfc565b9150615d9f83613dfc565b925082615daf57615dae615d5a565b5b828204905092915050565b6000615dc582613dfc565b9150615dd083613dfc565b925082615de057615ddf615d5a565b5b82820690509291505056fea2646970667358221220c9f3959837ea08a5d0f9d863cbcf7ab72df68656140bb3cc8f57b133c1c5d26d64736f6c63430008120033",
			"opcodes": "PUSH1 0x80 PUSH1 0x40 MSTORE PUSH1 0x0 PUSH1 0xB SSTORE CALLVALUE DUP1 ISZERO PUSH3 0x16 JUMPI PUSH1 0x0 DUP1 REVERT JUMPDEST POP PUSH1 0x40 MLOAD PUSH3 0x65B3 CODESIZE SUB DUP1 PUSH3 0x65B3 DUP4 CODECOPY DUP2 DUP2 ADD PUSH1 0x40 MSTORE DUP2 ADD SWAP1 PUSH3 0x3C SWAP2 SWAP1 PUSH3 0x38B JUMP JUMPDEST DUP4 DUP4 DUP2 PUSH1 0x0 SWAP1 DUP2 PUSH3 0x4F SWAP2 SWAP1 PUSH3 0x69B JUMP JUMPDEST POP DUP1 PUSH1 0x1 SWAP1 DUP2 PUSH3 0x61 SWAP2 SWAP1 PUSH3 0x69B JUMP JUMPDEST POP POP POP PUSH3 0x84 PUSH3 0x78 PUSH3 0xEF PUSH1 0x20 SHL PUSH1 0x20 SHR JUMP JUMPDEST PUSH3 0xF7 PUSH1 0x20 SHL PUSH1 0x20 SHR JUMP JUMPDEST CALLER PUSH1 0x12 PUSH1 0x0 PUSH2 0x100 EXP DUP2 SLOAD DUP2 PUSH20 0xFFFFFFFFFFFFFFFFFFFFFFFFFFFFFFFFFFFFFFFF MUL NOT AND SWAP1 DUP4 PUSH20 0xFFFFFFFFFFFFFFFFFFFFFFFFFFFFFFFFFFFFFFFF AND MUL OR SWAP1 SSTORE POP TIMESTAMP PUSH1 0x9 DUP2 SWAP1 SSTORE POP DUP2 PUSH1 0xA SWAP1 DUP2 PUSH3 0xDD SWAP2 SWAP1 PUSH3 0x69B JUMP JUMPDEST POP DUP1 PUSH1 0xB DUP2 SWAP1 SSTORE POP POP POP POP POP PUSH3 0x782 JUMP JUMPDEST PUSH1 0x0 CALLER SWAP1 POP SWAP1 JUMP JUMPDEST PUSH1 0x0 PUSH1 0x7 PUSH1 0x0 SWAP1 SLOAD SWAP1 PUSH2 0x100 EXP SWAP1 DIV PUSH20 0xFFFFFFFFFFFFFFFFFFFFFFFFFFFFFFFFFFFFFFFF AND SWAP1 POP DUP2 PUSH1 0x7 PUSH1 0x0 PUSH2 0x100 EXP DUP2 SLOAD DUP2 PUSH20 0xFFFFFFFFFFFFFFFFFFFFFFFFFFFFFFFFFFFFFFFF MUL NOT AND SWAP1 DUP4 PUSH20 0xFFFFFFFFFFFFFFFFFFFFFFFFFFFFFFFFFFFFFFFF AND MUL OR SWAP1 SSTORE POP DUP2 PUSH20 0xFFFFFFFFFFFFFFFFFFFFFFFFFFFFFFFFFFFFFFFF AND DUP2 PUSH20 0xFFFFFFFFFFFFFFFFFFFFFFFFFFFFFFFFFFFFFFFF AND PUSH32 0x8BE0079C531659141344CD1FD0A4F28419497F9722A3DAAFE3B4186F6B6457E0 PUSH1 0x40 MLOAD PUSH1 0x40 MLOAD DUP1 SWAP2 SUB SWAP1 LOG3 POP POP JUMP JUMPDEST PUSH1 0x0 PUSH1 0x40 MLOAD SWAP1 POP SWAP1 JUMP JUMPDEST PUSH1 0x0 DUP1 REVERT JUMPDEST PUSH1 0x0 DUP1 REVERT JUMPDEST PUSH1 0x0 DUP1 REVERT JUMPDEST PUSH1 0x0 DUP1 REVERT JUMPDEST PUSH1 0x0 PUSH1 0x1F NOT PUSH1 0x1F DUP4 ADD AND SWAP1 POP SWAP2 SWAP1 POP JUMP JUMPDEST PUSH32 0x4E487B7100000000000000000000000000000000000000000000000000000000 PUSH1 0x0 MSTORE PUSH1 0x41 PUSH1 0x4 MSTORE PUSH1 0x24 PUSH1 0x0 REVERT JUMPDEST PUSH3 0x226 DUP3 PUSH3 0x1DB JUMP JUMPDEST DUP2 ADD DUP2 DUP2 LT PUSH8 0xFFFFFFFFFFFFFFFF DUP3 GT OR ISZERO PUSH3 0x248 JUMPI PUSH3 0x247 PUSH3 0x1EC JUMP JUMPDEST JUMPDEST DUP1 PUSH1 0x40 MSTORE POP POP POP JUMP JUMPDEST PUSH1 0x0 PUSH3 0x25D PUSH3 0x1BD JUMP JUMPDEST SWAP1 POP PUSH3 0x26B DUP3 DUP3 PUSH3 0x21B JUMP JUMPDEST SWAP2 SWAP1 POP JUMP JUMPDEST PUSH1 0x0 PUSH8 0xFFFFFFFFFFFFFFFF DUP3 GT ISZERO PUSH3 0x28E JUMPI PUSH3 0x28D PUSH3 0x1EC JUMP JUMPDEST JUMPDEST PUSH3 0x299 DUP3 PUSH3 0x1DB JUMP JUMPDEST SWAP1 POP PUSH1 0x20 DUP2 ADD SWAP1 POP SWAP2 SWAP1 POP JUMP JUMPDEST PUSH1 0x0 JUMPDEST DUP4 DUP2 LT ISZERO PUSH3 0x2C6 JUMPI DUP1 DUP3 ADD MLOAD DUP2 DUP5 ADD MSTORE PUSH1 0x20 DUP2 ADD SWAP1 POP PUSH3 0x2A9 JUMP JUMPDEST PUSH1 0x0 DUP5 DUP5 ADD MSTORE POP POP POP POP JUMP JUMPDEST PUSH1 0x0 PUSH3 0x2E9 PUSH3 0x2E3 DUP5 PUSH3 0x270 JUMP JUMPDEST PUSH3 0x251 JUMP JUMPDEST SWAP1 POP DUP3 DUP2 MSTORE PUSH1 0x20 DUP2 ADD DUP5 DUP5 DUP5 ADD GT ISZERO PUSH3 0x308 JUMPI PUSH3 0x307 PUSH3 0x1D6 JUMP JUMPDEST JUMPDEST PUSH3 0x315 DUP5 DUP3 DUP6 PUSH3 0x2A6 JUMP JUMPDEST POP SWAP4 SWAP3 POP POP POP JUMP JUMPDEST PUSH1 0x0 DUP3 PUSH1 0x1F DUP4 ADD SLT PUSH3 0x335 JUMPI PUSH3 0x334 PUSH3 0x1D1 JUMP JUMPDEST JUMPDEST DUP2 MLOAD PUSH3 0x347 DUP5 DUP3 PUSH1 0x20 DUP7 ADD PUSH3 0x2D2 JUMP JUMPDEST SWAP2 POP POP SWAP3 SWAP2 POP POP JUMP JUMPDEST PUSH1 0x0 DUP2 SWAP1 POP SWAP2 SWAP1 POP JUMP JUMPDEST PUSH3 0x365 DUP2 PUSH3 0x350 JUMP JUMPDEST DUP2 EQ PUSH3 0x371 JUMPI PUSH1 0x0 DUP1 REVERT JUMPDEST POP JUMP JUMPDEST PUSH1 0x0 DUP2 MLOAD SWAP1 POP PUSH3 0x385 DUP2 PUSH3 0x35A JUMP JUMPDEST SWAP3 SWAP2 POP POP JUMP JUMPDEST PUSH1 0x0 DUP1 PUSH1 0x0 DUP1 PUSH1 0x80 DUP6 DUP8 SUB SLT ISZERO PUSH3 0x3A8 JUMPI PUSH3 0x3A7 PUSH3 0x1C7 JUMP JUMPDEST JUMPDEST PUSH1 0x0 DUP6 ADD MLOAD PUSH8 0xFFFFFFFFFFFFFFFF DUP2 GT ISZERO PUSH3 0x3C9 JUMPI PUSH3 0x3C8 PUSH3 0x1CC JUMP JUMPDEST JUMPDEST PUSH3 0x3D7 DUP8 DUP3 DUP9 ADD PUSH3 0x31D JUMP JUMPDEST SWAP5 POP POP PUSH1 0x20 DUP6 ADD MLOAD PUSH8 0xFFFFFFFFFFFFFFFF DUP2 GT ISZERO PUSH3 0x3FB JUMPI PUSH3 0x3FA PUSH3 0x1CC JUMP JUMPDEST JUMPDEST PUSH3 0x409 DUP8 DUP3 DUP9 ADD PUSH3 0x31D JUMP JUMPDEST SWAP4 POP POP PUSH1 0x40 DUP6 ADD MLOAD PUSH8 0xFFFFFFFFFFFFFFFF DUP2 GT ISZERO PUSH3 0x42D JUMPI PUSH3 0x42C PUSH3 0x1CC JUMP JUMPDEST JUMPDEST PUSH3 0x43B DUP8 DUP3 DUP9 ADD PUSH3 0x31D JUMP JUMPDEST SWAP3 POP POP PUSH1 0x60 PUSH3 0x44E DUP8 DUP3 DUP9 ADD PUSH3 0x374 JUMP JUMPDEST SWAP2 POP POP SWAP3 SWAP6 SWAP2 SWAP5 POP SWAP3 POP JUMP JUMPDEST PUSH1 0x0 DUP2 MLOAD SWAP1 POP SWAP2 SWAP1 POP JUMP JUMPDEST PUSH32 0x4E487B7100000000000000000000000000000000000000000000000000000000 PUSH1 0x0 MSTORE PUSH1 0x22 PUSH1 0x4 MSTORE PUSH1 0x24 PUSH1 0x0 REVERT JUMPDEST PUSH1 0x0 PUSH1 0x2 DUP3 DIV SWAP1 POP PUSH1 0x1 DUP3 AND DUP1 PUSH3 0x4AD JUMPI PUSH1 0x7F DUP3 AND SWAP2 POP JUMPDEST PUSH1 0x20 DUP3 LT DUP2 SUB PUSH3 0x4C3 JUMPI PUSH3 0x4C2 PUSH3 0x465 JUMP JUMPDEST JUMPDEST POP SWAP2 SWAP1 POP JUMP JUMPDEST PUSH1 0x0 DUP2 SWAP1 POP DUP2 PUSH1 0x0 MSTORE PUSH1 0x20 PUSH1 0x0 KECCAK256 SWAP1 POP SWAP2 SWAP1 POP JUMP JUMPDEST PUSH1 0x0 PUSH1 0x20 PUSH1 0x1F DUP4 ADD DIV SWAP1 POP SWAP2 SWAP1 POP JUMP JUMPDEST PUSH1 0x0 DUP3 DUP3 SHL SWAP1 POP SWAP3 SWAP2 POP POP JUMP JUMPDEST PUSH1 0x0 PUSH1 0x8 DUP4 MUL PUSH3 0x52D PUSH32 0xFFFFFFFFFFFFFFFFFFFFFFFFFFFFFFFFFFFFFFFFFFFFFFFFFFFFFFFFFFFFFFFF DUP3 PUSH3 0x4EE JUMP JUMPDEST PUSH3 0x539 DUP7 DUP4 PUSH3 0x4EE JUMP JUMPDEST SWAP6 POP DUP1 NOT DUP5 AND SWAP4 POP DUP1 DUP7 AND DUP5 OR SWAP3 POP POP POP SWAP4 SWAP3 POP POP POP JUMP JUMPDEST PUSH1 0x0 DUP2 SWAP1 POP SWAP2 SWAP1 POP JUMP JUMPDEST PUSH1 0x0 PUSH3 0x57C PUSH3 0x576 PUSH3 0x570 DUP5 PUSH3 0x350 JUMP JUMPDEST PUSH3 0x551 JUMP JUMPDEST PUSH3 0x350 JUMP JUMPDEST SWAP1 POP SWAP2 SWAP1 POP JUMP JUMPDEST PUSH1 0x0 DUP2 SWAP1 POP SWAP2 SWAP1 POP JUMP JUMPDEST PUSH3 0x598 DUP4 PUSH3 0x55B JUMP JUMPDEST PUSH3 0x5B0 PUSH3 0x5A7 DUP3 PUSH3 0x583 JUMP JUMPDEST DUP5 DUP5 SLOAD PUSH3 0x4FB JUMP JUMPDEST DUP3 SSTORE POP POP POP POP JUMP JUMPDEST PUSH1 0x0 SWAP1 JUMP JUMPDEST PUSH3 0x5C7 PUSH3 0x5B8 JUMP JUMPDEST PUSH3 0x5D4 DUP2 DUP5 DUP5 PUSH3 0x58D JUMP JUMPDEST POP POP POP JUMP JUMPDEST JUMPDEST DUP2 DUP2 LT ISZERO PUSH3 0x5FC JUMPI PUSH3 0x5F0 PUSH1 0x0 DUP3 PUSH3 0x5BD JUMP JUMPDEST PUSH1 0x1 DUP2 ADD SWAP1 POP PUSH3 0x5DA JUMP JUMPDEST POP POP JUMP JUMPDEST PUSH1 0x1F DUP3 GT ISZERO PUSH3 0x64B JUMPI PUSH3 0x615 DUP2 PUSH3 0x4C9 JUMP JUMPDEST PUSH3 0x620 DUP5 PUSH3 0x4DE JUMP JUMPDEST DUP2 ADD PUSH1 0x20 DUP6 LT ISZERO PUSH3 0x630 JUMPI DUP2 SWAP1 POP JUMPDEST PUSH3 0x648 PUSH3 0x63F DUP6 PUSH3 0x4DE JUMP JUMPDEST DUP4 ADD DUP3 PUSH3 0x5D9 JUMP JUMPDEST POP POP JUMPDEST POP POP POP JUMP JUMPDEST PUSH1 0x0 DUP3 DUP3 SHR SWAP1 POP SWAP3 SWAP2 POP POP JUMP JUMPDEST PUSH1 0x0 PUSH3 0x670 PUSH1 0x0 NOT DUP5 PUSH1 0x8 MUL PUSH3 0x650 JUMP JUMPDEST NOT DUP1 DUP4 AND SWAP2 POP POP SWAP3 SWAP2 POP POP JUMP JUMPDEST PUSH1 0x0 PUSH3 0x68B DUP4 DUP4 PUSH3 0x65D JUMP JUMPDEST SWAP2 POP DUP3 PUSH1 0x2 MUL DUP3 OR SWAP1 POP SWAP3 SWAP2 POP POP JUMP JUMPDEST PUSH3 0x6A6 DUP3 PUSH3 0x45A JUMP JUMPDEST PUSH8 0xFFFFFFFFFFFFFFFF DUP2 GT ISZERO PUSH3 0x6C2 JUMPI PUSH3 0x6C1 PUSH3 0x1EC JUMP JUMPDEST JUMPDEST PUSH3 0x6CE DUP3 SLOAD PUSH3 0x494 JUMP JUMPDEST PUSH3 0x6DB DUP3 DUP3 DUP6 PUSH3 0x600 JUMP JUMPDEST PUSH1 0x0 PUSH1 0x20 SWAP1 POP PUSH1 0x1F DUP4 GT PUSH1 0x1 DUP2 EQ PUSH3 0x713 JUMPI PUSH1 0x0 DUP5 ISZERO PUSH3 0x6FE JUMPI DUP3 DUP8 ADD MLOAD SWAP1 POP JUMPDEST PUSH3 0x70A DUP6 DUP3 PUSH3 0x67D JUMP JUMPDEST DUP7 SSTORE POP PUSH3 0x77A JUMP JUMPDEST PUSH1 0x1F NOT DUP5 AND PUSH3 0x723 DUP7 PUSH3 0x4C9 JUMP JUMPDEST PUSH1 0x0 JUMPDEST DUP3 DUP2 LT ISZERO PUSH3 0x74D JUMPI DUP5 DUP10 ADD MLOAD DUP3 SSTORE PUSH1 0x1 DUP3 ADD SWAP2 POP PUSH1 0x20 DUP6 ADD SWAP5 POP PUSH1 0x20 DUP2 ADD SWAP1 POP PUSH3 0x726 JUMP JUMPDEST DUP7 DUP4 LT ISZERO PUSH3 0x76D JUMPI DUP5 DUP10 ADD MLOAD PUSH3 0x769 PUSH1 0x1F DUP10 AND DUP3 PUSH3 0x65D JUMP JUMPDEST DUP4 SSTORE POP JUMPDEST PUSH1 0x1 PUSH1 0x2 DUP9 MUL ADD DUP9 SSTORE POP POP POP JUMPDEST POP POP POP POP POP POP JUMP JUMPDEST PUSH2 0x5E21 DUP1 PUSH3 0x792 PUSH1 0x0 CODECOPY PUSH1 0x0 RETURN INVALID PUSH1 0x80 PUSH1 0x40 MSTORE PUSH1 0x4 CALLDATASIZE LT PUSH2 0x230 JUMPI PUSH1 0x0 CALLDATALOAD PUSH1 0xE0 SHR DUP1 PUSH4 0x7284E416 GT PUSH2 0x12E JUMPI DUP1 PUSH4 0xC144DD2A GT PUSH2 0xAB JUMPI DUP1 PUSH4 0xE9605544 GT PUSH2 0x6F JUMPI DUP1 PUSH4 0xE9605544 EQ PUSH2 0x8A2 JUMPI DUP1 PUSH4 0xE985E9C5 EQ PUSH2 0x8CB JUMPI DUP1 PUSH4 0xEF74248D EQ PUSH2 0x908 JUMPI DUP1 PUSH4 0xF2FDE38B EQ PUSH2 0x931 JUMPI DUP1 PUSH4 0xF67A769C EQ PUSH2 0x95A JUMPI PUSH2 0x230 JUMP JUMPDEST DUP1 PUSH4 0xC144DD2A EQ PUSH2 0x795 JUMPI DUP1 PUSH4 0xC6AF1122 EQ PUSH2 0x7D2 JUMPI DUP1 PUSH4 0xC87B56DD EQ PUSH2 0x7FD JUMPI DUP1 PUSH4 0xD800FE45 EQ PUSH2 0x83A JUMPI DUP1 PUSH4 0xD8270DCE EQ PUSH2 0x877 JUMPI PUSH2 0x230 JUMP JUMPDEST DUP1 PUSH4 0x934689A9 GT PUSH2 0xF2 JUMPI DUP1 PUSH4 0x934689A9 EQ PUSH2 0x69E JUMPI DUP1 PUSH4 0x95D89B41 EQ PUSH2 0x6DB JUMPI DUP1 PUSH4 0xA22CB465 EQ PUSH2 0x706 JUMPI DUP1 PUSH4 0xB88D4FDE EQ PUSH2 0x72F JUMPI DUP1 PUSH4 0xBC8C778F EQ PUSH2 0x758 JUMPI PUSH2 0x230 JUMP JUMPDEST DUP1 PUSH4 0x7284E416 EQ PUSH2 0x5C9 JUMPI DUP1 PUSH4 0x768D7DBB EQ PUSH2 0x5F4 JUMPI DUP1 PUSH4 0x7D5298B9 EQ PUSH2 0x61F JUMPI DUP1 PUSH4 0x8909AB12 EQ PUSH2 0x64A JUMPI DUP1 PUSH4 0x8DA5CB5B EQ PUSH2 0x673 JUMPI PUSH2 0x230 JUMP JUMPDEST DUP1 PUSH4 0x2AA2E90A GT PUSH2 0x1BC JUMPI DUP1 PUSH4 0x4DA6DE3F GT PUSH2 0x180 JUMPI DUP1 PUSH4 0x4DA6DE3F EQ PUSH2 0x4D0 JUMPI DUP1 PUSH4 0x6352211E EQ PUSH2 0x4FB JUMPI DUP1 PUSH4 0x639032CC EQ PUSH2 0x538 JUMPI DUP1 PUSH4 0x70A08231 EQ PUSH2 0x575 JUMPI DUP1 PUSH4 0x715018A6 EQ PUSH2 0x5B2 JUMPI PUSH2 0x230 JUMP JUMPDEST DUP1 PUSH4 0x2AA2E90A EQ PUSH2 0x3FA JUMPI DUP1 PUSH4 0x385EDA9C EQ PUSH2 0x416 JUMPI DUP1 PUSH4 0x3CCFD60B EQ PUSH2 0x453 JUMPI DUP1 PUSH4 0x42842E0E EQ PUSH2 0x46A JUMPI DUP1 PUSH4 0x4D159EC9 EQ PUSH2 0x493 JUMPI PUSH2 0x230 JUMP JUMPDEST DUP1 PUSH4 0x95EA7B3 GT PUSH2 0x203 JUMPI DUP1 PUSH4 0x95EA7B3 EQ PUSH2 0x303 JUMPI DUP1 PUSH4 0xE258726 EQ PUSH2 0x32C JUMPI DUP1 PUSH4 0x1741F3E2 EQ PUSH2 0x357 JUMPI DUP1 PUSH4 0x1B8899CE EQ PUSH2 0x394 JUMPI DUP1 PUSH4 0x23B872DD EQ PUSH2 0x3D1 JUMPI PUSH2 0x230 JUMP JUMPDEST DUP1 PUSH4 0x10F7735 EQ PUSH2 0x235 JUMPI DUP1 PUSH4 0x1FFC9A7 EQ PUSH2 0x25E JUMPI DUP1 PUSH4 0x6FDDE03 EQ PUSH2 0x29B JUMPI DUP1 PUSH4 0x81812FC EQ PUSH2 0x2C6 JUMPI JUMPDEST PUSH1 0x0 DUP1 REVERT JUMPDEST CALLVALUE DUP1 ISZERO PUSH2 0x241 JUMPI PUSH1 0x0 DUP1 REVERT JUMPDEST POP PUSH2 0x25C PUSH1 0x4 DUP1 CALLDATASIZE SUB DUP2 ADD SWAP1 PUSH2 0x257 SWAP2 SWAP1 PUSH2 0x3F78 JUMP JUMPDEST PUSH2 0x985 JUMP JUMPDEST STOP JUMPDEST CALLVALUE DUP1 ISZERO PUSH2 0x26A JUMPI PUSH1 0x0 DUP1 REVERT JUMPDEST POP PUSH2 0x285 PUSH1 0x4 DUP1 CALLDATASIZE SUB DUP2 ADD SWAP1 PUSH2 0x280 SWAP2 SWAP1 PUSH2 0x402C JUMP JUMPDEST PUSH2 0xA48 JUMP JUMPDEST PUSH1 0x40 MLOAD PUSH2 0x292 SWAP2 SWAP1 PUSH2 0x4074 JUMP JUMPDEST PUSH1 0x40 MLOAD DUP1 SWAP2 SUB SWAP1 RETURN JUMPDEST CALLVALUE DUP1 ISZERO PUSH2 0x2A7 JUMPI PUSH1 0x0 DUP1 REVERT JUMPDEST POP PUSH2 0x2B0 PUSH2 0xB2A JUMP JUMPDEST PUSH1 0x40 MLOAD PUSH2 0x2BD SWAP2 SWAP1 PUSH2 0x410E JUMP JUMPDEST PUSH1 0x40 MLOAD DUP1 SWAP2 SUB SWAP1 RETURN JUMPDEST CALLVALUE DUP1 ISZERO PUSH2 0x2D2 JUMPI PUSH1 0x0 DUP1 REVERT JUMPDEST POP PUSH2 0x2ED PUSH1 0x4 DUP1 CALLDATASIZE SUB DUP2 ADD SWAP1 PUSH2 0x2E8 SWAP2 SWAP1 PUSH2 0x4130 JUMP JUMPDEST PUSH2 0xBBC JUMP JUMPDEST PUSH1 0x40 MLOAD PUSH2 0x2FA SWAP2 SWAP1 PUSH2 0x419E JUMP JUMPDEST PUSH1 0x40 MLOAD DUP1 SWAP2 SUB SWAP1 RETURN JUMPDEST CALLVALUE DUP1 ISZERO PUSH2 0x30F JUMPI PUSH1 0x0 DUP1 REVERT JUMPDEST POP PUSH2 0x32A PUSH1 0x4 DUP1 CALLDATASIZE SUB DUP2 ADD SWAP1 PUSH2 0x325 SWAP2 SWAP1 PUSH2 0x41E5 JUMP JUMPDEST PUSH2 0xC41 JUMP JUMPDEST STOP JUMPDEST CALLVALUE DUP1 ISZERO PUSH2 0x338 JUMPI PUSH1 0x0 DUP1 REVERT JUMPDEST POP PUSH2 0x341 PUSH2 0xD58 JUMP JUMPDEST PUSH1 0x40 MLOAD PUSH2 0x34E SWAP2 SWAP1 PUSH2 0x419E JUMP JUMPDEST PUSH1 0x40 MLOAD DUP1 SWAP2 SUB SWAP1 RETURN JUMPDEST CALLVALUE DUP1 ISZERO PUSH2 0x363 JUMPI PUSH1 0x0 DUP1 REVERT JUMPDEST POP PUSH2 0x37E PUSH1 0x4 DUP1 CALLDATASIZE SUB DUP2 ADD SWAP1 PUSH2 0x379 SWAP2 SWAP1 PUSH2 0x4225 JUMP JUMPDEST PUSH2 0xD82 JUMP JUMPDEST PUSH1 0x40 MLOAD PUSH2 0x38B SWAP2 SWAP1 PUSH2 0x432C JUMP JUMPDEST PUSH1 0x40 MLOAD DUP1 SWAP2 SUB SWAP1 RETURN JUMPDEST CALLVALUE DUP1 ISZERO PUSH2 0x3A0 JUMPI PUSH1 0x0 DUP1 REVERT JUMPDEST POP PUSH2 0x3BB PUSH1 0x4 DUP1 CALLDATASIZE SUB DUP2 ADD SWAP1 PUSH2 0x3B6 SWAP2 SWAP1 PUSH2 0x4373 JUMP JUMPDEST PUSH2 0xDF8 JUMP JUMPDEST PUSH1 0x40 MLOAD PUSH2 0x3C8 SWAP2 SWAP1 PUSH2 0x432C JUMP JUMPDEST PUSH1 0x40 MLOAD DUP1 SWAP2 SUB SWAP1 RETURN JUMPDEST CALLVALUE DUP1 ISZERO PUSH2 0x3DD JUMPI PUSH1 0x0 DUP1 REVERT JUMPDEST POP PUSH2 0x3F8 PUSH1 0x4 DUP1 CALLDATASIZE SUB DUP2 ADD SWAP1 PUSH2 0x3F3 SWAP2 SWAP1 PUSH2 0x43CF JUMP JUMPDEST PUSH2 0xED4 JUMP JUMPDEST STOP JUMPDEST PUSH2 0x414 PUSH1 0x4 DUP1 CALLDATASIZE SUB DUP2 ADD SWAP1 PUSH2 0x40F SWAP2 SWAP1 PUSH2 0x3F78 JUMP JUMPDEST PUSH2 0xF34 JUMP JUMPDEST STOP JUMPDEST CALLVALUE DUP1 ISZERO PUSH2 0x422 JUMPI PUSH1 0x0 DUP1 REVERT JUMPDEST POP PUSH2 0x43D PUSH1 0x4 DUP1 CALLDATASIZE SUB DUP2 ADD SWAP1 PUSH2 0x438 SWAP2 SWAP1 PUSH2 0x4130 JUMP JUMPDEST PUSH2 0x1204 JUMP JUMPDEST PUSH1 0x40 MLOAD PUSH2 0x44A SWAP2 SWAP1 PUSH2 0x4074 JUMP JUMPDEST PUSH1 0x40 MLOAD DUP1 SWAP2 SUB SWAP1 RETURN JUMPDEST CALLVALUE DUP1 ISZERO PUSH2 0x45F JUMPI PUSH1 0x0 DUP1 REVERT JUMPDEST POP PUSH2 0x468 PUSH2 0x122E JUMP JUMPDEST STOP JUMPDEST CALLVALUE DUP1 ISZERO PUSH2 0x476 JUMPI PUSH1 0x0 DUP1 REVERT JUMPDEST POP PUSH2 0x491 PUSH1 0x4 DUP1 CALLDATASIZE SUB DUP2 ADD SWAP1 PUSH2 0x48C SWAP2 SWAP1 PUSH2 0x43CF JUMP JUMPDEST PUSH2 0x12FA JUMP JUMPDEST STOP JUMPDEST CALLVALUE DUP1 ISZERO PUSH2 0x49F JUMPI PUSH1 0x0 DUP1 REVERT JUMPDEST POP PUSH2 0x4BA PUSH1 0x4 DUP1 CALLDATASIZE SUB DUP2 ADD SWAP1 PUSH2 0x4B5 SWAP2 SWAP1 PUSH2 0x4422 JUMP JUMPDEST PUSH2 0x131A JUMP JUMPDEST PUSH1 0x40 MLOAD PUSH2 0x4C7 SWAP2 SWAP1 PUSH2 0x432C JUMP JUMPDEST PUSH1 0x40 MLOAD DUP1 SWAP2 SUB SWAP1 RETURN JUMPDEST CALLVALUE DUP1 ISZERO PUSH2 0x4DC JUMPI PUSH1 0x0 DUP1 REVERT JUMPDEST POP PUSH2 0x4E5 PUSH2 0x143A JUMP JUMPDEST PUSH1 0x40 MLOAD PUSH2 0x4F2 SWAP2 SWAP1 PUSH2 0x44A0 JUMP JUMPDEST PUSH1 0x40 MLOAD DUP1 SWAP2 SUB SWAP1 RETURN JUMPDEST CALLVALUE DUP1 ISZERO PUSH2 0x507 JUMPI PUSH1 0x0 DUP1 REVERT JUMPDEST POP PUSH2 0x522 PUSH1 0x4 DUP1 CALLDATASIZE SUB DUP2 ADD SWAP1 PUSH2 0x51D SWAP2 SWAP1 PUSH2 0x4130 JUMP JUMPDEST PUSH2 0x1444 JUMP JUMPDEST PUSH1 0x40 MLOAD PUSH2 0x52F SWAP2 SWAP1 PUSH2 0x419E JUMP JUMPDEST PUSH1 0x40 MLOAD DUP1 SWAP2 SUB SWAP1 RETURN JUMPDEST CALLVALUE DUP1 ISZERO PUSH2 0x544 JUMPI PUSH1 0x0 DUP1 REVERT JUMPDEST POP PUSH2 0x55F PUSH1 0x4 DUP1 CALLDATASIZE SUB DUP2 ADD SWAP1 PUSH2 0x55A SWAP2 SWAP1 PUSH2 0x4130 JUMP JUMPDEST PUSH2 0x14F5 JUMP JUMPDEST PUSH1 0x40 MLOAD PUSH2 0x56C SWAP2 SWAP1 PUSH2 0x432C JUMP JUMPDEST PUSH1 0x40 MLOAD DUP1 SWAP2 SUB SWAP1 RETURN JUMPDEST CALLVALUE DUP1 ISZERO PUSH2 0x581 JUMPI PUSH1 0x0 DUP1 REVERT JUMPDEST POP PUSH2 0x59C PUSH1 0x4 DUP1 CALLDATASIZE SUB DUP2 ADD SWAP1 PUSH2 0x597 SWAP2 SWAP1 PUSH2 0x44BB JUMP JUMPDEST PUSH2 0x15C1 JUMP JUMPDEST PUSH1 0x40 MLOAD PUSH2 0x5A9 SWAP2 SWAP1 PUSH2 0x44A0 JUMP JUMPDEST PUSH1 0x40 MLOAD DUP1 SWAP2 SUB SWAP1 RETURN JUMPDEST CALLVALUE DUP1 ISZERO PUSH2 0x5BE JUMPI PUSH1 0x0 DUP1 REVERT JUMPDEST POP PUSH2 0x5C7 PUSH2 0x1678 JUMP JUMPDEST STOP JUMPDEST CALLVALUE DUP1 ISZERO PUSH2 0x5D5 JUMPI PUSH1 0x0 DUP1 REVERT JUMPDEST POP PUSH2 0x5DE PUSH2 0x1700 JUMP JUMPDEST PUSH1 0x40 MLOAD PUSH2 0x5EB SWAP2 SWAP1 PUSH2 0x410E JUMP JUMPDEST PUSH1 0x40 MLOAD DUP1 SWAP2 SUB SWAP1 RETURN JUMPDEST CALLVALUE DUP1 ISZERO PUSH2 0x600 JUMPI PUSH1 0x0 DUP1 REVERT JUMPDEST POP PUSH2 0x609 PUSH2 0x178E JUMP JUMPDEST PUSH1 0x40 MLOAD PUSH2 0x616 SWAP2 SWAP1 PUSH2 0x45A6 JUMP JUMPDEST PUSH1 0x40 MLOAD DUP1 SWAP2 SUB SWAP1 RETURN JUMPDEST CALLVALUE DUP1 ISZERO PUSH2 0x62B JUMPI PUSH1 0x0 DUP1 REVERT JUMPDEST POP PUSH2 0x634 PUSH2 0x181C JUMP JUMPDEST PUSH1 0x40 MLOAD PUSH2 0x641 SWAP2 SWAP1 PUSH2 0x44A0 JUMP JUMPDEST PUSH1 0x40 MLOAD DUP1 SWAP2 SUB SWAP1 RETURN JUMPDEST CALLVALUE DUP1 ISZERO PUSH2 0x656 JUMPI PUSH1 0x0 DUP1 REVERT JUMPDEST POP PUSH2 0x671 PUSH1 0x4 DUP1 CALLDATASIZE SUB DUP2 ADD SWAP1 PUSH2 0x66C SWAP2 SWAP1 PUSH2 0x4690 JUMP JUMPDEST PUSH2 0x1826 JUMP JUMPDEST STOP JUMPDEST CALLVALUE DUP1 ISZERO PUSH2 0x67F JUMPI PUSH1 0x0 DUP1 REVERT JUMPDEST POP PUSH2 0x688 PUSH2 0x1A18 JUMP JUMPDEST PUSH1 0x40 MLOAD PUSH2 0x695 SWAP2 SWAP1 PUSH2 0x419E JUMP JUMPDEST PUSH1 0x40 MLOAD DUP1 SWAP2 SUB SWAP1 RETURN JUMPDEST CALLVALUE DUP1 ISZERO PUSH2 0x6AA JUMPI PUSH1 0x0 DUP1 REVERT JUMPDEST POP PUSH2 0x6C5 PUSH1 0x4 DUP1 CALLDATASIZE SUB DUP2 ADD SWAP1 PUSH2 0x6C0 SWAP2 SWAP1 PUSH2 0x4130 JUMP JUMPDEST PUSH2 0x1A42 JUMP JUMPDEST PUSH1 0x40 MLOAD PUSH2 0x6D2 SWAP2 SWAP1 PUSH2 0x419E JUMP JUMPDEST PUSH1 0x40 MLOAD DUP1 SWAP2 SUB SWAP1 RETURN JUMPDEST CALLVALUE DUP1 ISZERO PUSH2 0x6E7 JUMPI PUSH1 0x0 DUP1 REVERT JUMPDEST POP PUSH2 0x6F0 PUSH2 0x1AC7 JUMP JUMPDEST PUSH1 0x40 MLOAD PUSH2 0x6FD SWAP2 SWAP1 PUSH2 0x410E JUMP JUMPDEST PUSH1 0x40 MLOAD DUP1 SWAP2 SUB SWAP1 RETURN JUMPDEST CALLVALUE DUP1 ISZERO PUSH2 0x712 JUMPI PUSH1 0x0 DUP1 REVERT JUMPDEST POP PUSH2 0x72D PUSH1 0x4 DUP1 CALLDATASIZE SUB DUP2 ADD SWAP1 PUSH2 0x728 SWAP2 SWAP1 PUSH2 0x4747 JUMP JUMPDEST PUSH2 0x1B59 JUMP JUMPDEST STOP JUMPDEST CALLVALUE DUP1 ISZERO PUSH2 0x73B JUMPI PUSH1 0x0 DUP1 REVERT JUMPDEST POP PUSH2 0x756 PUSH1 0x4 DUP1 CALLDATASIZE SUB DUP2 ADD SWAP1 PUSH2 0x751 SWAP2 SWAP1 PUSH2 0x4828 JUMP JUMPDEST PUSH2 0x1B6F JUMP JUMPDEST STOP JUMPDEST CALLVALUE DUP1 ISZERO PUSH2 0x764 JUMPI PUSH1 0x0 DUP1 REVERT JUMPDEST POP PUSH2 0x77F PUSH1 0x4 DUP1 CALLDATASIZE SUB DUP2 ADD SWAP1 PUSH2 0x77A SWAP2 SWAP1 PUSH2 0x4130 JUMP JUMPDEST PUSH2 0x1BD1 JUMP JUMPDEST PUSH1 0x40 MLOAD PUSH2 0x78C SWAP2 SWAP1 PUSH2 0x44A0 JUMP JUMPDEST PUSH1 0x40 MLOAD DUP1 SWAP2 SUB SWAP1 RETURN JUMPDEST CALLVALUE DUP1 ISZERO PUSH2 0x7A1 JUMPI PUSH1 0x0 DUP1 REVERT JUMPDEST POP PUSH2 0x7BC PUSH1 0x4 DUP1 CALLDATASIZE SUB DUP2 ADD SWAP1 PUSH2 0x7B7 SWAP2 SWAP1 PUSH2 0x4130 JUMP JUMPDEST PUSH2 0x1C4E JUMP JUMPDEST PUSH1 0x40 MLOAD PUSH2 0x7C9 SWAP2 SWAP1 PUSH2 0x4074 JUMP JUMPDEST PUSH1 0x40 MLOAD DUP1 SWAP2 SUB SWAP1 RETURN JUMPDEST CALLVALUE DUP1 ISZERO PUSH2 0x7DE JUMPI PUSH1 0x0 DUP1 REVERT JUMPDEST POP PUSH2 0x7E7 PUSH2 0x1CC0 JUMP JUMPDEST PUSH1 0x40 MLOAD PUSH2 0x7F4 SWAP2 SWAP1 PUSH2 0x44A0 JUMP JUMPDEST PUSH1 0x40 MLOAD DUP1 SWAP2 SUB SWAP1 RETURN JUMPDEST CALLVALUE DUP1 ISZERO PUSH2 0x809 JUMPI PUSH1 0x0 DUP1 REVERT JUMPDEST POP PUSH2 0x824 PUSH1 0x4 DUP1 CALLDATASIZE SUB DUP2 ADD SWAP1 PUSH2 0x81F SWAP2 SWAP1 PUSH2 0x4130 JUMP JUMPDEST PUSH2 0x1CCA JUMP JUMPDEST PUSH1 0x40 MLOAD PUSH2 0x831 SWAP2 SWAP1 PUSH2 0x410E JUMP JUMPDEST PUSH1 0x40 MLOAD DUP1 SWAP2 SUB SWAP1 RETURN JUMPDEST CALLVALUE DUP1 ISZERO PUSH2 0x846 JUMPI PUSH1 0x0 DUP1 REVERT JUMPDEST POP PUSH2 0x861 PUSH1 0x4 DUP1 CALLDATASIZE SUB DUP2 ADD SWAP1 PUSH2 0x85C SWAP2 SWAP1 PUSH2 0x4130 JUMP JUMPDEST PUSH2 0x1CDC JUMP JUMPDEST PUSH1 0x40 MLOAD PUSH2 0x86E SWAP2 SWAP1 PUSH2 0x44A0 JUMP JUMPDEST PUSH1 0x40 MLOAD DUP1 SWAP2 SUB SWAP1 RETURN JUMPDEST CALLVALUE DUP1 ISZERO PUSH2 0x883 JUMPI PUSH1 0x0 DUP1 REVERT JUMPDEST POP PUSH2 0x88C PUSH2 0x1CF9 JUMP JUMPDEST PUSH1 0x40 MLOAD PUSH2 0x899 SWAP2 SWAP1 PUSH2 0x44A0 JUMP JUMPDEST PUSH1 0x40 MLOAD DUP1 SWAP2 SUB SWAP1 RETURN JUMPDEST CALLVALUE DUP1 ISZERO PUSH2 0x8AE JUMPI PUSH1 0x0 DUP1 REVERT JUMPDEST POP PUSH2 0x8C9 PUSH1 0x4 DUP1 CALLDATASIZE SUB DUP2 ADD SWAP1 PUSH2 0x8C4 SWAP2 SWAP1 PUSH2 0x48AB JUMP JUMPDEST PUSH2 0x1CFF JUMP JUMPDEST STOP JUMPDEST CALLVALUE DUP1 ISZERO PUSH2 0x8D7 JUMPI PUSH1 0x0 DUP1 REVERT JUMPDEST POP PUSH2 0x8F2 PUSH1 0x4 DUP1 CALLDATASIZE SUB DUP2 ADD SWAP1 PUSH2 0x8ED SWAP2 SWAP1 PUSH2 0x4923 JUMP JUMPDEST PUSH2 0x1F70 JUMP JUMPDEST PUSH1 0x40 MLOAD PUSH2 0x8FF SWAP2 SWAP1 PUSH2 0x4074 JUMP JUMPDEST PUSH1 0x40 MLOAD DUP1 SWAP2 SUB SWAP1 RETURN JUMPDEST CALLVALUE DUP1 ISZERO PUSH2 0x914 JUMPI PUSH1 0x0 DUP1 REVERT JUMPDEST POP PUSH2 0x92F PUSH1 0x4 DUP1 CALLDATASIZE SUB DUP2 ADD SWAP1 PUSH2 0x92A SWAP2 SWAP1 PUSH2 0x4963 JUMP JUMPDEST PUSH2 0x2004 JUMP JUMPDEST STOP JUMPDEST CALLVALUE DUP1 ISZERO PUSH2 0x93D JUMPI PUSH1 0x0 DUP1 REVERT JUMPDEST POP PUSH2 0x958 PUSH1 0x4 DUP1 CALLDATASIZE SUB DUP2 ADD SWAP1 PUSH2 0x953 SWAP2 SWAP1 PUSH2 0x44BB JUMP JUMPDEST PUSH2 0x2169 JUMP JUMPDEST STOP JUMPDEST CALLVALUE DUP1 ISZERO PUSH2 0x966 JUMPI PUSH1 0x0 DUP1 REVERT JUMPDEST POP PUSH2 0x96F PUSH2 0x2260 JUMP JUMPDEST PUSH1 0x40 MLOAD PUSH2 0x97C SWAP2 SWAP1 PUSH2 0x44A0 JUMP JUMPDEST PUSH1 0x40 MLOAD DUP1 SWAP2 SUB SWAP1 RETURN JUMPDEST PUSH2 0x996 PUSH2 0x990 PUSH2 0x2277 JUMP JUMPDEST DUP4 PUSH2 0x227F JUMP JUMPDEST PUSH2 0x9D5 JUMPI PUSH1 0x40 MLOAD PUSH32 0x8C379A000000000000000000000000000000000000000000000000000000000 DUP2 MSTORE PUSH1 0x4 ADD PUSH2 0x9CC SWAP1 PUSH2 0x4A15 JUMP JUMPDEST PUSH1 0x40 MLOAD DUP1 SWAP2 SUB SWAP1 REVERT JUMPDEST PUSH2 0x9DF DUP2 DUP4 PUSH2 0x235D JUMP JUMPDEST PUSH1 0xC PUSH1 0x0 DUP4 DUP2 MSTORE PUSH1 0x20 ADD SWAP1 DUP2 MSTORE PUSH1 0x20 ADD PUSH1 0x0 KECCAK256 PUSH1 0x0 SWAP1 SLOAD SWAP1 PUSH2 0x100 EXP SWAP1 DIV PUSH1 0xFF AND ISZERO PUSH2 0xA22 JUMPI PUSH1 0x17 PUSH1 0x0 DUP2 SLOAD DUP1 SWAP3 SWAP2 SWAP1 PUSH2 0xA18 SWAP1 PUSH2 0x4A64 JUMP JUMPDEST SWAP2 SWAP1 POP SSTORE POP PUSH2 0xA3B JUMP JUMPDEST PUSH1 0x16 PUSH1 0x0 DUP2 SLOAD DUP1 SWAP3 SWAP2 SWAP1 PUSH2 0xA35 SWAP1 PUSH2 0x4A64 JUMP JUMPDEST SWAP2 SWAP1 POP SSTORE POP JUMPDEST PUSH2 0xA44 DUP3 PUSH2 0x2446 JUMP JUMPDEST POP POP JUMP JUMPDEST PUSH1 0x0 PUSH32 0x80AC58CD00000000000000000000000000000000000000000000000000000000 PUSH28 0xFFFFFFFFFFFFFFFFFFFFFFFFFFFFFFFFFFFFFFFFFFFFFFFFFFFFFFFF NOT AND DUP3 PUSH28 0xFFFFFFFFFFFFFFFFFFFFFFFFFFFFFFFFFFFFFFFFFFFFFFFFFFFFFFFF NOT AND EQ DUP1 PUSH2 0xB13 JUMPI POP PUSH32 0x5B5E139F00000000000000000000000000000000000000000000000000000000 PUSH28 0xFFFFFFFFFFFFFFFFFFFFFFFFFFFFFFFFFFFFFFFFFFFFFFFFFFFFFFFF NOT AND DUP3 PUSH28 0xFFFFFFFFFFFFFFFFFFFFFFFFFFFFFFFFFFFFFFFFFFFFFFFFFFFFFFFF NOT AND EQ JUMPDEST DUP1 PUSH2 0xB23 JUMPI POP PUSH2 0xB22 DUP3 PUSH2 0x27F3 JUMP JUMPDEST JUMPDEST SWAP1 POP SWAP2 SWAP1 POP JUMP JUMPDEST PUSH1 0x60 PUSH1 0x0 DUP1 SLOAD PUSH2 0xB39 SWAP1 PUSH2 0x4ABC JUMP JUMPDEST DUP1 PUSH1 0x1F ADD PUSH1 0x20 DUP1 SWAP2 DIV MUL PUSH1 0x20 ADD PUSH1 0x40 MLOAD SWAP1 DUP2 ADD PUSH1 0x40 MSTORE DUP1 SWAP3 SWAP2 SWAP1 DUP2 DUP2 MSTORE PUSH1 0x20 ADD DUP3 DUP1 SLOAD PUSH2 0xB65 SWAP1 PUSH2 0x4ABC JUMP JUMPDEST DUP1 ISZERO PUSH2 0xBB2 JUMPI DUP1 PUSH1 0x1F LT PUSH2 0xB87 JUMPI PUSH2 0x100 DUP1 DUP4 SLOAD DIV MUL DUP4 MSTORE SWAP2 PUSH1 0x20 ADD SWAP2 PUSH2 0xBB2 JUMP JUMPDEST DUP3 ADD SWAP2 SWAP1 PUSH1 0x0 MSTORE PUSH1 0x20 PUSH1 0x0 KECCAK256 SWAP1 JUMPDEST DUP2 SLOAD DUP2 MSTORE SWAP1 PUSH1 0x1 ADD SWAP1 PUSH1 0x20 ADD DUP1 DUP4 GT PUSH2 0xB95 JUMPI DUP3 SWAP1 SUB PUSH1 0x1F AND DUP3 ADD SWAP2 JUMPDEST POP POP POP POP POP SWAP1 POP SWAP1 JUMP JUMPDEST PUSH1 0x0 PUSH2 0xBC7 DUP3 PUSH2 0x285D JUMP JUMPDEST PUSH2 0xC06 JUMPI PUSH1 0x40 MLOAD PUSH32 0x8C379A000000000000000000000000000000000000000000000000000000000 DUP2 MSTORE PUSH1 0x4 ADD PUSH2 0xBFD SWAP1 PUSH2 0x4B5F JUMP JUMPDEST PUSH1 0x40 MLOAD DUP1 SWAP2 SUB SWAP1 REVERT JUMPDEST PUSH1 0x4 PUSH1 0x0 DUP4 DUP2 MSTORE PUSH1 0x20 ADD SWAP1 DUP2 MSTORE PUSH1 0x20 ADD PUSH1 0x0 KECCAK256 PUSH1 0x0 SWAP1 SLOAD SWAP1 PUSH2 0x100 EXP SWAP1 DIV PUSH20 0xFFFFFFFFFFFFFFFFFFFFFFFFFFFFFFFFFFFFFFFF AND SWAP1 POP SWAP2 SWAP1 POP JUMP JUMPDEST PUSH1 0x0 PUSH2 0xC4C DUP3 PUSH2 0x1444 JUMP JUMPDEST SWAP1 POP DUP1 PUSH20 0xFFFFFFFFFFFFFFFFFFFFFFFFFFFFFFFFFFFFFFFF AND DUP4 PUSH20 0xFFFFFFFFFFFFFFFFFFFFFFFFFFFFFFFFFFFFFFFF AND SUB PUSH2 0xCBC JUMPI PUSH1 0x40 MLOAD PUSH32 0x8C379A000000000000000000000000000000000000000000000000000000000 DUP2 MSTORE PUSH1 0x4 ADD PUSH2 0xCB3 SWAP1 PUSH2 0x4BF1 JUMP JUMPDEST PUSH1 0x40 MLOAD DUP1 SWAP2 SUB SWAP1 REVERT JUMPDEST DUP1 PUSH20 0xFFFFFFFFFFFFFFFFFFFFFFFFFFFFFFFFFFFFFFFF AND PUSH2 0xCDB PUSH2 0x2277 JUMP JUMPDEST PUSH20 0xFFFFFFFFFFFFFFFFFFFFFFFFFFFFFFFFFFFFFFFF AND EQ DUP1 PUSH2 0xD0A JUMPI POP PUSH2 0xD09 DUP2 PUSH2 0xD04 PUSH2 0x2277 JUMP JUMPDEST PUSH2 0x1F70 JUMP JUMPDEST JUMPDEST PUSH2 0xD49 JUMPI PUSH1 0x40 MLOAD PUSH32 0x8C379A000000000000000000000000000000000000000000000000000000000 DUP2 MSTORE PUSH1 0x4 ADD PUSH2 0xD40 SWAP1 PUSH2 0x4C83 JUMP JUMPDEST PUSH1 0x40 MLOAD DUP1 SWAP2 SUB SWAP1 REVERT JUMPDEST PUSH2 0xD53 DUP4 DUP4 PUSH2 0x28C9 JUMP JUMPDEST POP POP POP JUMP JUMPDEST PUSH1 0x0 PUSH1 0x12 PUSH1 0x0 SWAP1 SLOAD SWAP1 PUSH2 0x100 EXP SWAP1 DIV PUSH20 0xFFFFFFFFFFFFFFFFFFFFFFFFFFFFFFFFFFFFFFFF AND SWAP1 POP SWAP1 JUMP JUMPDEST PUSH1 0x60 PUSH1 0x10 DUP3 PUSH1 0x40 MLOAD PUSH2 0xD94 SWAP2 SWAP1 PUSH2 0x4CDF JUMP JUMPDEST SWAP1 DUP2 MSTORE PUSH1 0x20 ADD PUSH1 0x40 MLOAD DUP1 SWAP2 SUB SWAP1 KECCAK256 DUP1 SLOAD DUP1 PUSH1 0x20 MUL PUSH1 0x20 ADD PUSH1 0x40 MLOAD SWAP1 DUP2 ADD PUSH1 0x40 MSTORE DUP1 SWAP3 SWAP2 SWAP1 DUP2 DUP2 MSTORE PUSH1 0x20 ADD DUP3 DUP1 SLOAD DUP1 ISZERO PUSH2 0xDEC JUMPI PUSH1 0x20 MUL DUP3 ADD SWAP2 SWAP1 PUSH1 0x0 MSTORE PUSH1 0x20 PUSH1 0x0 KECCAK256 SWAP1 JUMPDEST DUP2 SLOAD DUP2 MSTORE PUSH1 0x20 ADD SWAP1 PUSH1 0x1 ADD SWAP1 DUP1 DUP4 GT PUSH2 0xDD8 JUMPI JUMPDEST POP POP POP POP POP SWAP1 POP SWAP2 SWAP1 POP JUMP JUMPDEST PUSH1 0x60 PUSH1 0x0 PUSH1 0x10 DUP4 PUSH1 0x40 MLOAD PUSH2 0xE0C SWAP2 SWAP1 PUSH2 0x4CDF JUMP JUMPDEST SWAP1 DUP2 MSTORE PUSH1 0x20 ADD PUSH1 0x40 MLOAD DUP1 SWAP2 SUB SWAP1 KECCAK256 DUP1 SLOAD DUP1 PUSH1 0x20 MUL PUSH1 0x20 ADD PUSH1 0x40 MLOAD SWAP1 DUP2 ADD PUSH1 0x40 MSTORE DUP1 SWAP3 SWAP2 SWAP1 DUP2 DUP2 MSTORE PUSH1 0x20 ADD DUP3 DUP1 SLOAD DUP1 ISZERO PUSH2 0xE64 JUMPI PUSH1 0x20 MUL DUP3 ADD SWAP2 SWAP1 PUSH1 0x0 MSTORE PUSH1 0x20 PUSH1 0x0 KECCAK256 SWAP1 JUMPDEST DUP2 SLOAD DUP2 MSTORE PUSH1 0x20 ADD SWAP1 PUSH1 0x1 ADD SWAP1 DUP1 DUP4 GT PUSH2 0xE50 JUMPI JUMPDEST POP POP POP POP POP SWAP1 POP PUSH2 0xECB PUSH1 0x15 DUP1 SLOAD DUP1 PUSH1 0x20 MUL PUSH1 0x20 ADD PUSH1 0x40 MLOAD SWAP1 DUP2 ADD PUSH1 0x40 MSTORE DUP1 SWAP3 SWAP2 SWAP1 DUP2 DUP2 MSTORE PUSH1 0x20 ADD DUP3 DUP1 SLOAD DUP1 ISZERO PUSH2 0xEBA JUMPI PUSH1 0x20 MUL DUP3 ADD SWAP2 SWAP1 PUSH1 0x0 MSTORE PUSH1 0x20 PUSH1 0x0 KECCAK256 SWAP1 JUMPDEST DUP2 SLOAD DUP2 MSTORE PUSH1 0x20 ADD SWAP1 PUSH1 0x1 ADD SWAP1 DUP1 DUP4 GT PUSH2 0xEA6 JUMPI JUMPDEST POP POP POP POP POP DUP6 DUP4 PUSH1 0x0 DUP8 MLOAD GT PUSH2 0x2982 JUMP JUMPDEST SWAP2 POP POP SWAP3 SWAP2 POP POP JUMP JUMPDEST PUSH2 0xEE5 PUSH2 0xEDF PUSH2 0x2277 JUMP JUMPDEST DUP3 PUSH2 0x227F JUMP JUMPDEST PUSH2 0xF24 JUMPI PUSH1 0x40 MLOAD PUSH32 0x8C379A000000000000000000000000000000000000000000000000000000000 DUP2 MSTORE PUSH1 0x4 ADD PUSH2 0xF1B SWAP1 PUSH2 0x4D68 JUMP JUMPDEST PUSH1 0x40 MLOAD DUP1 SWAP2 SUB SWAP1 REVERT JUMPDEST PUSH2 0xF2F DUP4 DUP4 DUP4 PUSH2 0x2ACD JUMP JUMPDEST POP POP POP JUMP JUMPDEST PUSH2 0xF3D DUP3 PUSH2 0x285D JUMP JUMPDEST PUSH2 0xF7C JUMPI PUSH1 0x40 MLOAD PUSH32 0x8C379A000000000000000000000000000000000000000000000000000000000 DUP2 MSTORE PUSH1 0x4 ADD PUSH2 0xF73 SWAP1 PUSH2 0x4DD4 JUMP JUMPDEST PUSH1 0x40 MLOAD DUP1 SWAP2 SUB SWAP1 REVERT JUMPDEST PUSH1 0xC PUSH1 0x0 DUP4 DUP2 MSTORE PUSH1 0x20 ADD SWAP1 DUP2 MSTORE PUSH1 0x20 ADD PUSH1 0x0 KECCAK256 PUSH1 0x0 SWAP1 SLOAD SWAP1 PUSH2 0x100 EXP SWAP1 DIV PUSH1 0xFF AND ISZERO PUSH2 0xFDD JUMPI PUSH1 0x40 MLOAD PUSH32 0x8C379A000000000000000000000000000000000000000000000000000000000 DUP2 MSTORE PUSH1 0x4 ADD PUSH2 0xFD4 SWAP1 PUSH2 0x4E40 JUMP JUMPDEST PUSH1 0x40 MLOAD DUP1 SWAP2 SUB SWAP1 REVERT JUMPDEST PUSH1 0x0 DUP1 PUSH1 0xE PUSH1 0x0 DUP6 DUP2 MSTORE PUSH1 0x20 ADD SWAP1 DUP2 MSTORE PUSH1 0x20 ADD PUSH1 0x0 KECCAK256 SLOAD GT PUSH2 0x1001 JUMPI PUSH1 0xB SLOAD PUSH2 0x1016 JUMP JUMPDEST PUSH1 0xE PUSH1 0x0 DUP5 DUP2 MSTORE PUSH1 0x20 ADD SWAP1 DUP2 MSTORE PUSH1 0x20 ADD PUSH1 0x0 KECCAK256 SLOAD JUMPDEST SWAP1 POP DUP1 CALLVALUE LT ISZERO PUSH2 0x105B JUMPI PUSH1 0x40 MLOAD PUSH32 0x8C379A000000000000000000000000000000000000000000000000000000000 DUP2 MSTORE PUSH1 0x4 ADD PUSH2 0x1052 SWAP1 PUSH2 0x4EAC JUMP JUMPDEST PUSH1 0x40 MLOAD DUP1 SWAP2 SUB SWAP1 REVERT JUMPDEST PUSH2 0x1065 PUSH1 0x8 PUSH2 0x2D79 JUMP JUMPDEST PUSH1 0x0 PUSH2 0x1071 PUSH1 0x8 PUSH2 0x2D8F JUMP JUMPDEST SWAP1 POP PUSH2 0x107D CALLER DUP3 PUSH2 0x2D9D JUMP JUMPDEST PUSH1 0x1 PUSH1 0xC PUSH1 0x0 DUP4 DUP2 MSTORE PUSH1 0x20 ADD SWAP1 DUP2 MSTORE PUSH1 0x20 ADD PUSH1 0x0 KECCAK256 PUSH1 0x0 PUSH2 0x100 EXP DUP2 SLOAD DUP2 PUSH1 0xFF MUL NOT AND SWAP1 DUP4 ISZERO ISZERO MUL OR SWAP1 SSTORE POP DUP4 PUSH1 0xD PUSH1 0x0 DUP4 DUP2 MSTORE PUSH1 0x20 ADD SWAP1 DUP2 MSTORE PUSH1 0x20 ADD PUSH1 0x0 KECCAK256 DUP2 SWAP1 SSTORE POP PUSH2 0x10CB DUP2 DUP5 PUSH2 0x2DBB JUMP JUMPDEST PUSH1 0x14 PUSH1 0x0 DUP6 DUP2 MSTORE PUSH1 0x20 ADD SWAP1 DUP2 MSTORE PUSH1 0x20 ADD PUSH1 0x0 KECCAK256 DUP2 SWAP1 DUP1 PUSH1 0x1 DUP2 SLOAD ADD DUP1 DUP3 SSTORE DUP1 SWAP2 POP POP PUSH1 0x1 SWAP1 SUB SWAP1 PUSH1 0x0 MSTORE PUSH1 0x20 PUSH1 0x0 KECCAK256 ADD PUSH1 0x0 SWAP1 SWAP2 SWAP1 SWAP2 SWAP1 SWAP2 POP SSTORE PUSH1 0x13 PUSH1 0x0 CALLER PUSH20 0xFFFFFFFFFFFFFFFFFFFFFFFFFFFFFFFFFFFFFFFF AND PUSH20 0xFFFFFFFFFFFFFFFFFFFFFFFFFFFFFFFFFFFFFFFF AND DUP2 MSTORE PUSH1 0x20 ADD SWAP1 DUP2 MSTORE PUSH1 0x20 ADD PUSH1 0x0 KECCAK256 DUP2 SWAP1 DUP1 PUSH1 0x1 DUP2 SLOAD ADD DUP1 DUP3 SSTORE DUP1 SWAP2 POP POP PUSH1 0x1 SWAP1 SUB SWAP1 PUSH1 0x0 MSTORE PUSH1 0x20 PUSH1 0x0 KECCAK256 ADD PUSH1 0x0 SWAP1 SWAP2 SWAP1 SWAP2 SWAP1 SWAP2 POP SSTORE PUSH1 0x15 DUP2 SWAP1 DUP1 PUSH1 0x1 DUP2 SLOAD ADD DUP1 DUP3 SSTORE DUP1 SWAP2 POP POP PUSH1 0x1 SWAP1 SUB SWAP1 PUSH1 0x0 MSTORE PUSH1 0x20 PUSH1 0x0 KECCAK256 ADD PUSH1 0x0 SWAP1 SWAP2 SWAP1 SWAP2 SWAP1 SWAP2 POP SSTORE PUSH1 0x17 PUSH1 0x0 DUP2 SLOAD DUP1 SWAP3 SWAP2 SWAP1 PUSH2 0x11A7 SWAP1 PUSH2 0x4ECC JUMP JUMPDEST SWAP2 SWAP1 POP SSTORE POP CALLER PUSH1 0x11 PUSH1 0x0 DUP4 DUP2 MSTORE PUSH1 0x20 ADD SWAP1 DUP2 MSTORE PUSH1 0x20 ADD PUSH1 0x0 KECCAK256 PUSH1 0x0 PUSH2 0x100 EXP DUP2 SLOAD DUP2 PUSH20 0xFFFFFFFFFFFFFFFFFFFFFFFFFFFFFFFFFFFFFFFF MUL NOT AND SWAP1 DUP4 PUSH20 0xFFFFFFFFFFFFFFFFFFFFFFFFFFFFFFFFFFFFFFFF AND MUL OR SWAP1 SSTORE POP POP POP POP POP JUMP JUMPDEST PUSH1 0x0 PUSH1 0xC PUSH1 0x0 DUP4 DUP2 MSTORE PUSH1 0x20 ADD SWAP1 DUP2 MSTORE PUSH1 0x20 ADD PUSH1 0x0 KECCAK256 PUSH1 0x0 SWAP1 SLOAD SWAP1 PUSH2 0x100 EXP SWAP1 DIV PUSH1 0xFF AND SWAP1 POP SWAP2 SWAP1 POP JUMP JUMPDEST PUSH2 0x1236 PUSH2 0x2277 JUMP JUMPDEST PUSH20 0xFFFFFFFFFFFFFFFFFFFFFFFFFFFFFFFFFFFFFFFF AND PUSH2 0x1254 PUSH2 0x1A18 JUMP JUMPDEST PUSH20 0xFFFFFFFFFFFFFFFFFFFFFFFFFFFFFFFFFFFFFFFF AND EQ PUSH2 0x12AA JUMPI PUSH1 0x40 MLOAD PUSH32 0x8C379A000000000000000000000000000000000000000000000000000000000 DUP2 MSTORE PUSH1 0x4 ADD PUSH2 0x12A1 SWAP1 PUSH2 0x4F60 JUMP JUMPDEST PUSH1 0x40 MLOAD DUP1 SWAP2 SUB SWAP1 REVERT JUMPDEST PUSH2 0x12B2 PUSH2 0x1A18 JUMP JUMPDEST PUSH20 0xFFFFFFFFFFFFFFFFFFFFFFFFFFFFFFFFFFFFFFFF AND PUSH2 0x8FC SELFBALANCE SWAP1 DUP2 ISZERO MUL SWAP1 PUSH1 0x40 MLOAD PUSH1 0x0 PUSH1 0x40 MLOAD DUP1 DUP4 SUB DUP2 DUP6 DUP9 DUP9 CALL SWAP4 POP POP POP POP ISZERO DUP1 ISZERO PUSH2 0x12F7 JUMPI RETURNDATASIZE PUSH1 0x0 DUP1 RETURNDATACOPY RETURNDATASIZE PUSH1 0x0 REVERT JUMPDEST POP JUMP JUMPDEST PUSH2 0x1315 DUP4 DUP4 DUP4 PUSH1 0x40 MLOAD DUP1 PUSH1 0x20 ADD PUSH1 0x40 MSTORE DUP1 PUSH1 0x0 DUP2 MSTORE POP PUSH2 0x1B6F JUMP JUMPDEST POP POP POP JUMP JUMPDEST PUSH1 0x60 PUSH1 0x0 PUSH1 0x13 PUSH1 0x0 DUP7 PUSH20 0xFFFFFFFFFFFFFFFFFFFFFFFFFFFFFFFFFFFFFFFF AND PUSH20 0xFFFFFFFFFFFFFFFFFFFFFFFFFFFFFFFFFFFFFFFF AND DUP2 MSTORE PUSH1 0x20 ADD SWAP1 DUP2 MSTORE PUSH1 0x20 ADD PUSH1 0x0 KECCAK256 DUP1 SLOAD DUP1 PUSH1 0x20 MUL PUSH1 0x20 ADD PUSH1 0x40 MLOAD SWAP1 DUP2 ADD PUSH1 0x40 MSTORE DUP1 SWAP3 SWAP2 SWAP1 DUP2 DUP2 MSTORE PUSH1 0x20 ADD DUP3 DUP1 SLOAD DUP1 ISZERO PUSH2 0x13A7 JUMPI PUSH1 0x20 MUL DUP3 ADD SWAP2 SWAP1 PUSH1 0x0 MSTORE PUSH1 0x20 PUSH1 0x0 KECCAK256 SWAP1 JUMPDEST DUP2 SLOAD DUP2 MSTORE PUSH1 0x20 ADD SWAP1 PUSH1 0x1 ADD SWAP1 DUP1 DUP4 GT PUSH2 0x1393 JUMPI JUMPDEST POP POP POP POP POP SWAP1 POP PUSH1 0x0 PUSH1 0x10 DUP5 PUSH1 0x40 MLOAD PUSH2 0x13C0 SWAP2 SWAP1 PUSH2 0x4CDF JUMP JUMPDEST SWAP1 DUP2 MSTORE PUSH1 0x20 ADD PUSH1 0x40 MLOAD DUP1 SWAP2 SUB SWAP1 KECCAK256 DUP1 SLOAD DUP1 PUSH1 0x20 MUL PUSH1 0x20 ADD PUSH1 0x40 MLOAD SWAP1 DUP2 ADD PUSH1 0x40 MSTORE DUP1 SWAP3 SWAP2 SWAP1 DUP2 DUP2 MSTORE PUSH1 0x20 ADD DUP3 DUP1 SLOAD DUP1 ISZERO PUSH2 0x1418 JUMPI PUSH1 0x20 MUL DUP3 ADD SWAP2 SWAP1 PUSH1 0x0 MSTORE PUSH1 0x20 PUSH1 0x0 KECCAK256 SWAP1 JUMPDEST DUP2 SLOAD DUP2 MSTORE PUSH1 0x20 ADD SWAP1 PUSH1 0x1 ADD SWAP1 DUP1 DUP4 GT PUSH2 0x1404 JUMPI JUMPDEST POP POP POP POP POP SWAP1 POP PUSH2 0x142F DUP3 DUP7 DUP4 PUSH1 0x0 DUP9 MLOAD GT PUSH2 0x2982 JUMP JUMPDEST SWAP3 POP POP POP SWAP4 SWAP3 POP POP POP JUMP JUMPDEST PUSH1 0x0 PUSH1 0x16 SLOAD SWAP1 POP SWAP1 JUMP JUMPDEST PUSH1 0x0 DUP1 PUSH1 0x2 PUSH1 0x0 DUP5 DUP2 MSTORE PUSH1 0x20 ADD SWAP1 DUP2 MSTORE PUSH1 0x20 ADD PUSH1 0x0 KECCAK256 PUSH1 0x0 SWAP1 SLOAD SWAP1 PUSH2 0x100 EXP SWAP1 DIV PUSH20 0xFFFFFFFFFFFFFFFFFFFFFFFFFFFFFFFFFFFFFFFF AND SWAP1 POP PUSH1 0x0 PUSH20 0xFFFFFFFFFFFFFFFFFFFFFFFFFFFFFFFFFFFFFFFF AND DUP2 PUSH20 0xFFFFFFFFFFFFFFFFFFFFFFFFFFFFFFFFFFFFFFFF AND SUB PUSH2 0x14EC JUMPI PUSH1 0x40 MLOAD PUSH32 0x8C379A000000000000000000000000000000000000000000000000000000000 DUP2 MSTORE PUSH1 0x4 ADD PUSH2 0x14E3 SWAP1 PUSH2 0x4FF2 JUMP JUMPDEST PUSH1 0x40 MLOAD DUP1 SWAP2 SUB SWAP1 REVERT JUMPDEST DUP1 SWAP2 POP POP SWAP2 SWAP1 POP JUMP JUMPDEST PUSH1 0x60 PUSH1 0xC PUSH1 0x0 DUP4 DUP2 MSTORE PUSH1 0x20 ADD SWAP1 DUP2 MSTORE PUSH1 0x20 ADD PUSH1 0x0 KECCAK256 PUSH1 0x0 SWAP1 SLOAD SWAP1 PUSH2 0x100 EXP SWAP1 DIV PUSH1 0xFF AND ISZERO PUSH2 0x1558 JUMPI PUSH1 0x40 MLOAD PUSH32 0x8C379A000000000000000000000000000000000000000000000000000000000 DUP2 MSTORE PUSH1 0x4 ADD PUSH2 0x154F SWAP1 PUSH2 0x5084 JUMP JUMPDEST PUSH1 0x40 MLOAD DUP1 SWAP2 SUB SWAP1 REVERT JUMPDEST PUSH1 0x14 PUSH1 0x0 DUP4 DUP2 MSTORE PUSH1 0x20 ADD SWAP1 DUP2 MSTORE PUSH1 0x20 ADD PUSH1 0x0 KECCAK256 DUP1 SLOAD DUP1 PUSH1 0x20 MUL PUSH1 0x20 ADD PUSH1 0x40 MLOAD SWAP1 DUP2 ADD PUSH1 0x40 MSTORE DUP1 SWAP3 SWAP2 SWAP1 DUP2 DUP2 MSTORE PUSH1 0x20 ADD DUP3 DUP1 SLOAD DUP1 ISZERO PUSH2 0x15B5 JUMPI PUSH1 0x20 MUL DUP3 ADD SWAP2 SWAP1 PUSH1 0x0 MSTORE PUSH1 0x20 PUSH1 0x0 KECCAK256 SWAP1 JUMPDEST DUP2 SLOAD DUP2 MSTORE PUSH1 0x20 ADD SWAP1 PUSH1 0x1 ADD SWAP1 DUP1 DUP4 GT PUSH2 0x15A1 JUMPI JUMPDEST POP POP POP POP POP SWAP1 POP SWAP2 SWAP1 POP JUMP JUMPDEST PUSH1 0x0 DUP1 PUSH20 0xFFFFFFFFFFFFFFFFFFFFFFFFFFFFFFFFFFFFFFFF AND DUP3 PUSH20 0xFFFFFFFFFFFFFFFFFFFFFFFFFFFFFFFFFFFFFFFF AND SUB PUSH2 0x1631 JUMPI PUSH1 0x40 MLOAD PUSH32 0x8C379A000000000000000000000000000000000000000000000000000000000 DUP2 MSTORE PUSH1 0x4 ADD PUSH2 0x1628 SWAP1 PUSH2 0x5116 JUMP JUMPDEST PUSH1 0x40 MLOAD DUP1 SWAP2 SUB SWAP1 REVERT JUMPDEST PUSH1 0x3 PUSH1 0x0 DUP4 PUSH20 0xFFFFFFFFFFFFFFFFFFFFFFFFFFFFFFFFFFFFFFFF AND PUSH20 0xFFFFFFFFFFFFFFFFFFFFFFFFFFFFFFFFFFFFFFFF AND DUP2 MSTORE PUSH1 0x20 ADD SWAP1 DUP2 MSTORE PUSH1 0x20 ADD PUSH1 0x0 KECCAK256 SLOAD SWAP1 POP SWAP2 SWAP1 POP JUMP JUMPDEST PUSH2 0x1680 PUSH2 0x2277 JUMP JUMPDEST PUSH20 0xFFFFFFFFFFFFFFFFFFFFFFFFFFFFFFFFFFFFFFFF AND PUSH2 0x169E PUSH2 0x1A18 JUMP JUMPDEST PUSH20 0xFFFFFFFFFFFFFFFFFFFFFFFFFFFFFFFFFFFFFFFF AND EQ PUSH2 0x16F4 JUMPI PUSH1 0x40 MLOAD PUSH32 0x8C379A000000000000000000000000000000000000000000000000000000000 DUP2 MSTORE PUSH1 0x4 ADD PUSH2 0x16EB SWAP1 PUSH2 0x4F60 JUMP JUMPDEST PUSH1 0x40 MLOAD DUP1 SWAP2 SUB SWAP1 REVERT JUMPDEST PUSH2 0x16FE PUSH1 0x0 PUSH2 0x2E28 JUMP JUMPDEST JUMP JUMPDEST PUSH1 0xA DUP1 SLOAD PUSH2 0x170D SWAP1 PUSH2 0x4ABC JUMP JUMPDEST DUP1 PUSH1 0x1F ADD PUSH1 0x20 DUP1 SWAP2 DIV MUL PUSH1 0x20 ADD PUSH1 0x40 MLOAD SWAP1 DUP2 ADD PUSH1 0x40 MSTORE DUP1 SWAP3 SWAP2 SWAP1 DUP2 DUP2 MSTORE PUSH1 0x20 ADD DUP3 DUP1 SLOAD PUSH2 0x1739 SWAP1 PUSH2 0x4ABC JUMP JUMPDEST DUP1 ISZERO PUSH2 0x1786 JUMPI DUP1 PUSH1 0x1F LT PUSH2 0x175B JUMPI PUSH2 0x100 DUP1 DUP4 SLOAD DIV MUL DUP4 MSTORE SWAP2 PUSH1 0x20 ADD SWAP2 PUSH2 0x1786 JUMP JUMPDEST DUP3 ADD SWAP2 SWAP1 PUSH1 0x0 MSTORE PUSH1 0x20 PUSH1 0x0 KECCAK256 SWAP1 JUMPDEST DUP2 SLOAD DUP2 MSTORE SWAP1 PUSH1 0x1 ADD SWAP1 PUSH1 0x20 ADD DUP1 DUP4 GT PUSH2 0x1769 JUMPI DUP3 SWAP1 SUB PUSH1 0x1F AND DUP3 ADD SWAP2 JUMPDEST POP POP POP POP POP DUP2 JUMP JUMPDEST PUSH1 0x60 PUSH1 0x19 DUP1 SLOAD DUP1 PUSH1 0x20 MUL PUSH1 0x20 ADD PUSH1 0x40 MLOAD SWAP1 DUP2 ADD PUSH1 0x40 MSTORE DUP1 SWAP3 SWAP2 SWAP1 DUP2 DUP2 MSTORE PUSH1 0x20 ADD DUP3 DUP1 SLOAD DUP1 ISZERO PUSH2 0x1812 JUMPI PUSH1 0x20 MUL DUP3 ADD SWAP2 SWAP1 PUSH1 0x0 MSTORE PUSH1 0x20 PUSH1 0x0 KECCAK256 SWAP1 JUMPDEST DUP2 PUSH1 0x0 SWAP1 SLOAD SWAP1 PUSH2 0x100 EXP SWAP1 DIV PUSH20 0xFFFFFFFFFFFFFFFFFFFFFFFFFFFFFFFFFFFFFFFF AND PUSH20 0xFFFFFFFFFFFFFFFFFFFFFFFFFFFFFFFFFFFFFFFF AND DUP2 MSTORE PUSH1 0x20 ADD SWAP1 PUSH1 0x1 ADD SWAP1 DUP1 DUP4 GT PUSH2 0x17C8 JUMPI JUMPDEST POP POP POP POP POP SWAP1 POP SWAP1 JUMP JUMPDEST PUSH1 0x0 PUSH1 0x17 SLOAD SWAP1 POP SWAP1 JUMP JUMPDEST PUSH2 0x182E PUSH2 0x2277 JUMP JUMPDEST PUSH20 0xFFFFFFFFFFFFFFFFFFFFFFFFFFFFFFFFFFFFFFFF AND PUSH2 0x184C PUSH2 0x1A18 JUMP JUMPDEST PUSH20 0xFFFFFFFFFFFFFFFFFFFFFFFFFFFFFFFFFFFFFFFF AND EQ PUSH2 0x18A2 JUMPI PUSH1 0x40 MLOAD PUSH32 0x8C379A000000000000000000000000000000000000000000000000000000000 DUP2 MSTORE PUSH1 0x4 ADD PUSH2 0x1899 SWAP1 PUSH2 0x4F60 JUMP JUMPDEST PUSH1 0x40 MLOAD DUP1 SWAP2 SUB SWAP1 REVERT JUMPDEST DUP3 PUSH1 0xA SWAP1 DUP2 PUSH2 0x18B1 SWAP2 SWAP1 PUSH2 0x52E2 JUMP JUMPDEST POP DUP2 PUSH1 0xB DUP2 SWAP1 SSTORE POP PUSH1 0x0 JUMPDEST PUSH1 0x19 DUP1 SLOAD SWAP1 POP DUP2 LT ISZERO PUSH2 0x1969 JUMPI PUSH1 0x18 PUSH1 0x0 PUSH1 0x19 DUP4 DUP2 SLOAD DUP2 LT PUSH2 0x18E1 JUMPI PUSH2 0x18E0 PUSH2 0x53B4 JUMP JUMPDEST JUMPDEST SWAP1 PUSH1 0x0 MSTORE PUSH1 0x20 PUSH1 0x0 KECCAK256 ADD PUSH1 0x0 SWAP1 SLOAD SWAP1 PUSH2 0x100 EXP SWAP1 DIV PUSH20 0xFFFFFFFFFFFFFFFFFFFFFFFFFFFFFFFFFFFFFFFF AND PUSH20 0xFFFFFFFFFFFFFFFFFFFFFFFFFFFFFFFFFFFFFFFF AND PUSH20 0xFFFFFFFFFFFFFFFFFFFFFFFFFFFFFFFFFFFFFFFF AND DUP2 MSTORE PUSH1 0x20 ADD SWAP1 DUP2 MSTORE PUSH1 0x20 ADD PUSH1 0x0 KECCAK256 PUSH1 0x0 PUSH2 0x100 EXP DUP2 SLOAD SWAP1 PUSH1 0xFF MUL NOT AND SWAP1 SSTORE DUP1 DUP1 PUSH2 0x1961 SWAP1 PUSH2 0x4ECC JUMP JUMPDEST SWAP2 POP POP PUSH2 0x18BC JUMP JUMPDEST POP DUP1 PUSH1 0x19 SWAP1 DUP1 MLOAD SWAP1 PUSH1 0x20 ADD SWAP1 PUSH2 0x1980 SWAP3 SWAP2 SWAP1 PUSH2 0x3CE0 JUMP JUMPDEST POP PUSH1 0x0 JUMPDEST DUP2 MLOAD DUP2 LT ISZERO PUSH2 0x1A12 JUMPI PUSH1 0x1 PUSH1 0x18 PUSH1 0x0 DUP5 DUP5 DUP2 MLOAD DUP2 LT PUSH2 0x19A6 JUMPI PUSH2 0x19A5 PUSH2 0x53B4 JUMP JUMPDEST JUMPDEST PUSH1 0x20 MUL PUSH1 0x20 ADD ADD MLOAD PUSH20 0xFFFFFFFFFFFFFFFFFFFFFFFFFFFFFFFFFFFFFFFF AND PUSH20 0xFFFFFFFFFFFFFFFFFFFFFFFFFFFFFFFFFFFFFFFF AND DUP2 MSTORE PUSH1 0x20 ADD SWAP1 DUP2 MSTORE PUSH1 0x20 ADD PUSH1 0x0 KECCAK256 PUSH1 0x0 PUSH2 0x100 EXP DUP2 SLOAD DUP2 PUSH1 0xFF MUL NOT AND SWAP1 DUP4 ISZERO ISZERO MUL OR SWAP1 SSTORE POP DUP1 DUP1 PUSH2 0x1A0A SWAP1 PUSH2 0x4ECC JUMP JUMPDEST SWAP2 POP POP PUSH2 0x1984 JUMP JUMPDEST POP POP POP POP JUMP JUMPDEST PUSH1 0x0 PUSH1 0x7 PUSH1 0x0 SWAP1 SLOAD SWAP1 PUSH2 0x100 EXP SWAP1 DIV PUSH20 0xFFFFFFFFFFFFFFFFFFFFFFFFFFFFFFFFFFFFFFFF AND SWAP1 POP SWAP1 JUMP JUMPDEST PUSH1 0x0 PUSH2 0x1A4D DUP3 PUSH2 0x285D JUMP JUMPDEST PUSH2 0x1A8C JUMPI PUSH1 0x40 MLOAD PUSH32 0x8C379A000000000000000000000000000000000000000000000000000000000 DUP2 MSTORE PUSH1 0x4 ADD PUSH2 0x1A83 SWAP1 PUSH2 0x542F JUMP JUMPDEST PUSH1 0x40 MLOAD DUP1 SWAP2 SUB SWAP1 REVERT JUMPDEST PUSH1 0x11 PUSH1 0x0 DUP4 DUP2 MSTORE PUSH1 0x20 ADD SWAP1 DUP2 MSTORE PUSH1 0x20 ADD PUSH1 0x0 KECCAK256 PUSH1 0x0 SWAP1 SLOAD SWAP1 PUSH2 0x100 EXP SWAP1 DIV PUSH20 0xFFFFFFFFFFFFFFFFFFFFFFFFFFFFFFFFFFFFFFFF AND SWAP1 POP SWAP2 SWAP1 POP JUMP JUMPDEST PUSH1 0x60 PUSH1 0x1 DUP1 SLOAD PUSH2 0x1AD6 SWAP1 PUSH2 0x4ABC JUMP JUMPDEST DUP1 PUSH1 0x1F ADD PUSH1 0x20 DUP1 SWAP2 DIV MUL PUSH1 0x20 ADD PUSH1 0x40 MLOAD SWAP1 DUP2 ADD PUSH1 0x40 MSTORE DUP1 SWAP3 SWAP2 SWAP1 DUP2 DUP2 MSTORE PUSH1 0x20 ADD DUP3 DUP1 SLOAD PUSH2 0x1B02 SWAP1 PUSH2 0x4ABC JUMP JUMPDEST DUP1 ISZERO PUSH2 0x1B4F JUMPI DUP1 PUSH1 0x1F LT PUSH2 0x1B24 JUMPI PUSH2 0x100 DUP1 DUP4 SLOAD DIV MUL DUP4 MSTORE SWAP2 PUSH1 0x20 ADD SWAP2 PUSH2 0x1B4F JUMP JUMPDEST DUP3 ADD SWAP2 SWAP1 PUSH1 0x0 MSTORE PUSH1 0x20 PUSH1 0x0 KECCAK256 SWAP1 JUMPDEST DUP2 SLOAD DUP2 MSTORE SWAP1 PUSH1 0x1 ADD SWAP1 PUSH1 0x20 ADD DUP1 DUP4 GT PUSH2 0x1B32 JUMPI DUP3 SWAP1 SUB PUSH1 0x1F AND DUP3 ADD SWAP2 JUMPDEST POP POP POP POP POP SWAP1 POP SWAP1 JUMP JUMPDEST PUSH2 0x1B6B PUSH2 0x1B64 PUSH2 0x2277 JUMP JUMPDEST DUP4 DUP4 PUSH2 0x2EEE JUMP JUMPDEST POP POP JUMP JUMPDEST PUSH2 0x1B80 PUSH2 0x1B7A PUSH2 0x2277 JUMP JUMPDEST DUP4 PUSH2 0x227F JUMP JUMPDEST PUSH2 0x1BBF JUMPI PUSH1 0x40 MLOAD PUSH32 0x8C379A000000000000000000000000000000000000000000000000000000000 DUP2 MSTORE PUSH1 0x4 ADD PUSH2 0x1BB6 SWAP1 PUSH2 0x4D68 JUMP JUMPDEST PUSH1 0x40 MLOAD DUP1 SWAP2 SUB SWAP1 REVERT JUMPDEST PUSH2 0x1BCB DUP5 DUP5 DUP5 DUP5 PUSH2 0x305A JUMP JUMPDEST POP POP POP POP JUMP JUMPDEST PUSH1 0x0 PUSH1 0xC PUSH1 0x0 DUP4 DUP2 MSTORE PUSH1 0x20 ADD SWAP1 DUP2 MSTORE PUSH1 0x20 ADD PUSH1 0x0 KECCAK256 PUSH1 0x0 SWAP1 SLOAD SWAP1 PUSH2 0x100 EXP SWAP1 DIV PUSH1 0xFF AND PUSH2 0x1C33 JUMPI PUSH1 0x40 MLOAD PUSH32 0x8C379A000000000000000000000000000000000000000000000000000000000 DUP2 MSTORE PUSH1 0x4 ADD PUSH2 0x1C2A SWAP1 PUSH2 0x549B JUMP JUMPDEST PUSH1 0x40 MLOAD DUP1 SWAP2 SUB SWAP1 REVERT JUMPDEST PUSH1 0xD PUSH1 0x0 DUP4 DUP2 MSTORE PUSH1 0x20 ADD SWAP1 DUP2 MSTORE PUSH1 0x20 ADD PUSH1 0x0 KECCAK256 SLOAD SWAP1 POP SWAP2 SWAP1 POP JUMP JUMPDEST PUSH1 0x0 PUSH2 0x1C59 DUP3 PUSH2 0x285D JUMP JUMPDEST PUSH2 0x1C98 JUMPI PUSH1 0x40 MLOAD PUSH32 0x8C379A000000000000000000000000000000000000000000000000000000000 DUP2 MSTORE PUSH1 0x4 ADD PUSH2 0x1C8F SWAP1 PUSH2 0x542F JUMP JUMPDEST PUSH1 0x40 MLOAD DUP1 SWAP2 SUB SWAP1 REVERT JUMPDEST PUSH1 0xF PUSH1 0x0 DUP4 DUP2 MSTORE PUSH1 0x20 ADD SWAP1 DUP2 MSTORE PUSH1 0x20 ADD PUSH1 0x0 KECCAK256 PUSH1 0x0 SWAP1 SLOAD SWAP1 PUSH2 0x100 EXP SWAP1 DIV PUSH1 0xFF AND SWAP1 POP SWAP2 SWAP1 POP JUMP JUMPDEST PUSH1 0x0 PUSH1 0xB SLOAD SWAP1 POP SWAP1 JUMP JUMPDEST PUSH1 0x60 PUSH2 0x1CD5 DUP3 PUSH2 0x30B6 JUMP JUMPDEST SWAP1 POP SWAP2 SWAP1 POP JUMP JUMPDEST PUSH1 0x0 PUSH1 0xE PUSH1 0x0 DUP4 DUP2 MSTORE PUSH1 0x20 ADD SWAP1 DUP2 MSTORE PUSH1 0x20 ADD PUSH1 0x0 KECCAK256 SLOAD SWAP1 POP SWAP2 SWAP1 POP JUMP JUMPDEST PUSH1 0x9 SLOAD DUP2 JUMP JUMPDEST PUSH2 0x1D07 PUSH2 0x1A18 JUMP JUMPDEST PUSH20 0xFFFFFFFFFFFFFFFFFFFFFFFFFFFFFFFFFFFFFFFF AND CALLER PUSH20 0xFFFFFFFFFFFFFFFFFFFFFFFFFFFFFFFFFFFFFFFF AND EQ DUP1 PUSH2 0x1D89 JUMPI POP PUSH1 0x18 PUSH1 0x0 CALLER PUSH20 0xFFFFFFFFFFFFFFFFFFFFFFFFFFFFFFFFFFFFFFFF AND PUSH20 0xFFFFFFFFFFFFFFFFFFFFFFFFFFFFFFFFFFFFFFFF AND DUP2 MSTORE PUSH1 0x20 ADD SWAP1 DUP2 MSTORE PUSH1 0x20 ADD PUSH1 0x0 KECCAK256 PUSH1 0x0 SWAP1 SLOAD SWAP1 PUSH2 0x100 EXP SWAP1 DIV PUSH1 0xFF AND JUMPDEST PUSH2 0x1DC8 JUMPI PUSH1 0x40 MLOAD PUSH32 0x8C379A000000000000000000000000000000000000000000000000000000000 DUP2 MSTORE PUSH1 0x4 ADD PUSH2 0x1DBF SWAP1 PUSH2 0x5507 JUMP JUMPDEST PUSH1 0x40 MLOAD DUP1 SWAP2 SUB SWAP1 REVERT JUMPDEST PUSH2 0x1DD2 PUSH1 0x8 PUSH2 0x2D79 JUMP JUMPDEST PUSH1 0x0 PUSH2 0x1DDC PUSH2 0x2277 JUMP JUMPDEST SWAP1 POP PUSH1 0x0 PUSH2 0x1DEA PUSH1 0x8 PUSH2 0x2D8F JUMP JUMPDEST SWAP1 POP PUSH2 0x1DF6 DUP3 DUP3 PUSH2 0x2D9D JUMP JUMPDEST PUSH1 0x0 PUSH1 0xC PUSH1 0x0 DUP4 DUP2 MSTORE PUSH1 0x20 ADD SWAP1 DUP2 MSTORE PUSH1 0x20 ADD PUSH1 0x0 KECCAK256 PUSH1 0x0 PUSH2 0x100 EXP DUP2 SLOAD DUP2 PUSH1 0xFF MUL NOT AND SWAP1 DUP4 ISZERO ISZERO MUL OR SWAP1 SSTORE POP PUSH2 0x1E2C DUP2 DUP6 PUSH2 0x2DBB JUMP JUMPDEST PUSH1 0x10 DUP4 PUSH1 0x40 MLOAD PUSH2 0x1E3C SWAP2 SWAP1 PUSH2 0x4CDF JUMP JUMPDEST SWAP1 DUP2 MSTORE PUSH1 0x20 ADD PUSH1 0x40 MLOAD DUP1 SWAP2 SUB SWAP1 KECCAK256 DUP2 SWAP1 DUP1 PUSH1 0x1 DUP2 SLOAD ADD DUP1 DUP3 SSTORE DUP1 SWAP2 POP POP PUSH1 0x1 SWAP1 SUB SWAP1 PUSH1 0x0 MSTORE PUSH1 0x20 PUSH1 0x0 KECCAK256 ADD PUSH1 0x0 SWAP1 SWAP2 SWAP1 SWAP2 SWAP1 SWAP2 POP SSTORE PUSH1 0x13 PUSH1 0x0 DUP4 PUSH20 0xFFFFFFFFFFFFFFFFFFFFFFFFFFFFFFFFFFFFFFFF AND PUSH20 0xFFFFFFFFFFFFFFFFFFFFFFFFFFFFFFFFFFFFFFFF AND DUP2 MSTORE PUSH1 0x20 ADD SWAP1 DUP2 MSTORE PUSH1 0x20 ADD PUSH1 0x0 KECCAK256 DUP2 SWAP1 DUP1 PUSH1 0x1 DUP2 SLOAD ADD DUP1 DUP3 SSTORE DUP1 SWAP2 POP POP PUSH1 0x1 SWAP1 SUB SWAP1 PUSH1 0x0 MSTORE PUSH1 0x20 PUSH1 0x0 KECCAK256 ADD PUSH1 0x0 SWAP1 SWAP2 SWAP1 SWAP2 SWAP1 SWAP2 POP SSTORE PUSH1 0x15 DUP2 SWAP1 DUP1 PUSH1 0x1 DUP2 SLOAD ADD DUP1 DUP3 SSTORE DUP1 SWAP2 POP POP PUSH1 0x1 SWAP1 SUB SWAP1 PUSH1 0x0 MSTORE PUSH1 0x20 PUSH1 0x0 KECCAK256 ADD PUSH1 0x0 SWAP1 SWAP2 SWAP1 SWAP2 SWAP1 SWAP2 POP SSTORE PUSH1 0x16 PUSH1 0x0 DUP2 SLOAD DUP1 SWAP3 SWAP2 SWAP1 PUSH2 0x1F13 SWAP1 PUSH2 0x4ECC JUMP JUMPDEST SWAP2 SWAP1 POP SSTORE POP DUP2 PUSH1 0x11 PUSH1 0x0 DUP4 DUP2 MSTORE PUSH1 0x20 ADD SWAP1 DUP2 MSTORE PUSH1 0x20 ADD PUSH1 0x0 KECCAK256 PUSH1 0x0 PUSH2 0x100 EXP DUP2 SLOAD DUP2 PUSH20 0xFFFFFFFFFFFFFFFFFFFFFFFFFFFFFFFFFFFFFFFF MUL NOT AND SWAP1 DUP4 PUSH20 0xFFFFFFFFFFFFFFFFFFFFFFFFFFFFFFFFFFFFFFFF AND MUL OR SWAP1 SSTORE POP POP POP POP POP JUMP JUMPDEST PUSH1 0x0 PUSH1 0x5 PUSH1 0x0 DUP5 PUSH20 0xFFFFFFFFFFFFFFFFFFFFFFFFFFFFFFFFFFFFFFFF AND PUSH20 0xFFFFFFFFFFFFFFFFFFFFFFFFFFFFFFFFFFFFFFFF AND DUP2 MSTORE PUSH1 0x20 ADD SWAP1 DUP2 MSTORE PUSH1 0x20 ADD PUSH1 0x0 KECCAK256 PUSH1 0x0 DUP4 PUSH20 0xFFFFFFFFFFFFFFFFFFFFFFFFFFFFFFFFFFFFFFFF AND PUSH20 0xFFFFFFFFFFFFFFFFFFFFFFFFFFFFFFFFFFFFFFFF AND DUP2 MSTORE PUSH1 0x20 ADD SWAP1 DUP2 MSTORE PUSH1 0x20 ADD PUSH1 0x0 KECCAK256 PUSH1 0x0 SWAP1 SLOAD SWAP1 PUSH2 0x100 EXP SWAP1 DIV PUSH1 0xFF AND SWAP1 POP SWAP3 SWAP2 POP POP JUMP JUMPDEST PUSH2 0x200C PUSH2 0x1A18 JUMP JUMPDEST PUSH20 0xFFFFFFFFFFFFFFFFFFFFFFFFFFFFFFFFFFFFFFFF AND CALLER PUSH20 0xFFFFFFFFFFFFFFFFFFFFFFFFFFFFFFFFFFFFFFFF AND EQ DUP1 PUSH2 0x208E JUMPI POP PUSH1 0x18 PUSH1 0x0 CALLER PUSH20 0xFFFFFFFFFFFFFFFFFFFFFFFFFFFFFFFFFFFFFFFF AND PUSH20 0xFFFFFFFFFFFFFFFFFFFFFFFFFFFFFFFFFFFFFFFF AND DUP2 MSTORE PUSH1 0x20 ADD SWAP1 DUP2 MSTORE PUSH1 0x20 ADD PUSH1 0x0 KECCAK256 PUSH1 0x0 SWAP1 SLOAD SWAP1 PUSH2 0x100 EXP SWAP1 DIV PUSH1 0xFF AND JUMPDEST PUSH2 0x20CD JUMPI PUSH1 0x40 MLOAD PUSH32 0x8C379A000000000000000000000000000000000000000000000000000000000 DUP2 MSTORE PUSH1 0x4 ADD PUSH2 0x20C4 SWAP1 PUSH2 0x5599 JUMP JUMPDEST PUSH1 0x40 MLOAD DUP1 SWAP2 SUB SWAP1 REVERT JUMPDEST PUSH1 0x0 DUP2 GT ISZERO PUSH2 0x211F JUMPI PUSH1 0x1 PUSH1 0xF PUSH1 0x0 DUP5 DUP2 MSTORE PUSH1 0x20 ADD SWAP1 DUP2 MSTORE PUSH1 0x20 ADD PUSH1 0x0 KECCAK256 PUSH1 0x0 PUSH2 0x100 EXP DUP2 SLOAD DUP2 PUSH1 0xFF MUL NOT AND SWAP1 DUP4 ISZERO ISZERO MUL OR SWAP1 SSTORE POP DUP1 PUSH1 0xE PUSH1 0x0 DUP5 DUP2 MSTORE PUSH1 0x20 ADD SWAP1 DUP2 MSTORE PUSH1 0x20 ADD PUSH1 0x0 KECCAK256 DUP2 SWAP1 SSTORE POP PUSH2 0x2165 JUMP JUMPDEST PUSH1 0x0 PUSH1 0xF PUSH1 0x0 DUP5 DUP2 MSTORE PUSH1 0x20 ADD SWAP1 DUP2 MSTORE PUSH1 0x20 ADD PUSH1 0x0 KECCAK256 PUSH1 0x0 PUSH2 0x100 EXP DUP2 SLOAD DUP2 PUSH1 0xFF MUL NOT AND SWAP1 DUP4 ISZERO ISZERO MUL OR SWAP1 SSTORE POP PUSH1 0x0 PUSH1 0xE PUSH1 0x0 DUP5 DUP2 MSTORE PUSH1 0x20 ADD SWAP1 DUP2 MSTORE PUSH1 0x20 ADD PUSH1 0x0 KECCAK256 DUP2 SWAP1 SSTORE POP JUMPDEST POP POP JUMP JUMPDEST PUSH2 0x2171 PUSH2 0x2277 JUMP JUMPDEST PUSH20 0xFFFFFFFFFFFFFFFFFFFFFFFFFFFFFFFFFFFFFFFF AND PUSH2 0x218F PUSH2 0x1A18 JUMP JUMPDEST PUSH20 0xFFFFFFFFFFFFFFFFFFFFFFFFFFFFFFFFFFFFFFFF AND EQ PUSH2 0x21E5 JUMPI PUSH1 0x40 MLOAD PUSH32 0x8C379A000000000000000000000000000000000000000000000000000000000 DUP2 MSTORE PUSH1 0x4 ADD PUSH2 0x21DC SWAP1 PUSH2 0x4F60 JUMP JUMPDEST PUSH1 0x40 MLOAD DUP1 SWAP2 SUB SWAP1 REVERT JUMPDEST PUSH1 0x0 PUSH20 0xFFFFFFFFFFFFFFFFFFFFFFFFFFFFFFFFFFFFFFFF AND DUP2 PUSH20 0xFFFFFFFFFFFFFFFFFFFFFFFFFFFFFFFFFFFFFFFF AND SUB PUSH2 0x2254 JUMPI PUSH1 0x40 MLOAD PUSH32 0x8C379A000000000000000000000000000000000000000000000000000000000 DUP2 MSTORE PUSH1 0x4 ADD PUSH2 0x224B SWAP1 PUSH2 0x562B JUMP JUMPDEST PUSH1 0x40 MLOAD DUP1 SWAP2 SUB SWAP1 REVERT JUMPDEST PUSH2 0x225D DUP2 PUSH2 0x2E28 JUMP JUMPDEST POP JUMP JUMPDEST PUSH1 0x0 PUSH1 0x17 SLOAD PUSH1 0x16 SLOAD PUSH2 0x2272 SWAP2 SWAP1 PUSH2 0x564B JUMP JUMPDEST SWAP1 POP SWAP1 JUMP JUMPDEST PUSH1 0x0 CALLER SWAP1 POP SWAP1 JUMP JUMPDEST PUSH1 0x0 PUSH2 0x228A DUP3 PUSH2 0x285D JUMP JUMPDEST PUSH2 0x22C9 JUMPI PUSH1 0x40 MLOAD PUSH32 0x8C379A000000000000000000000000000000000000000000000000000000000 DUP2 MSTORE PUSH1 0x4 ADD PUSH2 0x22C0 SWAP1 PUSH2 0x56F1 JUMP JUMPDEST PUSH1 0x40 MLOAD DUP1 SWAP2 SUB SWAP1 REVERT JUMPDEST PUSH1 0x0 PUSH2 0x22D4 DUP4 PUSH2 0x1444 JUMP JUMPDEST SWAP1 POP DUP1 PUSH20 0xFFFFFFFFFFFFFFFFFFFFFFFFFFFFFFFFFFFFFFFF AND DUP5 PUSH20 0xFFFFFFFFFFFFFFFFFFFFFFFFFFFFFFFFFFFFFFFF AND EQ DUP1 PUSH2 0x2343 JUMPI POP DUP4 PUSH20 0xFFFFFFFFFFFFFFFFFFFFFFFFFFFFFFFFFFFFFFFF AND PUSH2 0x232B DUP5 PUSH2 0xBBC JUMP JUMPDEST PUSH20 0xFFFFFFFFFFFFFFFFFFFFFFFFFFFFFFFFFFFFFFFF AND EQ JUMPDEST DUP1 PUSH2 0x2354 JUMPI POP PUSH2 0x2353 DUP2 DUP6 PUSH2 0x1F70 JUMP JUMPDEST JUMPDEST SWAP2 POP POP SWAP3 SWAP2 POP POP JUMP JUMPDEST PUSH1 0x0 PUSH1 0x10 DUP4 PUSH1 0x40 MLOAD PUSH2 0x236F SWAP2 SWAP1 PUSH2 0x4CDF JUMP JUMPDEST SWAP1 DUP2 MSTORE PUSH1 0x20 ADD PUSH1 0x40 MLOAD DUP1 SWAP2 SUB SWAP1 KECCAK256 SWAP1 POP PUSH1 0x0 JUMPDEST DUP2 DUP1 SLOAD SWAP1 POP DUP2 LT ISZERO PUSH2 0x2440 JUMPI DUP3 DUP3 DUP3 DUP2 SLOAD DUP2 LT PUSH2 0x23A2 JUMPI PUSH2 0x23A1 PUSH2 0x53B4 JUMP JUMPDEST JUMPDEST SWAP1 PUSH1 0x0 MSTORE PUSH1 0x20 PUSH1 0x0 KECCAK256 ADD SLOAD SUB PUSH2 0x242D JUMPI DUP2 PUSH1 0x1 DUP4 DUP1 SLOAD SWAP1 POP PUSH2 0x23C4 SWAP2 SWAP1 PUSH2 0x5711 JUMP JUMPDEST DUP2 SLOAD DUP2 LT PUSH2 0x23D5 JUMPI PUSH2 0x23D4 PUSH2 0x53B4 JUMP JUMPDEST JUMPDEST SWAP1 PUSH1 0x0 MSTORE PUSH1 0x20 PUSH1 0x0 KECCAK256 ADD SLOAD DUP3 DUP3 DUP2 SLOAD DUP2 LT PUSH2 0x23F3 JUMPI PUSH2 0x23F2 PUSH2 0x53B4 JUMP JUMPDEST JUMPDEST SWAP1 PUSH1 0x0 MSTORE PUSH1 0x20 PUSH1 0x0 KECCAK256 ADD DUP2 SWAP1 SSTORE POP DUP2 DUP1 SLOAD DUP1 PUSH2 0x2412 JUMPI PUSH2 0x2411 PUSH2 0x5745 JUMP JUMPDEST JUMPDEST PUSH1 0x1 SWAP1 SUB DUP2 DUP2 SWAP1 PUSH1 0x0 MSTORE PUSH1 0x20 PUSH1 0x0 KECCAK256 ADD PUSH1 0x0 SWAP1 SSTORE SWAP1 SSTORE PUSH2 0x2440 JUMP JUMPDEST DUP1 DUP1 PUSH2 0x2438 SWAP1 PUSH2 0x4ECC JUMP JUMPDEST SWAP2 POP POP PUSH2 0x2382 JUMP JUMPDEST POP POP POP POP JUMP JUMPDEST PUSH1 0x0 PUSH2 0x2451 DUP3 PUSH2 0x1444 JUMP JUMPDEST SWAP1 POP PUSH2 0x245C DUP3 PUSH2 0x3207 JUMP JUMPDEST PUSH1 0xC PUSH1 0x0 DUP4 DUP2 MSTORE PUSH1 0x20 ADD SWAP1 DUP2 MSTORE PUSH1 0x20 ADD PUSH1 0x0 KECCAK256 PUSH1 0x0 SWAP1 SLOAD SWAP1 PUSH2 0x100 EXP SWAP1 DIV PUSH1 0xFF AND ISZERO PUSH2 0x2591 JUMPI PUSH1 0x0 PUSH1 0xD PUSH1 0x0 DUP5 DUP2 MSTORE PUSH1 0x20 ADD SWAP1 DUP2 MSTORE PUSH1 0x20 ADD PUSH1 0x0 KECCAK256 SLOAD SWAP1 POP PUSH1 0x0 PUSH1 0x14 PUSH1 0x0 DUP4 DUP2 MSTORE PUSH1 0x20 ADD SWAP1 DUP2 MSTORE PUSH1 0x20 ADD PUSH1 0x0 KECCAK256 SWAP1 POP PUSH1 0x0 JUMPDEST DUP2 DUP1 SLOAD SWAP1 POP DUP2 LT ISZERO PUSH2 0x2572 JUMPI DUP5 DUP3 DUP3 DUP2 SLOAD DUP2 LT PUSH2 0x24D4 JUMPI PUSH2 0x24D3 PUSH2 0x53B4 JUMP JUMPDEST JUMPDEST SWAP1 PUSH1 0x0 MSTORE PUSH1 0x20 PUSH1 0x0 KECCAK256 ADD SLOAD SUB PUSH2 0x255F JUMPI DUP2 PUSH1 0x1 DUP4 DUP1 SLOAD SWAP1 POP PUSH2 0x24F6 SWAP2 SWAP1 PUSH2 0x5711 JUMP JUMPDEST DUP2 SLOAD DUP2 LT PUSH2 0x2507 JUMPI PUSH2 0x2506 PUSH2 0x53B4 JUMP JUMPDEST JUMPDEST SWAP1 PUSH1 0x0 MSTORE PUSH1 0x20 PUSH1 0x0 KECCAK256 ADD SLOAD DUP3 DUP3 DUP2 SLOAD DUP2 LT PUSH2 0x2525 JUMPI PUSH2 0x2524 PUSH2 0x53B4 JUMP JUMPDEST JUMPDEST SWAP1 PUSH1 0x0 MSTORE PUSH1 0x20 PUSH1 0x0 KECCAK256 ADD DUP2 SWAP1 SSTORE POP DUP2 DUP1 SLOAD DUP1 PUSH2 0x2544 JUMPI PUSH2 0x2543 PUSH2 0x5745 JUMP JUMPDEST JUMPDEST PUSH1 0x1 SWAP1 SUB DUP2 DUP2 SWAP1 PUSH1 0x0 MSTORE PUSH1 0x20 PUSH1 0x0 KECCAK256 ADD PUSH1 0x0 SWAP1 SSTORE SWAP1 SSTORE PUSH2 0x2572 JUMP JUMPDEST DUP1 DUP1 PUSH2 0x256A SWAP1 PUSH2 0x4ECC JUMP JUMPDEST SWAP2 POP POP PUSH2 0x24B4 JUMP JUMPDEST POP PUSH1 0xD PUSH1 0x0 DUP6 DUP2 MSTORE PUSH1 0x20 ADD SWAP1 DUP2 MSTORE PUSH1 0x20 ADD PUSH1 0x0 KECCAK256 PUSH1 0x0 SWAP1 SSTORE POP POP PUSH2 0x25B1 JUMP JUMPDEST PUSH1 0x14 PUSH1 0x0 DUP4 DUP2 MSTORE PUSH1 0x20 ADD SWAP1 DUP2 MSTORE PUSH1 0x20 ADD PUSH1 0x0 KECCAK256 PUSH1 0x0 PUSH2 0x25B0 SWAP2 SWAP1 PUSH2 0x3D6A JUMP JUMPDEST JUMPDEST PUSH1 0xC PUSH1 0x0 DUP4 DUP2 MSTORE PUSH1 0x20 ADD SWAP1 DUP2 MSTORE PUSH1 0x20 ADD PUSH1 0x0 KECCAK256 PUSH1 0x0 PUSH2 0x100 EXP DUP2 SLOAD SWAP1 PUSH1 0xFF MUL NOT AND SWAP1 SSTORE PUSH1 0xE PUSH1 0x0 DUP4 DUP2 MSTORE PUSH1 0x20 ADD SWAP1 DUP2 MSTORE PUSH1 0x20 ADD PUSH1 0x0 KECCAK256 PUSH1 0x0 SWAP1 SSTORE PUSH1 0x11 PUSH1 0x0 DUP4 DUP2 MSTORE PUSH1 0x20 ADD SWAP1 DUP2 MSTORE PUSH1 0x20 ADD PUSH1 0x0 KECCAK256 PUSH1 0x0 PUSH2 0x100 EXP DUP2 SLOAD SWAP1 PUSH20 0xFFFFFFFFFFFFFFFFFFFFFFFFFFFFFFFFFFFFFFFF MUL NOT AND SWAP1 SSTORE PUSH1 0x0 PUSH1 0x13 PUSH1 0x0 DUP4 PUSH20 0xFFFFFFFFFFFFFFFFFFFFFFFFFFFFFFFFFFFFFFFF AND PUSH20 0xFFFFFFFFFFFFFFFFFFFFFFFFFFFFFFFFFFFFFFFF AND DUP2 MSTORE PUSH1 0x20 ADD SWAP1 DUP2 MSTORE PUSH1 0x20 ADD PUSH1 0x0 KECCAK256 SWAP1 POP PUSH1 0x0 JUMPDEST DUP2 DUP1 SLOAD SWAP1 POP DUP2 LT ISZERO PUSH2 0x2725 JUMPI DUP4 DUP3 DUP3 DUP2 SLOAD DUP2 LT PUSH2 0x2687 JUMPI PUSH2 0x2686 PUSH2 0x53B4 JUMP JUMPDEST JUMPDEST SWAP1 PUSH1 0x0 MSTORE PUSH1 0x20 PUSH1 0x0 KECCAK256 ADD SLOAD SUB PUSH2 0x2712 JUMPI DUP2 PUSH1 0x1 DUP4 DUP1 SLOAD SWAP1 POP PUSH2 0x26A9 SWAP2 SWAP1 PUSH2 0x5711 JUMP JUMPDEST DUP2 SLOAD DUP2 LT PUSH2 0x26BA JUMPI PUSH2 0x26B9 PUSH2 0x53B4 JUMP JUMPDEST JUMPDEST SWAP1 PUSH1 0x0 MSTORE PUSH1 0x20 PUSH1 0x0 KECCAK256 ADD SLOAD DUP3 DUP3 DUP2 SLOAD DUP2 LT PUSH2 0x26D8 JUMPI PUSH2 0x26D7 PUSH2 0x53B4 JUMP JUMPDEST JUMPDEST SWAP1 PUSH1 0x0 MSTORE PUSH1 0x20 PUSH1 0x0 KECCAK256 ADD DUP2 SWAP1 SSTORE POP DUP2 DUP1 SLOAD DUP1 PUSH2 0x26F7 JUMPI PUSH2 0x26F6 PUSH2 0x5745 JUMP JUMPDEST JUMPDEST PUSH1 0x1 SWAP1 SUB DUP2 DUP2 SWAP1 PUSH1 0x0 MSTORE PUSH1 0x20 PUSH1 0x0 KECCAK256 ADD PUSH1 0x0 SWAP1 SSTORE SWAP1 SSTORE PUSH2 0x2725 JUMP JUMPDEST DUP1 DUP1 PUSH2 0x271D SWAP1 PUSH2 0x4ECC JUMP JUMPDEST SWAP2 POP POP PUSH2 0x2667 JUMP JUMPDEST POP PUSH1 0x0 JUMPDEST PUSH1 0x15 DUP1 SLOAD SWAP1 POP DUP2 LT ISZERO PUSH2 0x27ED JUMPI DUP4 PUSH1 0x15 DUP3 DUP2 SLOAD DUP2 LT PUSH2 0x274B JUMPI PUSH2 0x274A PUSH2 0x53B4 JUMP JUMPDEST JUMPDEST SWAP1 PUSH1 0x0 MSTORE PUSH1 0x20 PUSH1 0x0 KECCAK256 ADD SLOAD SUB PUSH2 0x27DA JUMPI PUSH1 0x15 PUSH1 0x1 PUSH1 0x15 DUP1 SLOAD SWAP1 POP PUSH2 0x276F SWAP2 SWAP1 PUSH2 0x5711 JUMP JUMPDEST DUP2 SLOAD DUP2 LT PUSH2 0x2780 JUMPI PUSH2 0x277F PUSH2 0x53B4 JUMP JUMPDEST JUMPDEST SWAP1 PUSH1 0x0 MSTORE PUSH1 0x20 PUSH1 0x0 KECCAK256 ADD SLOAD PUSH1 0x15 DUP3 DUP2 SLOAD DUP2 LT PUSH2 0x279F JUMPI PUSH2 0x279E PUSH2 0x53B4 JUMP JUMPDEST JUMPDEST SWAP1 PUSH1 0x0 MSTORE PUSH1 0x20 PUSH1 0x0 KECCAK256 ADD DUP2 SWAP1 SSTORE POP PUSH1 0x15 DUP1 SLOAD DUP1 PUSH2 0x27BF JUMPI PUSH2 0x27BE PUSH2 0x5745 JUMP JUMPDEST JUMPDEST PUSH1 0x1 SWAP1 SUB DUP2 DUP2 SWAP1 PUSH1 0x0 MSTORE PUSH1 0x20 PUSH1 0x0 KECCAK256 ADD PUSH1 0x0 SWAP1 SSTORE SWAP1 SSTORE PUSH2 0x27ED JUMP JUMPDEST DUP1 DUP1 PUSH2 0x27E5 SWAP1 PUSH2 0x4ECC JUMP JUMPDEST SWAP2 POP POP PUSH2 0x2729 JUMP JUMPDEST POP POP POP POP JUMP JUMPDEST PUSH1 0x0 PUSH32 0x1FFC9A700000000000000000000000000000000000000000000000000000000 PUSH28 0xFFFFFFFFFFFFFFFFFFFFFFFFFFFFFFFFFFFFFFFFFFFFFFFFFFFFFFFF NOT AND DUP3 PUSH28 0xFFFFFFFFFFFFFFFFFFFFFFFFFFFFFFFFFFFFFFFFFFFFFFFFFFFFFFFF NOT AND EQ SWAP1 POP SWAP2 SWAP1 POP JUMP JUMPDEST PUSH1 0x0 DUP1 PUSH20 0xFFFFFFFFFFFFFFFFFFFFFFFFFFFFFFFFFFFFFFFF AND PUSH1 0x2 PUSH1 0x0 DUP5 DUP2 MSTORE PUSH1 0x20 ADD SWAP1 DUP2 MSTORE PUSH1 0x20 ADD PUSH1 0x0 KECCAK256 PUSH1 0x0 SWAP1 SLOAD SWAP1 PUSH2 0x100 EXP SWAP1 DIV PUSH20 0xFFFFFFFFFFFFFFFFFFFFFFFFFFFFFFFFFFFFFFFF AND PUSH20 0xFFFFFFFFFFFFFFFFFFFFFFFFFFFFFFFFFFFFFFFF AND EQ ISZERO SWAP1 POP SWAP2 SWAP1 POP JUMP JUMPDEST DUP2 PUSH1 0x4 PUSH1 0x0 DUP4 DUP2 MSTORE PUSH1 0x20 ADD SWAP1 DUP2 MSTORE PUSH1 0x20 ADD PUSH1 0x0 KECCAK256 PUSH1 0x0 PUSH2 0x100 EXP DUP2 SLOAD DUP2 PUSH20 0xFFFFFFFFFFFFFFFFFFFFFFFFFFFFFFFFFFFFFFFF MUL NOT AND SWAP1 DUP4 PUSH20 0xFFFFFFFFFFFFFFFFFFFFFFFFFFFFFFFFFFFFFFFF AND MUL OR SWAP1 SSTORE POP DUP1 DUP3 PUSH20 0xFFFFFFFFFFFFFFFFFFFFFFFFFFFFFFFFFFFFFFFF AND PUSH2 0x293C DUP4 PUSH2 0x1444 JUMP JUMPDEST PUSH20 0xFFFFFFFFFFFFFFFFFFFFFFFFFFFFFFFFFFFFFFFF AND PUSH32 0x8C5BE1E5EBEC7D5BD14F71427D1E84F3DD0314C0F7B2291E5B200AC8C7C3B925 PUSH1 0x40 MLOAD PUSH1 0x40 MLOAD DUP1 SWAP2 SUB SWAP1 LOG4 POP POP JUMP JUMPDEST PUSH1 0x60 PUSH1 0x0 DUP1 JUMPDEST DUP7 MLOAD DUP2 LT ISZERO PUSH2 0x29DE JUMPI PUSH2 0x29B7 DUP8 DUP3 DUP2 MLOAD DUP2 LT PUSH2 0x29A7 JUMPI PUSH2 0x29A6 PUSH2 0x53B4 JUMP JUMPDEST JUMPDEST PUSH1 0x20 MUL PUSH1 0x20 ADD ADD MLOAD DUP8 DUP8 DUP8 PUSH2 0x325A JUMP JUMPDEST ISZERO PUSH2 0x29CB JUMPI DUP2 DUP1 PUSH2 0x29C7 SWAP1 PUSH2 0x4ECC JUMP JUMPDEST SWAP3 POP POP JUMPDEST DUP1 DUP1 PUSH2 0x29D6 SWAP1 PUSH2 0x4ECC JUMP JUMPDEST SWAP2 POP POP PUSH2 0x2988 JUMP JUMPDEST POP PUSH1 0x0 DUP2 PUSH8 0xFFFFFFFFFFFFFFFF DUP2 GT ISZERO PUSH2 0x29FB JUMPI PUSH2 0x29FA PUSH2 0x3E4D JUMP JUMPDEST JUMPDEST PUSH1 0x40 MLOAD SWAP1 DUP1 DUP3 MSTORE DUP1 PUSH1 0x20 MUL PUSH1 0x20 ADD DUP3 ADD PUSH1 0x40 MSTORE DUP1 ISZERO PUSH2 0x2A29 JUMPI DUP2 PUSH1 0x20 ADD PUSH1 0x20 DUP3 MUL DUP1 CALLDATASIZE DUP4 CALLDATACOPY DUP1 DUP3 ADD SWAP2 POP POP SWAP1 POP JUMPDEST POP SWAP1 POP PUSH1 0x0 DUP1 JUMPDEST DUP9 MLOAD DUP2 LT ISZERO PUSH2 0x2ABE JUMPI PUSH2 0x2A5F DUP10 DUP3 DUP2 MLOAD DUP2 LT PUSH2 0x2A4F JUMPI PUSH2 0x2A4E PUSH2 0x53B4 JUMP JUMPDEST JUMPDEST PUSH1 0x20 MUL PUSH1 0x20 ADD ADD MLOAD DUP10 DUP10 DUP10 PUSH2 0x325A JUMP JUMPDEST ISZERO PUSH2 0x2AAB JUMPI DUP9 DUP2 DUP2 MLOAD DUP2 LT PUSH2 0x2A77 JUMPI PUSH2 0x2A76 PUSH2 0x53B4 JUMP JUMPDEST JUMPDEST PUSH1 0x20 MUL PUSH1 0x20 ADD ADD MLOAD DUP4 DUP4 DUP1 PUSH2 0x2A8B SWAP1 PUSH2 0x4ECC JUMP JUMPDEST SWAP5 POP DUP2 MLOAD DUP2 LT PUSH2 0x2A9E JUMPI PUSH2 0x2A9D PUSH2 0x53B4 JUMP JUMPDEST JUMPDEST PUSH1 0x20 MUL PUSH1 0x20 ADD ADD DUP2 DUP2 MSTORE POP POP JUMPDEST DUP1 DUP1 PUSH2 0x2AB6 SWAP1 PUSH2 0x4ECC JUMP JUMPDEST SWAP2 POP POP PUSH2 0x2A30 JUMP JUMPDEST POP DUP2 SWAP4 POP POP POP POP SWAP5 SWAP4 POP POP POP POP JUMP JUMPDEST PUSH2 0x2AD8 DUP4 DUP4 DUP4 PUSH2 0x3334 JUMP JUMPDEST PUSH1 0x0 JUMPDEST PUSH1 0x13 PUSH1 0x0 DUP6 PUSH20 0xFFFFFFFFFFFFFFFFFFFFFFFFFFFFFFFFFFFFFFFF AND PUSH20 0xFFFFFFFFFFFFFFFFFFFFFFFFFFFFFFFFFFFFFFFF AND DUP2 MSTORE PUSH1 0x20 ADD SWAP1 DUP2 MSTORE PUSH1 0x20 ADD PUSH1 0x0 KECCAK256 DUP1 SLOAD SWAP1 POP DUP2 LT ISZERO PUSH2 0x2D0D JUMPI DUP2 PUSH1 0x13 PUSH1 0x0 DUP7 PUSH20 0xFFFFFFFFFFFFFFFFFFFFFFFFFFFFFFFFFFFFFFFF AND PUSH20 0xFFFFFFFFFFFFFFFFFFFFFFFFFFFFFFFFFFFFFFFF AND DUP2 MSTORE PUSH1 0x20 ADD SWAP1 DUP2 MSTORE PUSH1 0x20 ADD PUSH1 0x0 KECCAK256 DUP3 DUP2 SLOAD DUP2 LT PUSH2 0x2B77 JUMPI PUSH2 0x2B76 PUSH2 0x53B4 JUMP JUMPDEST JUMPDEST SWAP1 PUSH1 0x0 MSTORE PUSH1 0x20 PUSH1 0x0 KECCAK256 ADD SLOAD SUB PUSH2 0x2CFA JUMPI PUSH1 0x13 PUSH1 0x0 DUP6 PUSH20 0xFFFFFFFFFFFFFFFFFFFFFFFFFFFFFFFFFFFFFFFF AND PUSH20 0xFFFFFFFFFFFFFFFFFFFFFFFFFFFFFFFFFFFFFFFF AND DUP2 MSTORE PUSH1 0x20 ADD SWAP1 DUP2 MSTORE PUSH1 0x20 ADD PUSH1 0x0 KECCAK256 PUSH1 0x1 PUSH1 0x13 PUSH1 0x0 DUP8 PUSH20 0xFFFFFFFFFFFFFFFFFFFFFFFFFFFFFFFFFFFFFFFF AND PUSH20 0xFFFFFFFFFFFFFFFFFFFFFFFFFFFFFFFFFFFFFFFF AND DUP2 MSTORE PUSH1 0x20 ADD SWAP1 DUP2 MSTORE PUSH1 0x20 ADD PUSH1 0x0 KECCAK256 DUP1 SLOAD SWAP1 POP PUSH2 0x2C15 SWAP2 SWAP1 PUSH2 0x5711 JUMP JUMPDEST DUP2 SLOAD DUP2 LT PUSH2 0x2C26 JUMPI PUSH2 0x2C25 PUSH2 0x53B4 JUMP JUMPDEST JUMPDEST SWAP1 PUSH1 0x0 MSTORE PUSH1 0x20 PUSH1 0x0 KECCAK256 ADD SLOAD PUSH1 0x13 PUSH1 0x0 DUP7 PUSH20 0xFFFFFFFFFFFFFFFFFFFFFFFFFFFFFFFFFFFFFFFF AND PUSH20 0xFFFFFFFFFFFFFFFFFFFFFFFFFFFFFFFFFFFFFFFF AND DUP2 MSTORE PUSH1 0x20 ADD SWAP1 DUP2 MSTORE PUSH1 0x20 ADD PUSH1 0x0 KECCAK256 DUP3 DUP2 SLOAD DUP2 LT PUSH2 0x2C82 JUMPI PUSH2 0x2C81 PUSH2 0x53B4 JUMP JUMPDEST JUMPDEST SWAP1 PUSH1 0x0 MSTORE PUSH1 0x20 PUSH1 0x0 KECCAK256 ADD DUP2 SWAP1 SSTORE POP PUSH1 0x13 PUSH1 0x0 DUP6 PUSH20 0xFFFFFFFFFFFFFFFFFFFFFFFFFFFFFFFFFFFFFFFF AND PUSH20 0xFFFFFFFFFFFFFFFFFFFFFFFFFFFFFFFFFFFFFFFF AND DUP2 MSTORE PUSH1 0x20 ADD SWAP1 DUP2 MSTORE PUSH1 0x20 ADD PUSH1 0x0 KECCAK256 DUP1 SLOAD DUP1 PUSH2 0x2CDF JUMPI PUSH2 0x2CDE PUSH2 0x5745 JUMP JUMPDEST JUMPDEST PUSH1 0x1 SWAP1 SUB DUP2 DUP2 SWAP1 PUSH1 0x0 MSTORE PUSH1 0x20 PUSH1 0x0 KECCAK256 ADD PUSH1 0x0 SWAP1 SSTORE SWAP1 SSTORE PUSH2 0x2D0D JUMP JUMPDEST DUP1 DUP1 PUSH2 0x2D05 SWAP1 PUSH2 0x4ECC JUMP JUMPDEST SWAP2 POP POP PUSH2 0x2ADB JUMP JUMPDEST POP PUSH1 0x13 PUSH1 0x0 DUP4 PUSH20 0xFFFFFFFFFFFFFFFFFFFFFFFFFFFFFFFFFFFFFFFF AND PUSH20 0xFFFFFFFFFFFFFFFFFFFFFFFFFFFFFFFFFFFFFFFF AND DUP2 MSTORE PUSH1 0x20 ADD SWAP1 DUP2 MSTORE PUSH1 0x20 ADD PUSH1 0x0 KECCAK256 DUP2 SWAP1 DUP1 PUSH1 0x1 DUP2 SLOAD ADD DUP1 DUP3 SSTORE DUP1 SWAP2 POP POP PUSH1 0x1 SWAP1 SUB SWAP1 PUSH1 0x0 MSTORE PUSH1 0x20 PUSH1 0x0 KECCAK256 ADD PUSH1 0x0 SWAP1 SWAP2 SWAP1 SWAP2 SWAP1 SWAP2 POP SSTORE POP POP POP JUMP JUMPDEST PUSH1 0x1 DUP2 PUSH1 0x0 ADD PUSH1 0x0 DUP3 DUP3 SLOAD ADD SWAP3 POP POP DUP2 SWAP1 SSTORE POP POP JUMP JUMPDEST PUSH1 0x0 DUP2 PUSH1 0x0 ADD SLOAD SWAP1 POP SWAP2 SWAP1 POP JUMP JUMPDEST PUSH2 0x2DB7 DUP3 DUP3 PUSH1 0x40 MLOAD DUP1 PUSH1 0x20 ADD PUSH1 0x40 MSTORE DUP1 PUSH1 0x0 DUP2 MSTORE POP PUSH2 0x358F JUMP JUMPDEST POP POP JUMP JUMPDEST PUSH2 0x2DC4 DUP3 PUSH2 0x285D JUMP JUMPDEST PUSH2 0x2E03 JUMPI PUSH1 0x40 MLOAD PUSH32 0x8C379A000000000000000000000000000000000000000000000000000000000 DUP2 MSTORE PUSH1 0x4 ADD PUSH2 0x2DFA SWAP1 PUSH2 0x57E6 JUMP JUMPDEST PUSH1 0x40 MLOAD DUP1 SWAP2 SUB SWAP1 REVERT JUMPDEST DUP1 PUSH1 0x6 PUSH1 0x0 DUP5 DUP2 MSTORE PUSH1 0x20 ADD SWAP1 DUP2 MSTORE PUSH1 0x20 ADD PUSH1 0x0 KECCAK256 SWAP1 DUP2 PUSH2 0x2E23 SWAP2 SWAP1 PUSH2 0x52E2 JUMP JUMPDEST POP POP POP JUMP JUMPDEST PUSH1 0x0 PUSH1 0x7 PUSH1 0x0 SWAP1 SLOAD SWAP1 PUSH2 0x100 EXP SWAP1 DIV PUSH20 0xFFFFFFFFFFFFFFFFFFFFFFFFFFFFFFFFFFFFFFFF AND SWAP1 POP DUP2 PUSH1 0x7 PUSH1 0x0 PUSH2 0x100 EXP DUP2 SLOAD DUP2 PUSH20 0xFFFFFFFFFFFFFFFFFFFFFFFFFFFFFFFFFFFFFFFF MUL NOT AND SWAP1 DUP4 PUSH20 0xFFFFFFFFFFFFFFFFFFFFFFFFFFFFFFFFFFFFFFFF AND MUL OR SWAP1 SSTORE POP DUP2 PUSH20 0xFFFFFFFFFFFFFFFFFFFFFFFFFFFFFFFFFFFFFFFF AND DUP2 PUSH20 0xFFFFFFFFFFFFFFFFFFFFFFFFFFFFFFFFFFFFFFFF AND PUSH32 0x8BE0079C531659141344CD1FD0A4F28419497F9722A3DAAFE3B4186F6B6457E0 PUSH1 0x40 MLOAD PUSH1 0x40 MLOAD DUP1 SWAP2 SUB SWAP1 LOG3 POP POP JUMP JUMPDEST DUP2 PUSH20 0xFFFFFFFFFFFFFFFFFFFFFFFFFFFFFFFFFFFFFFFF AND DUP4 PUSH20 0xFFFFFFFFFFFFFFFFFFFFFFFFFFFFFFFFFFFFFFFF AND SUB PUSH2 0x2F5C JUMPI PUSH1 0x40 MLOAD PUSH32 0x8C379A000000000000000000000000000000000000000000000000000000000 DUP2 MSTORE PUSH1 0x4 ADD PUSH2 0x2F53 SWAP1 PUSH2 0x5852 JUMP JUMPDEST PUSH1 0x40 MLOAD DUP1 SWAP2 SUB SWAP1 REVERT JUMPDEST DUP1 PUSH1 0x5 PUSH1 0x0 DUP6 PUSH20 0xFFFFFFFFFFFFFFFFFFFFFFFFFFFFFFFFFFFFFFFF AND PUSH20 0xFFFFFFFFFFFFFFFFFFFFFFFFFFFFFFFFFFFFFFFF AND DUP2 MSTORE PUSH1 0x20 ADD SWAP1 DUP2 MSTORE PUSH1 0x20 ADD PUSH1 0x0 KECCAK256 PUSH1 0x0 DUP5 PUSH20 0xFFFFFFFFFFFFFFFFFFFFFFFFFFFFFFFFFFFFFFFF AND PUSH20 0xFFFFFFFFFFFFFFFFFFFFFFFFFFFFFFFFFFFFFFFF AND DUP2 MSTORE PUSH1 0x20 ADD SWAP1 DUP2 MSTORE PUSH1 0x20 ADD PUSH1 0x0 KECCAK256 PUSH1 0x0 PUSH2 0x100 EXP DUP2 SLOAD DUP2 PUSH1 0xFF MUL NOT AND SWAP1 DUP4 ISZERO ISZERO MUL OR SWAP1 SSTORE POP DUP2 PUSH20 0xFFFFFFFFFFFFFFFFFFFFFFFFFFFFFFFFFFFFFFFF AND DUP4 PUSH20 0xFFFFFFFFFFFFFFFFFFFFFFFFFFFFFFFFFFFFFFFF AND PUSH32 0x17307EAB39AB6107E8899845AD3D59BD9653F200F220920489CA2B5937696C31 DUP4 PUSH1 0x40 MLOAD PUSH2 0x304D SWAP2 SWAP1 PUSH2 0x4074 JUMP JUMPDEST PUSH1 0x40 MLOAD DUP1 SWAP2 SUB SWAP1 LOG3 POP POP POP JUMP JUMPDEST PUSH2 0x3065 DUP5 DUP5 DUP5 PUSH2 0x2ACD JUMP JUMPDEST PUSH2 0x3071 DUP5 DUP5 DUP5 DUP5 PUSH2 0x35EA JUMP JUMPDEST PUSH2 0x30B0 JUMPI PUSH1 0x40 MLOAD PUSH32 0x8C379A000000000000000000000000000000000000000000000000000000000 DUP2 MSTORE PUSH1 0x4 ADD PUSH2 0x30A7 SWAP1 PUSH2 0x58E4 JUMP JUMPDEST PUSH1 0x40 MLOAD DUP1 SWAP2 SUB SWAP1 REVERT JUMPDEST POP POP POP POP JUMP JUMPDEST PUSH1 0x60 PUSH2 0x30C1 DUP3 PUSH2 0x285D JUMP JUMPDEST PUSH2 0x3100 JUMPI PUSH1 0x40 MLOAD PUSH32 0x8C379A000000000000000000000000000000000000000000000000000000000 DUP2 MSTORE PUSH1 0x4 ADD PUSH2 0x30F7 SWAP1 PUSH2 0x5976 JUMP JUMPDEST PUSH1 0x40 MLOAD DUP1 SWAP2 SUB SWAP1 REVERT JUMPDEST PUSH1 0x0 PUSH1 0x6 PUSH1 0x0 DUP5 DUP2 MSTORE PUSH1 0x20 ADD SWAP1 DUP2 MSTORE PUSH1 0x20 ADD PUSH1 0x0 KECCAK256 DUP1 SLOAD PUSH2 0x3120 SWAP1 PUSH2 0x4ABC JUMP JUMPDEST DUP1 PUSH1 0x1F ADD PUSH1 0x20 DUP1 SWAP2 DIV MUL PUSH1 0x20 ADD PUSH1 0x40 MLOAD SWAP1 DUP2 ADD PUSH1 0x40 MSTORE DUP1 SWAP3 SWAP2 SWAP1 DUP2 DUP2 MSTORE PUSH1 0x20 ADD DUP3 DUP1 SLOAD PUSH2 0x314C SWAP1 PUSH2 0x4ABC JUMP JUMPDEST DUP1 ISZERO PUSH2 0x3199 JUMPI DUP1 PUSH1 0x1F LT PUSH2 0x316E JUMPI PUSH2 0x100 DUP1 DUP4 SLOAD DIV MUL DUP4 MSTORE SWAP2 PUSH1 0x20 ADD SWAP2 PUSH2 0x3199 JUMP JUMPDEST DUP3 ADD SWAP2 SWAP1 PUSH1 0x0 MSTORE PUSH1 0x20 PUSH1 0x0 KECCAK256 SWAP1 JUMPDEST DUP2 SLOAD DUP2 MSTORE SWAP1 PUSH1 0x1 ADD SWAP1 PUSH1 0x20 ADD DUP1 DUP4 GT PUSH2 0x317C JUMPI DUP3 SWAP1 SUB PUSH1 0x1F AND DUP3 ADD SWAP2 JUMPDEST POP POP POP POP POP SWAP1 POP PUSH1 0x0 PUSH2 0x31AA PUSH2 0x3771 JUMP JUMPDEST SWAP1 POP PUSH1 0x0 DUP2 MLOAD SUB PUSH2 0x31BF JUMPI DUP2 SWAP3 POP POP POP PUSH2 0x3202 JUMP JUMPDEST PUSH1 0x0 DUP3 MLOAD GT ISZERO PUSH2 0x31F4 JUMPI DUP1 DUP3 PUSH1 0x40 MLOAD PUSH1 0x20 ADD PUSH2 0x31DC SWAP3 SWAP2 SWAP1 PUSH2 0x5996 JUMP JUMPDEST PUSH1 0x40 MLOAD PUSH1 0x20 DUP2 DUP4 SUB SUB DUP2 MSTORE SWAP1 PUSH1 0x40 MSTORE SWAP3 POP POP POP PUSH2 0x3202 JUMP JUMPDEST PUSH2 0x31FD DUP5 PUSH2 0x3788 JUMP JUMPDEST SWAP3 POP POP POP JUMPDEST SWAP2 SWAP1 POP JUMP JUMPDEST PUSH2 0x3210 DUP2 PUSH2 0x382F JUMP JUMPDEST PUSH1 0x0 PUSH1 0x6 PUSH1 0x0 DUP4 DUP2 MSTORE PUSH1 0x20 ADD SWAP1 DUP2 MSTORE PUSH1 0x20 ADD PUSH1 0x0 KECCAK256 DUP1 SLOAD PUSH2 0x3230 SWAP1 PUSH2 0x4ABC JUMP JUMPDEST SWAP1 POP EQ PUSH2 0x3257 JUMPI PUSH1 0x6 PUSH1 0x0 DUP3 DUP2 MSTORE PUSH1 0x20 ADD SWAP1 DUP2 MSTORE PUSH1 0x20 ADD PUSH1 0x0 KECCAK256 PUSH1 0x0 PUSH2 0x3256 SWAP2 SWAP1 PUSH2 0x3D8B JUMP JUMPDEST JUMPDEST POP JUMP JUMPDEST PUSH1 0x0 DUP1 PUSH2 0x3266 DUP7 PUSH2 0x1204 JUMP JUMPDEST SWAP1 POP PUSH1 0x0 PUSH1 0x1 PUSH1 0x2 DUP2 GT ISZERO PUSH2 0x327E JUMPI PUSH2 0x327D PUSH2 0x59BA JUMP JUMPDEST JUMPDEST DUP7 PUSH1 0x2 DUP2 GT ISZERO PUSH2 0x3291 JUMPI PUSH2 0x3290 PUSH2 0x59BA JUMP JUMPDEST JUMPDEST EQ DUP1 ISZERO PUSH2 0x329B JUMPI POP DUP2 JUMPDEST DUP1 PUSH2 0x32D3 JUMPI POP PUSH1 0x2 DUP1 DUP2 GT ISZERO PUSH2 0x32B4 JUMPI PUSH2 0x32B3 PUSH2 0x59BA JUMP JUMPDEST JUMPDEST DUP7 PUSH1 0x2 DUP2 GT ISZERO PUSH2 0x32C7 JUMPI PUSH2 0x32C6 PUSH2 0x59BA JUMP JUMPDEST JUMPDEST EQ DUP1 ISZERO PUSH2 0x32D2 JUMPI POP DUP2 ISZERO JUMPDEST JUMPDEST DUP1 PUSH2 0x3302 JUMPI POP PUSH1 0x0 PUSH1 0x2 DUP2 GT ISZERO PUSH2 0x32ED JUMPI PUSH2 0x32EC PUSH2 0x59BA JUMP JUMPDEST JUMPDEST DUP7 PUSH1 0x2 DUP2 GT ISZERO PUSH2 0x3300 JUMPI PUSH2 0x32FF PUSH2 0x59BA JUMP JUMPDEST JUMPDEST EQ JUMPDEST SWAP1 POP DUP4 ISZERO PUSH2 0x3326 JUMPI DUP1 DUP1 ISZERO PUSH2 0x331D JUMPI POP PUSH2 0x331C DUP6 DUP9 PUSH2 0x3940 JUMP JUMPDEST JUMPDEST SWAP3 POP POP POP PUSH2 0x332C JUMP JUMPDEST DUP1 SWAP3 POP POP POP JUMPDEST SWAP5 SWAP4 POP POP POP POP JUMP JUMPDEST DUP3 PUSH20 0xFFFFFFFFFFFFFFFFFFFFFFFFFFFFFFFFFFFFFFFF AND PUSH2 0x3354 DUP3 PUSH2 0x1444 JUMP JUMPDEST PUSH20 0xFFFFFFFFFFFFFFFFFFFFFFFFFFFFFFFFFFFFFFFF AND EQ PUSH2 0x33AA JUMPI PUSH1 0x40 MLOAD PUSH32 0x8C379A000000000000000000000000000000000000000000000000000000000 DUP2 MSTORE PUSH1 0x4 ADD PUSH2 0x33A1 SWAP1 PUSH2 0x5A5B JUMP JUMPDEST PUSH1 0x40 MLOAD DUP1 SWAP2 SUB SWAP1 REVERT JUMPDEST PUSH1 0x0 PUSH20 0xFFFFFFFFFFFFFFFFFFFFFFFFFFFFFFFFFFFFFFFF AND DUP3 PUSH20 0xFFFFFFFFFFFFFFFFFFFFFFFFFFFFFFFFFFFFFFFF AND SUB PUSH2 0x3419 JUMPI PUSH1 0x40 MLOAD PUSH32 0x8C379A000000000000000000000000000000000000000000000000000000000 DUP2 MSTORE PUSH1 0x4 ADD PUSH2 0x3410 SWAP1 PUSH2 0x5AED JUMP JUMPDEST PUSH1 0x40 MLOAD DUP1 SWAP2 SUB SWAP1 REVERT JUMPDEST PUSH2 0x3424 DUP4 DUP4 DUP4 PUSH2 0x399B JUMP JUMPDEST PUSH2 0x342F PUSH1 0x0 DUP3 PUSH2 0x28C9 JUMP JUMPDEST PUSH1 0x1 PUSH1 0x3 PUSH1 0x0 DUP6 PUSH20 0xFFFFFFFFFFFFFFFFFFFFFFFFFFFFFFFFFFFFFFFF AND PUSH20 0xFFFFFFFFFFFFFFFFFFFFFFFFFFFFFFFFFFFFFFFF AND DUP2 MSTORE PUSH1 0x20 ADD SWAP1 DUP2 MSTORE PUSH1 0x20 ADD PUSH1 0x0 KECCAK256 PUSH1 0x0 DUP3 DUP3 SLOAD PUSH2 0x347F SWAP2 SWAP1 PUSH2 0x5711 JUMP JUMPDEST SWAP3 POP POP DUP2 SWAP1 SSTORE POP PUSH1 0x1 PUSH1 0x3 PUSH1 0x0 DUP5 PUSH20 0xFFFFFFFFFFFFFFFFFFFFFFFFFFFFFFFFFFFFFFFF AND PUSH20 0xFFFFFFFFFFFFFFFFFFFFFFFFFFFFFFFFFFFFFFFF AND DUP2 MSTORE PUSH1 0x20 ADD SWAP1 DUP2 MSTORE PUSH1 0x20 ADD PUSH1 0x0 KECCAK256 PUSH1 0x0 DUP3 DUP3 SLOAD PUSH2 0x34D6 SWAP2 SWAP1 PUSH2 0x564B JUMP JUMPDEST SWAP3 POP POP DUP2 SWAP1 SSTORE POP DUP2 PUSH1 0x2 PUSH1 0x0 DUP4 DUP2 MSTORE PUSH1 0x20 ADD SWAP1 DUP2 MSTORE PUSH1 0x20 ADD PUSH1 0x0 KECCAK256 PUSH1 0x0 PUSH2 0x100 EXP DUP2 SLOAD DUP2 PUSH20 0xFFFFFFFFFFFFFFFFFFFFFFFFFFFFFFFFFFFFFFFF MUL NOT AND SWAP1 DUP4 PUSH20 0xFFFFFFFFFFFFFFFFFFFFFFFFFFFFFFFFFFFFFFFF AND MUL OR SWAP1 SSTORE POP DUP1 DUP3 PUSH20 0xFFFFFFFFFFFFFFFFFFFFFFFFFFFFFFFFFFFFFFFF AND DUP5 PUSH20 0xFFFFFFFFFFFFFFFFFFFFFFFFFFFFFFFFFFFFFFFF AND PUSH32 0xDDF252AD1BE2C89B69C2B068FC378DAA952BA7F163C4A11628F55A4DF523B3EF PUSH1 0x40 MLOAD PUSH1 0x40 MLOAD DUP1 SWAP2 SUB SWAP1 LOG4 POP POP POP JUMP JUMPDEST PUSH2 0x3599 DUP4 DUP4 PUSH2 0x39A0 JUMP JUMPDEST PUSH2 0x35A6 PUSH1 0x0 DUP5 DUP5 DUP5 PUSH2 0x35EA JUMP JUMPDEST PUSH2 0x35E5 JUMPI PUSH1 0x40 MLOAD PUSH32 0x8C379A000000000000000000000000000000000000000000000000000000000 DUP2 MSTORE PUSH1 0x4 ADD PUSH2 0x35DC SWAP1 PUSH2 0x58E4 JUMP JUMPDEST PUSH1 0x40 MLOAD DUP1 SWAP2 SUB SWAP1 REVERT JUMPDEST POP POP POP JUMP JUMPDEST PUSH1 0x0 PUSH2 0x360B DUP5 PUSH20 0xFFFFFFFFFFFFFFFFFFFFFFFFFFFFFFFFFFFFFFFF AND PUSH2 0x3B6D JUMP JUMPDEST ISZERO PUSH2 0x3764 JUMPI DUP4 PUSH20 0xFFFFFFFFFFFFFFFFFFFFFFFFFFFFFFFFFFFFFFFF AND PUSH4 0x150B7A02 PUSH2 0x3634 PUSH2 0x2277 JUMP JUMPDEST DUP8 DUP7 DUP7 PUSH1 0x40 MLOAD DUP6 PUSH4 0xFFFFFFFF AND PUSH1 0xE0 SHL DUP2 MSTORE PUSH1 0x4 ADD PUSH2 0x3656 SWAP5 SWAP4 SWAP3 SWAP2 SWAP1 PUSH2 0x5B62 JUMP JUMPDEST PUSH1 0x20 PUSH1 0x40 MLOAD DUP1 DUP4 SUB DUP2 PUSH1 0x0 DUP8 GAS CALL SWAP3 POP POP POP DUP1 ISZERO PUSH2 0x3692 JUMPI POP PUSH1 0x40 MLOAD RETURNDATASIZE PUSH1 0x1F NOT PUSH1 0x1F DUP3 ADD AND DUP3 ADD DUP1 PUSH1 0x40 MSTORE POP DUP2 ADD SWAP1 PUSH2 0x368F SWAP2 SWAP1 PUSH2 0x5BC3 JUMP JUMPDEST PUSH1 0x1 JUMPDEST PUSH2 0x3714 JUMPI RETURNDATASIZE DUP1 PUSH1 0x0 DUP2 EQ PUSH2 0x36C2 JUMPI PUSH1 0x40 MLOAD SWAP2 POP PUSH1 0x1F NOT PUSH1 0x3F RETURNDATASIZE ADD AND DUP3 ADD PUSH1 0x40 MSTORE RETURNDATASIZE DUP3 MSTORE RETURNDATASIZE PUSH1 0x0 PUSH1 0x20 DUP5 ADD RETURNDATACOPY PUSH2 0x36C7 JUMP JUMPDEST PUSH1 0x60 SWAP2 POP JUMPDEST POP PUSH1 0x0 DUP2 MLOAD SUB PUSH2 0x370C JUMPI PUSH1 0x40 MLOAD PUSH32 0x8C379A000000000000000000000000000000000000000000000000000000000 DUP2 MSTORE PUSH1 0x4 ADD PUSH2 0x3703 SWAP1 PUSH2 0x58E4 JUMP JUMPDEST PUSH1 0x40 MLOAD DUP1 SWAP2 SUB SWAP1 REVERT JUMPDEST DUP1 MLOAD DUP2 PUSH1 0x20 ADD REVERT JUMPDEST PUSH4 0x150B7A02 PUSH1 0xE0 SHL PUSH28 0xFFFFFFFFFFFFFFFFFFFFFFFFFFFFFFFFFFFFFFFFFFFFFFFFFFFFFFFF NOT AND DUP2 PUSH28 0xFFFFFFFFFFFFFFFFFFFFFFFFFFFFFFFFFFFFFFFFFFFFFFFFFFFFFFFF NOT AND EQ SWAP2 POP POP PUSH2 0x3769 JUMP JUMPDEST PUSH1 0x1 SWAP1 POP JUMPDEST SWAP5 SWAP4 POP POP POP POP JUMP JUMPDEST PUSH1 0x60 PUSH1 0x40 MLOAD DUP1 PUSH1 0x20 ADD PUSH1 0x40 MSTORE DUP1 PUSH1 0x0 DUP2 MSTORE POP SWAP1 POP SWAP1 JUMP JUMPDEST PUSH1 0x60 PUSH2 0x3793 DUP3 PUSH2 0x285D JUMP JUMPDEST PUSH2 0x37D2 JUMPI PUSH1 0x40 MLOAD PUSH32 0x8C379A000000000000000000000000000000000000000000000000000000000 DUP2 MSTORE PUSH1 0x4 ADD PUSH2 0x37C9 SWAP1 PUSH2 0x5C62 JUMP JUMPDEST PUSH1 0x40 MLOAD DUP1 SWAP2 SUB SWAP1 REVERT JUMPDEST PUSH1 0x0 PUSH2 0x37DC PUSH2 0x3771 JUMP JUMPDEST SWAP1 POP PUSH1 0x0 DUP2 MLOAD GT PUSH2 0x37FC JUMPI PUSH1 0x40 MLOAD DUP1 PUSH1 0x20 ADD PUSH1 0x40 MSTORE DUP1 PUSH1 0x0 DUP2 MSTORE POP PUSH2 0x3827 JUMP JUMPDEST DUP1 PUSH2 0x3806 DUP5 PUSH2 0x3B80 JUMP JUMPDEST PUSH1 0x40 MLOAD PUSH1 0x20 ADD PUSH2 0x3817 SWAP3 SWAP2 SWAP1 PUSH2 0x5996 JUMP JUMPDEST PUSH1 0x40 MLOAD PUSH1 0x20 DUP2 DUP4 SUB SUB DUP2 MSTORE SWAP1 PUSH1 0x40 MSTORE JUMPDEST SWAP2 POP POP SWAP2 SWAP1 POP JUMP JUMPDEST PUSH1 0x0 PUSH2 0x383A DUP3 PUSH2 0x1444 JUMP JUMPDEST SWAP1 POP PUSH2 0x3848 DUP2 PUSH1 0x0 DUP5 PUSH2 0x399B JUMP JUMPDEST PUSH2 0x3853 PUSH1 0x0 DUP4 PUSH2 0x28C9 JUMP JUMPDEST PUSH1 0x1 PUSH1 0x3 PUSH1 0x0 DUP4 PUSH20 0xFFFFFFFFFFFFFFFFFFFFFFFFFFFFFFFFFFFFFFFF AND PUSH20 0xFFFFFFFFFFFFFFFFFFFFFFFFFFFFFFFFFFFFFFFF AND DUP2 MSTORE PUSH1 0x20 ADD SWAP1 DUP2 MSTORE PUSH1 0x20 ADD PUSH1 0x0 KECCAK256 PUSH1 0x0 DUP3 DUP3 SLOAD PUSH2 0x38A3 SWAP2 SWAP1 PUSH2 0x5711 JUMP JUMPDEST SWAP3 POP POP DUP2 SWAP1 SSTORE POP PUSH1 0x2 PUSH1 0x0 DUP4 DUP2 MSTORE PUSH1 0x20 ADD SWAP1 DUP2 MSTORE PUSH1 0x20 ADD PUSH1 0x0 KECCAK256 PUSH1 0x0 PUSH2 0x100 EXP DUP2 SLOAD SWAP1 PUSH20 0xFFFFFFFFFFFFFFFFFFFFFFFFFFFFFFFFFFFFFFFF MUL NOT AND SWAP1 SSTORE DUP2 PUSH1 0x0 PUSH20 0xFFFFFFFFFFFFFFFFFFFFFFFFFFFFFFFFFFFFFFFF AND DUP3 PUSH20 0xFFFFFFFFFFFFFFFFFFFFFFFFFFFFFFFFFFFFFFFF AND PUSH32 0xDDF252AD1BE2C89B69C2B068FC378DAA952BA7F163C4A11628F55A4DF523B3EF PUSH1 0x40 MLOAD PUSH1 0x40 MLOAD DUP1 SWAP2 SUB SWAP1 LOG4 POP POP JUMP JUMPDEST PUSH1 0x0 DUP1 PUSH1 0x0 SWAP1 POP JUMPDEST DUP4 MLOAD DUP2 LT ISZERO PUSH2 0x398F JUMPI DUP4 DUP2 DUP2 MLOAD DUP2 LT PUSH2 0x3964 JUMPI PUSH2 0x3963 PUSH2 0x53B4 JUMP JUMPDEST JUMPDEST PUSH1 0x20 MUL PUSH1 0x20 ADD ADD MLOAD DUP4 SUB PUSH2 0x397C JUMPI PUSH1 0x1 SWAP2 POP POP PUSH2 0x3995 JUMP JUMPDEST DUP1 DUP1 PUSH2 0x3987 SWAP1 PUSH2 0x4ECC JUMP JUMPDEST SWAP2 POP POP PUSH2 0x3948 JUMP JUMPDEST POP PUSH1 0x0 SWAP1 POP JUMPDEST SWAP3 SWAP2 POP POP JUMP JUMPDEST POP POP POP JUMP JUMPDEST PUSH1 0x0 PUSH20 0xFFFFFFFFFFFFFFFFFFFFFFFFFFFFFFFFFFFFFFFF AND DUP3 PUSH20 0xFFFFFFFFFFFFFFFFFFFFFFFFFFFFFFFFFFFFFFFF AND SUB PUSH2 0x3A0F JUMPI PUSH1 0x40 MLOAD PUSH32 0x8C379A000000000000000000000000000000000000000000000000000000000 DUP2 MSTORE PUSH1 0x4 ADD PUSH2 0x3A06 SWAP1 PUSH2 0x5CCE JUMP JUMPDEST PUSH1 0x40 MLOAD DUP1 SWAP2 SUB SWAP1 REVERT JUMPDEST PUSH2 0x3A18 DUP2 PUSH2 0x285D JUMP JUMPDEST ISZERO PUSH2 0x3A58 JUMPI PUSH1 0x40 MLOAD PUSH32 0x8C379A000000000000000000000000000000000000000000000000000000000 DUP2 MSTORE PUSH1 0x4 ADD PUSH2 0x3A4F SWAP1 PUSH2 0x5D3A JUMP JUMPDEST PUSH1 0x40 MLOAD DUP1 SWAP2 SUB SWAP1 REVERT JUMPDEST PUSH2 0x3A64 PUSH1 0x0 DUP4 DUP4 PUSH2 0x399B JUMP JUMPDEST PUSH1 0x1 PUSH1 0x3 PUSH1 0x0 DUP5 PUSH20 0xFFFFFFFFFFFFFFFFFFFFFFFFFFFFFFFFFFFFFFFF AND PUSH20 0xFFFFFFFFFFFFFFFFFFFFFFFFFFFFFFFFFFFFFFFF AND DUP2 MSTORE PUSH1 0x20 ADD SWAP1 DUP2 MSTORE PUSH1 0x20 ADD PUSH1 0x0 KECCAK256 PUSH1 0x0 DUP3 DUP3 SLOAD PUSH2 0x3AB4 SWAP2 SWAP1 PUSH2 0x564B JUMP JUMPDEST SWAP3 POP POP DUP2 SWAP1 SSTORE POP DUP2 PUSH1 0x2 PUSH1 0x0 DUP4 DUP2 MSTORE PUSH1 0x20 ADD SWAP1 DUP2 MSTORE PUSH1 0x20 ADD PUSH1 0x0 KECCAK256 PUSH1 0x0 PUSH2 0x100 EXP DUP2 SLOAD DUP2 PUSH20 0xFFFFFFFFFFFFFFFFFFFFFFFFFFFFFFFFFFFFFFFF MUL NOT AND SWAP1 DUP4 PUSH20 0xFFFFFFFFFFFFFFFFFFFFFFFFFFFFFFFFFFFFFFFF AND MUL OR SWAP1 SSTORE POP DUP1 DUP3 PUSH20 0xFFFFFFFFFFFFFFFFFFFFFFFFFFFFFFFFFFFFFFFF AND PUSH1 0x0 PUSH20 0xFFFFFFFFFFFFFFFFFFFFFFFFFFFFFFFFFFFFFFFF AND PUSH32 0xDDF252AD1BE2C89B69C2B068FC378DAA952BA7F163C4A11628F55A4DF523B3EF PUSH1 0x40 MLOAD PUSH1 0x40 MLOAD DUP1 SWAP2 SUB SWAP1 LOG4 POP POP JUMP JUMPDEST PUSH1 0x0 DUP1 DUP3 EXTCODESIZE SWAP1 POP PUSH1 0x0 DUP2 GT SWAP2 POP POP SWAP2 SWAP1 POP JUMP JUMPDEST PUSH1 0x60 PUSH1 0x0 DUP3 SUB PUSH2 0x3BC7 JUMPI PUSH1 0x40 MLOAD DUP1 PUSH1 0x40 ADD PUSH1 0x40 MSTORE DUP1 PUSH1 0x1 DUP2 MSTORE PUSH1 0x20 ADD PUSH32 0x3000000000000000000000000000000000000000000000000000000000000000 DUP2 MSTORE POP SWAP1 POP PUSH2 0x3CDB JUMP JUMPDEST PUSH1 0x0 DUP3 SWAP1 POP PUSH1 0x0 JUMPDEST PUSH1 0x0 DUP3 EQ PUSH2 0x3BF9 JUMPI DUP1 DUP1 PUSH2 0x3BE2 SWAP1 PUSH2 0x4ECC JUMP JUMPDEST SWAP2 POP POP PUSH1 0xA DUP3 PUSH2 0x3BF2 SWAP2 SWAP1 PUSH2 0x5D89 JUMP JUMPDEST SWAP2 POP PUSH2 0x3BCF JUMP JUMPDEST PUSH1 0x0 DUP2 PUSH8 0xFFFFFFFFFFFFFFFF DUP2 GT ISZERO PUSH2 0x3C15 JUMPI PUSH2 0x3C14 PUSH2 0x3E4D JUMP JUMPDEST JUMPDEST PUSH1 0x40 MLOAD SWAP1 DUP1 DUP3 MSTORE DUP1 PUSH1 0x1F ADD PUSH1 0x1F NOT AND PUSH1 0x20 ADD DUP3 ADD PUSH1 0x40 MSTORE DUP1 ISZERO PUSH2 0x3C47 JUMPI DUP2 PUSH1 0x20 ADD PUSH1 0x1 DUP3 MUL DUP1 CALLDATASIZE DUP4 CALLDATACOPY DUP1 DUP3 ADD SWAP2 POP POP SWAP1 POP JUMPDEST POP SWAP1 POP JUMPDEST PUSH1 0x0 DUP6 EQ PUSH2 0x3CD4 JUMPI PUSH1 0x1 DUP3 PUSH2 0x3C60 SWAP2 SWAP1 PUSH2 0x5711 JUMP JUMPDEST SWAP2 POP PUSH1 0xA DUP6 PUSH2 0x3C6F SWAP2 SWAP1 PUSH2 0x5DBA JUMP JUMPDEST PUSH1 0x30 PUSH2 0x3C7B SWAP2 SWAP1 PUSH2 0x564B JUMP JUMPDEST PUSH1 0xF8 SHL DUP2 DUP4 DUP2 MLOAD DUP2 LT PUSH2 0x3C91 JUMPI PUSH2 0x3C90 PUSH2 0x53B4 JUMP JUMPDEST JUMPDEST PUSH1 0x20 ADD ADD SWAP1 PUSH31 0xFFFFFFFFFFFFFFFFFFFFFFFFFFFFFFFFFFFFFFFFFFFFFFFFFFFFFFFFFFFFFF NOT AND SWAP1 DUP2 PUSH1 0x0 BYTE SWAP1 MSTORE8 POP PUSH1 0xA DUP6 PUSH2 0x3CCD SWAP2 SWAP1 PUSH2 0x5D89 JUMP JUMPDEST SWAP5 POP PUSH2 0x3C4B JUMP JUMPDEST DUP1 SWAP4 POP POP POP POP JUMPDEST SWAP2 SWAP1 POP JUMP JUMPDEST DUP3 DUP1 SLOAD DUP3 DUP3 SSTORE SWAP1 PUSH1 0x0 MSTORE PUSH1 0x20 PUSH1 0x0 KECCAK256 SWAP1 DUP2 ADD SWAP3 DUP3 ISZERO PUSH2 0x3D59 JUMPI SWAP2 PUSH1 0x20 MUL DUP3 ADD JUMPDEST DUP3 DUP2 GT ISZERO PUSH2 0x3D58 JUMPI DUP3 MLOAD DUP3 PUSH1 0x0 PUSH2 0x100 EXP DUP2 SLOAD DUP2 PUSH20 0xFFFFFFFFFFFFFFFFFFFFFFFFFFFFFFFFFFFFFFFF MUL NOT AND SWAP1 DUP4 PUSH20 0xFFFFFFFFFFFFFFFFFFFFFFFFFFFFFFFFFFFFFFFF AND MUL OR SWAP1 SSTORE POP SWAP2 PUSH1 0x20 ADD SWAP2 SWAP1 PUSH1 0x1 ADD SWAP1 PUSH2 0x3D00 JUMP JUMPDEST JUMPDEST POP SWAP1 POP PUSH2 0x3D66 SWAP2 SWAP1 PUSH2 0x3DCB JUMP JUMPDEST POP SWAP1 JUMP JUMPDEST POP DUP1 SLOAD PUSH1 0x0 DUP3 SSTORE SWAP1 PUSH1 0x0 MSTORE PUSH1 0x20 PUSH1 0x0 KECCAK256 SWAP1 DUP2 ADD SWAP1 PUSH2 0x3D88 SWAP2 SWAP1 PUSH2 0x3DCB JUMP JUMPDEST POP JUMP JUMPDEST POP DUP1 SLOAD PUSH2 0x3D97 SWAP1 PUSH2 0x4ABC JUMP JUMPDEST PUSH1 0x0 DUP3 SSTORE DUP1 PUSH1 0x1F LT PUSH2 0x3DA9 JUMPI POP PUSH2 0x3DC8 JUMP JUMPDEST PUSH1 0x1F ADD PUSH1 0x20 SWAP1 DIV SWAP1 PUSH1 0x0 MSTORE PUSH1 0x20 PUSH1 0x0 KECCAK256 SWAP1 DUP2 ADD SWAP1 PUSH2 0x3DC7 SWAP2 SWAP1 PUSH2 0x3DCB JUMP JUMPDEST JUMPDEST POP JUMP JUMPDEST JUMPDEST DUP1 DUP3 GT ISZERO PUSH2 0x3DE4 JUMPI PUSH1 0x0 DUP2 PUSH1 0x0 SWAP1 SSTORE POP PUSH1 0x1 ADD PUSH2 0x3DCC JUMP JUMPDEST POP SWAP1 JUMP JUMPDEST PUSH1 0x0 PUSH1 0x40 MLOAD SWAP1 POP SWAP1 JUMP JUMPDEST PUSH1 0x0 DUP1 REVERT JUMPDEST PUSH1 0x0 DUP1 REVERT JUMPDEST PUSH1 0x0 DUP2 SWAP1 POP SWAP2 SWAP1 POP JUMP JUMPDEST PUSH2 0x3E0F DUP2 PUSH2 0x3DFC JUMP JUMPDEST DUP2 EQ PUSH2 0x3E1A JUMPI PUSH1 0x0 DUP1 REVERT JUMPDEST POP JUMP JUMPDEST PUSH1 0x0 DUP2 CALLDATALOAD SWAP1 POP PUSH2 0x3E2C DUP2 PUSH2 0x3E06 JUMP JUMPDEST SWAP3 SWAP2 POP POP JUMP JUMPDEST PUSH1 0x0 DUP1 REVERT JUMPDEST PUSH1 0x0 DUP1 REVERT JUMPDEST PUSH1 0x0 PUSH1 0x1F NOT PUSH1 0x1F DUP4 ADD AND SWAP1 POP SWAP2 SWAP1 POP JUMP JUMPDEST PUSH32 0x4E487B7100000000000000000000000000000000000000000000000000000000 PUSH1 0x0 MSTORE PUSH1 0x41 PUSH1 0x4 MSTORE PUSH1 0x24 PUSH1 0x0 REVERT JUMPDEST PUSH2 0x3E85 DUP3 PUSH2 0x3E3C JUMP JUMPDEST DUP2 ADD DUP2 DUP2 LT PUSH8 0xFFFFFFFFFFFFFFFF DUP3 GT OR ISZERO PUSH2 0x3EA4 JUMPI PUSH2 0x3EA3 PUSH2 0x3E4D JUMP JUMPDEST JUMPDEST DUP1 PUSH1 0x40 MSTORE POP POP POP JUMP JUMPDEST PUSH1 0x0 PUSH2 0x3EB7 PUSH2 0x3DE8 JUMP JUMPDEST SWAP1 POP PUSH2 0x3EC3 DUP3 DUP3 PUSH2 0x3E7C JUMP JUMPDEST SWAP2 SWAP1 POP JUMP JUMPDEST PUSH1 0x0 PUSH8 0xFFFFFFFFFFFFFFFF DUP3 GT ISZERO PUSH2 0x3EE3 JUMPI PUSH2 0x3EE2 PUSH2 0x3E4D JUMP JUMPDEST JUMPDEST PUSH2 0x3EEC DUP3 PUSH2 0x3E3C JUMP JUMPDEST SWAP1 POP PUSH1 0x20 DUP2 ADD SWAP1 POP SWAP2 SWAP1 POP JUMP JUMPDEST DUP3 DUP2 DUP4 CALLDATACOPY PUSH1 0x0 DUP4 DUP4 ADD MSTORE POP POP POP JUMP JUMPDEST PUSH1 0x0 PUSH2 0x3F1B PUSH2 0x3F16 DUP5 PUSH2 0x3EC8 JUMP JUMPDEST PUSH2 0x3EAD JUMP JUMPDEST SWAP1 POP DUP3 DUP2 MSTORE PUSH1 0x20 DUP2 ADD DUP5 DUP5 DUP5 ADD GT ISZERO PUSH2 0x3F37 JUMPI PUSH2 0x3F36 PUSH2 0x3E37 JUMP JUMPDEST JUMPDEST PUSH2 0x3F42 DUP5 DUP3 DUP6 PUSH2 0x3EF9 JUMP JUMPDEST POP SWAP4 SWAP3 POP POP POP JUMP JUMPDEST PUSH1 0x0 DUP3 PUSH1 0x1F DUP4 ADD SLT PUSH2 0x3F5F JUMPI PUSH2 0x3F5E PUSH2 0x3E32 JUMP JUMPDEST JUMPDEST DUP2 CALLDATALOAD PUSH2 0x3F6F DUP5 DUP3 PUSH1 0x20 DUP7 ADD PUSH2 0x3F08 JUMP JUMPDEST SWAP2 POP POP SWAP3 SWAP2 POP POP JUMP JUMPDEST PUSH1 0x0 DUP1 PUSH1 0x40 DUP4 DUP6 SUB SLT ISZERO PUSH2 0x3F8F JUMPI PUSH2 0x3F8E PUSH2 0x3DF2 JUMP JUMPDEST JUMPDEST PUSH1 0x0 PUSH2 0x3F9D DUP6 DUP3 DUP7 ADD PUSH2 0x3E1D JUMP JUMPDEST SWAP3 POP POP PUSH1 0x20 DUP4 ADD CALLDATALOAD PUSH8 0xFFFFFFFFFFFFFFFF DUP2 GT ISZERO PUSH2 0x3FBE JUMPI PUSH2 0x3FBD PUSH2 0x3DF7 JUMP JUMPDEST JUMPDEST PUSH2 0x3FCA DUP6 DUP3 DUP7 ADD PUSH2 0x3F4A JUMP JUMPDEST SWAP2 POP POP SWAP3 POP SWAP3 SWAP1 POP JUMP JUMPDEST PUSH1 0x0 PUSH32 0xFFFFFFFF00000000000000000000000000000000000000000000000000000000 DUP3 AND SWAP1 POP SWAP2 SWAP1 POP JUMP JUMPDEST PUSH2 0x4009 DUP2 PUSH2 0x3FD4 JUMP JUMPDEST DUP2 EQ PUSH2 0x4014 JUMPI PUSH1 0x0 DUP1 REVERT JUMPDEST POP JUMP JUMPDEST PUSH1 0x0 DUP2 CALLDATALOAD SWAP1 POP PUSH2 0x4026 DUP2 PUSH2 0x4000 JUMP JUMPDEST SWAP3 SWAP2 POP POP JUMP JUMPDEST PUSH1 0x0 PUSH1 0x20 DUP3 DUP5 SUB SLT ISZERO PUSH2 0x4042 JUMPI PUSH2 0x4041 PUSH2 0x3DF2 JUMP JUMPDEST JUMPDEST PUSH1 0x0 PUSH2 0x4050 DUP5 DUP3 DUP6 ADD PUSH2 0x4017 JUMP JUMPDEST SWAP2 POP POP SWAP3 SWAP2 POP POP JUMP JUMPDEST PUSH1 0x0 DUP2 ISZERO ISZERO SWAP1 POP SWAP2 SWAP1 POP JUMP JUMPDEST PUSH2 0x406E DUP2 PUSH2 0x4059 JUMP JUMPDEST DUP3 MSTORE POP POP JUMP JUMPDEST PUSH1 0x0 PUSH1 0x20 DUP3 ADD SWAP1 POP PUSH2 0x4089 PUSH1 0x0 DUP4 ADD DUP5 PUSH2 0x4065 JUMP JUMPDEST SWAP3 SWAP2 POP POP JUMP JUMPDEST PUSH1 0x0 DUP2 MLOAD SWAP1 POP SWAP2 SWAP1 POP JUMP JUMPDEST PUSH1 0x0 DUP3 DUP3 MSTORE PUSH1 0x20 DUP3 ADD SWAP1 POP SWAP3 SWAP2 POP POP JUMP JUMPDEST PUSH1 0x0 JUMPDEST DUP4 DUP2 LT ISZERO PUSH2 0x40C9 JUMPI DUP1 DUP3 ADD MLOAD DUP2 DUP5 ADD MSTORE PUSH1 0x20 DUP2 ADD SWAP1 POP PUSH2 0x40AE JUMP JUMPDEST PUSH1 0x0 DUP5 DUP5 ADD MSTORE POP POP POP POP JUMP JUMPDEST PUSH1 0x0 PUSH2 0x40E0 DUP3 PUSH2 0x408F JUMP JUMPDEST PUSH2 0x40EA DUP2 DUP6 PUSH2 0x409A JUMP JUMPDEST SWAP4 POP PUSH2 0x40FA DUP2 DUP6 PUSH1 0x20 DUP7 ADD PUSH2 0x40AB JUMP JUMPDEST PUSH2 0x4103 DUP2 PUSH2 0x3E3C JUMP JUMPDEST DUP5 ADD SWAP2 POP POP SWAP3 SWAP2 POP POP JUMP JUMPDEST PUSH1 0x0 PUSH1 0x20 DUP3 ADD SWAP1 POP DUP2 DUP2 SUB PUSH1 0x0 DUP4 ADD MSTORE PUSH2 0x4128 DUP2 DUP5 PUSH2 0x40D5 JUMP JUMPDEST SWAP1 POP SWAP3 SWAP2 POP POP JUMP JUMPDEST PUSH1 0x0 PUSH1 0x20 DUP3 DUP5 SUB SLT ISZERO PUSH2 0x4146 JUMPI PUSH2 0x4145 PUSH2 0x3DF2 JUMP JUMPDEST JUMPDEST PUSH1 0x0 PUSH2 0x4154 DUP5 DUP3 DUP6 ADD PUSH2 0x3E1D JUMP JUMPDEST SWAP2 POP POP SWAP3 SWAP2 POP POP JUMP JUMPDEST PUSH1 0x0 PUSH20 0xFFFFFFFFFFFFFFFFFFFFFFFFFFFFFFFFFFFFFFFF DUP3 AND SWAP1 POP SWAP2 SWAP1 POP JUMP JUMPDEST PUSH1 0x0 PUSH2 0x4188 DUP3 PUSH2 0x415D JUMP JUMPDEST SWAP1 POP SWAP2 SWAP1 POP JUMP JUMPDEST PUSH2 0x4198 DUP2 PUSH2 0x417D JUMP JUMPDEST DUP3 MSTORE POP POP JUMP JUMPDEST PUSH1 0x0 PUSH1 0x20 DUP3 ADD SWAP1 POP PUSH2 0x41B3 PUSH1 0x0 DUP4 ADD DUP5 PUSH2 0x418F JUMP JUMPDEST SWAP3 SWAP2 POP POP JUMP JUMPDEST PUSH2 0x41C2 DUP2 PUSH2 0x417D JUMP JUMPDEST DUP2 EQ PUSH2 0x41CD JUMPI PUSH1 0x0 DUP1 REVERT JUMPDEST POP JUMP JUMPDEST PUSH1 0x0 DUP2 CALLDATALOAD SWAP1 POP PUSH2 0x41DF DUP2 PUSH2 0x41B9 JUMP JUMPDEST SWAP3 SWAP2 POP POP JUMP JUMPDEST PUSH1 0x0 DUP1 PUSH1 0x40 DUP4 DUP6 SUB SLT ISZERO PUSH2 0x41FC JUMPI PUSH2 0x41FB PUSH2 0x3DF2 JUMP JUMPDEST JUMPDEST PUSH1 0x0 PUSH2 0x420A DUP6 DUP3 DUP7 ADD PUSH2 0x41D0 JUMP JUMPDEST SWAP3 POP POP PUSH1 0x20 PUSH2 0x421B DUP6 DUP3 DUP7 ADD PUSH2 0x3E1D JUMP JUMPDEST SWAP2 POP POP SWAP3 POP SWAP3 SWAP1 POP JUMP JUMPDEST PUSH1 0x0 PUSH1 0x20 DUP3 DUP5 SUB SLT ISZERO PUSH2 0x423B JUMPI PUSH2 0x423A PUSH2 0x3DF2 JUMP JUMPDEST JUMPDEST PUSH1 0x0 DUP3 ADD CALLDATALOAD PUSH8 0xFFFFFFFFFFFFFFFF DUP2 GT ISZERO PUSH2 0x4259 JUMPI PUSH2 0x4258 PUSH2 0x3DF7 JUMP JUMPDEST JUMPDEST PUSH2 0x4265 DUP5 DUP3 DUP6 ADD PUSH2 0x3F4A JUMP JUMPDEST SWAP2 POP POP SWAP3 SWAP2 POP POP JUMP JUMPDEST PUSH1 0x0 DUP2 MLOAD SWAP1 POP SWAP2 SWAP1 POP JUMP JUMPDEST PUSH1 0x0 DUP3 DUP3 MSTORE PUSH1 0x20 DUP3 ADD SWAP1 POP SWAP3 SWAP2 POP POP JUMP JUMPDEST PUSH1 0x0 DUP2 SWAP1 POP PUSH1 0x20 DUP3 ADD SWAP1 POP SWAP2 SWAP1 POP JUMP JUMPDEST PUSH2 0x42A3 DUP2 PUSH2 0x3DFC JUMP JUMPDEST DUP3 MSTORE POP POP JUMP JUMPDEST PUSH1 0x0 PUSH2 0x42B5 DUP4 DUP4 PUSH2 0x429A JUMP JUMPDEST PUSH1 0x20 DUP4 ADD SWAP1 POP SWAP3 SWAP2 POP POP JUMP JUMPDEST PUSH1 0x0 PUSH1 0x20 DUP3 ADD SWAP1 POP SWAP2 SWAP1 POP JUMP JUMPDEST PUSH1 0x0 PUSH2 0x42D9 DUP3 PUSH2 0x426E JUMP JUMPDEST PUSH2 0x42E3 DUP2 DUP6 PUSH2 0x4279 JUMP JUMPDEST SWAP4 POP PUSH2 0x42EE DUP4 PUSH2 0x428A JUMP JUMPDEST DUP1 PUSH1 0x0 JUMPDEST DUP4 DUP2 LT ISZERO PUSH2 0x431F JUMPI DUP2 MLOAD PUSH2 0x4306 DUP9 DUP3 PUSH2 0x42A9 JUMP JUMPDEST SWAP8 POP PUSH2 0x4311 DUP4 PUSH2 0x42C1 JUMP JUMPDEST SWAP3 POP POP PUSH1 0x1 DUP2 ADD SWAP1 POP PUSH2 0x42F2 JUMP JUMPDEST POP DUP6 SWAP4 POP POP POP POP SWAP3 SWAP2 POP POP JUMP JUMPDEST PUSH1 0x0 PUSH1 0x20 DUP3 ADD SWAP1 POP DUP2 DUP2 SUB PUSH1 0x0 DUP4 ADD MSTORE PUSH2 0x4346 DUP2 DUP5 PUSH2 0x42CE JUMP JUMPDEST SWAP1 POP SWAP3 SWAP2 POP POP JUMP JUMPDEST PUSH1 0x3 DUP2 LT PUSH2 0x435B JUMPI PUSH1 0x0 DUP1 REVERT JUMPDEST POP JUMP JUMPDEST PUSH1 0x0 DUP2 CALLDATALOAD SWAP1 POP PUSH2 0x436D DUP2 PUSH2 0x434E JUMP JUMPDEST SWAP3 SWAP2 POP POP JUMP JUMPDEST PUSH1 0x0 DUP1 PUSH1 0x40 DUP4 DUP6 SUB SLT ISZERO PUSH2 0x438A JUMPI PUSH2 0x4389 PUSH2 0x3DF2 JUMP JUMPDEST JUMPDEST PUSH1 0x0 PUSH2 0x4398 DUP6 DUP3 DUP7 ADD PUSH2 0x435E JUMP JUMPDEST SWAP3 POP POP PUSH1 0x20 DUP4 ADD CALLDATALOAD PUSH8 0xFFFFFFFFFFFFFFFF DUP2 GT ISZERO PUSH2 0x43B9 JUMPI PUSH2 0x43B8 PUSH2 0x3DF7 JUMP JUMPDEST JUMPDEST PUSH2 0x43C5 DUP6 DUP3 DUP7 ADD PUSH2 0x3F4A JUMP JUMPDEST SWAP2 POP POP SWAP3 POP SWAP3 SWAP1 POP JUMP JUMPDEST PUSH1 0x0 DUP1 PUSH1 0x0 PUSH1 0x60 DUP5 DUP7 SUB SLT ISZERO PUSH2 0x43E8 JUMPI PUSH2 0x43E7 PUSH2 0x3DF2 JUMP JUMPDEST JUMPDEST PUSH1 0x0 PUSH2 0x43F6 DUP7 DUP3 DUP8 ADD PUSH2 0x41D0 JUMP JUMPDEST SWAP4 POP POP PUSH1 0x20 PUSH2 0x4407 DUP7 DUP3 DUP8 ADD PUSH2 0x41D0 JUMP JUMPDEST SWAP3 POP POP PUSH1 0x40 PUSH2 0x4418 DUP7 DUP3 DUP8 ADD PUSH2 0x3E1D JUMP JUMPDEST SWAP2 POP POP SWAP3 POP SWAP3 POP SWAP3 JUMP JUMPDEST PUSH1 0x0 DUP1 PUSH1 0x0 PUSH1 0x60 DUP5 DUP7 SUB SLT ISZERO PUSH2 0x443B JUMPI PUSH2 0x443A PUSH2 0x3DF2 JUMP JUMPDEST JUMPDEST PUSH1 0x0 PUSH2 0x4449 DUP7 DUP3 DUP8 ADD PUSH2 0x41D0 JUMP JUMPDEST SWAP4 POP POP PUSH1 0x20 PUSH2 0x445A DUP7 DUP3 DUP8 ADD PUSH2 0x435E JUMP JUMPDEST SWAP3 POP POP PUSH1 0x40 DUP5 ADD CALLDATALOAD PUSH8 0xFFFFFFFFFFFFFFFF DUP2 GT ISZERO PUSH2 0x447B JUMPI PUSH2 0x447A PUSH2 0x3DF7 JUMP JUMPDEST JUMPDEST PUSH2 0x4487 DUP7 DUP3 DUP8 ADD PUSH2 0x3F4A JUMP JUMPDEST SWAP2 POP POP SWAP3 POP SWAP3 POP SWAP3 JUMP JUMPDEST PUSH2 0x449A DUP2 PUSH2 0x3DFC JUMP JUMPDEST DUP3 MSTORE POP POP JUMP JUMPDEST PUSH1 0x0 PUSH1 0x20 DUP3 ADD SWAP1 POP PUSH2 0x44B5 PUSH1 0x0 DUP4 ADD DUP5 PUSH2 0x4491 JUMP JUMPDEST SWAP3 SWAP2 POP POP JUMP JUMPDEST PUSH1 0x0 PUSH1 0x20 DUP3 DUP5 SUB SLT ISZERO PUSH2 0x44D1 JUMPI PUSH2 0x44D0 PUSH2 0x3DF2 JUMP JUMPDEST JUMPDEST PUSH1 0x0 PUSH2 0x44DF DUP5 DUP3 DUP6 ADD PUSH2 0x41D0 JUMP JUMPDEST SWAP2 POP POP SWAP3 SWAP2 POP POP JUMP JUMPDEST PUSH1 0x0 DUP2 MLOAD SWAP1 POP SWAP2 SWAP1 POP JUMP JUMPDEST PUSH1 0x0 DUP3 DUP3 MSTORE PUSH1 0x20 DUP3 ADD SWAP1 POP SWAP3 SWAP2 POP POP JUMP JUMPDEST PUSH1 0x0 DUP2 SWAP1 POP PUSH1 0x20 DUP3 ADD SWAP1 POP SWAP2 SWAP1 POP JUMP JUMPDEST PUSH2 0x451D DUP2 PUSH2 0x417D JUMP JUMPDEST DUP3 MSTORE POP POP JUMP JUMPDEST PUSH1 0x0 PUSH2 0x452F DUP4 DUP4 PUSH2 0x4514 JUMP JUMPDEST PUSH1 0x20 DUP4 ADD SWAP1 POP SWAP3 SWAP2 POP POP JUMP JUMPDEST PUSH1 0x0 PUSH1 0x20 DUP3 ADD SWAP1 POP SWAP2 SWAP1 POP JUMP JUMPDEST PUSH1 0x0 PUSH2 0x4553 DUP3 PUSH2 0x44E8 JUMP JUMPDEST PUSH2 0x455D DUP2 DUP6 PUSH2 0x44F3 JUMP JUMPDEST SWAP4 POP PUSH2 0x4568 DUP4 PUSH2 0x4504 JUMP JUMPDEST DUP1 PUSH1 0x0 JUMPDEST DUP4 DUP2 LT ISZERO PUSH2 0x4599 JUMPI DUP2 MLOAD PUSH2 0x4580 DUP9 DUP3 PUSH2 0x4523 JUMP JUMPDEST SWAP8 POP PUSH2 0x458B DUP4 PUSH2 0x453B JUMP JUMPDEST SWAP3 POP POP PUSH1 0x1 DUP2 ADD SWAP1 POP PUSH2 0x456C JUMP JUMPDEST POP DUP6 SWAP4 POP POP POP POP SWAP3 SWAP2 POP POP JUMP JUMPDEST PUSH1 0x0 PUSH1 0x20 DUP3 ADD SWAP1 POP DUP2 DUP2 SUB PUSH1 0x0 DUP4 ADD MSTORE PUSH2 0x45C0 DUP2 DUP5 PUSH2 0x4548 JUMP JUMPDEST SWAP1 POP SWAP3 SWAP2 POP POP JUMP JUMPDEST PUSH1 0x0 PUSH8 0xFFFFFFFFFFFFFFFF DUP3 GT ISZERO PUSH2 0x45E3 JUMPI PUSH2 0x45E2 PUSH2 0x3E4D JUMP JUMPDEST JUMPDEST PUSH1 0x20 DUP3 MUL SWAP1 POP PUSH1 0x20 DUP2 ADD SWAP1 POP SWAP2 SWAP1 POP JUMP JUMPDEST PUSH1 0x0 DUP1 REVERT JUMPDEST PUSH1 0x0 PUSH2 0x460C PUSH2 0x4607 DUP5 PUSH2 0x45C8 JUMP JUMPDEST PUSH2 0x3EAD JUMP JUMPDEST SWAP1 POP DUP1 DUP4 DUP3 MSTORE PUSH1 0x20 DUP3 ADD SWAP1 POP PUSH1 0x20 DUP5 MUL DUP4 ADD DUP6 DUP2 GT ISZERO PUSH2 0x462F JUMPI PUSH2 0x462E PUSH2 0x45F4 JUMP JUMPDEST JUMPDEST DUP4 JUMPDEST DUP2 DUP2 LT ISZERO PUSH2 0x4658 JUMPI DUP1 PUSH2 0x4644 DUP9 DUP3 PUSH2 0x41D0 JUMP JUMPDEST DUP5 MSTORE PUSH1 0x20 DUP5 ADD SWAP4 POP POP PUSH1 0x20 DUP2 ADD SWAP1 POP PUSH2 0x4631 JUMP JUMPDEST POP POP POP SWAP4 SWAP3 POP POP POP JUMP JUMPDEST PUSH1 0x0 DUP3 PUSH1 0x1F DUP4 ADD SLT PUSH2 0x4677 JUMPI PUSH2 0x4676 PUSH2 0x3E32 JUMP JUMPDEST JUMPDEST DUP2 CALLDATALOAD PUSH2 0x4687 DUP5 DUP3 PUSH1 0x20 DUP7 ADD PUSH2 0x45F9 JUMP JUMPDEST SWAP2 POP POP SWAP3 SWAP2 POP POP JUMP JUMPDEST PUSH1 0x0 DUP1 PUSH1 0x0 PUSH1 0x60 DUP5 DUP7 SUB SLT ISZERO PUSH2 0x46A9 JUMPI PUSH2 0x46A8 PUSH2 0x3DF2 JUMP JUMPDEST JUMPDEST PUSH1 0x0 DUP5 ADD CALLDATALOAD PUSH8 0xFFFFFFFFFFFFFFFF DUP2 GT ISZERO PUSH2 0x46C7 JUMPI PUSH2 0x46C6 PUSH2 0x3DF7 JUMP JUMPDEST JUMPDEST PUSH2 0x46D3 DUP7 DUP3 DUP8 ADD PUSH2 0x3F4A JUMP JUMPDEST SWAP4 POP POP PUSH1 0x20 PUSH2 0x46E4 DUP7 DUP3 DUP8 ADD PUSH2 0x3E1D JUMP JUMPDEST SWAP3 POP POP PUSH1 0x40 DUP5 ADD CALLDATALOAD PUSH8 0xFFFFFFFFFFFFFFFF DUP2 GT ISZERO PUSH2 0x4705 JUMPI PUSH2 0x4704 PUSH2 0x3DF7 JUMP JUMPDEST JUMPDEST PUSH2 0x4711 DUP7 DUP3 DUP8 ADD PUSH2 0x4662 JUMP JUMPDEST SWAP2 POP POP SWAP3 POP SWAP3 POP SWAP3 JUMP JUMPDEST PUSH2 0x4724 DUP2 PUSH2 0x4059 JUMP JUMPDEST DUP2 EQ PUSH2 0x472F JUMPI PUSH1 0x0 DUP1 REVERT JUMPDEST POP JUMP JUMPDEST PUSH1 0x0 DUP2 CALLDATALOAD SWAP1 POP PUSH2 0x4741 DUP2 PUSH2 0x471B JUMP JUMPDEST SWAP3 SWAP2 POP POP JUMP JUMPDEST PUSH1 0x0 DUP1 PUSH1 0x40 DUP4 DUP6 SUB SLT ISZERO PUSH2 0x475E JUMPI PUSH2 0x475D PUSH2 0x3DF2 JUMP JUMPDEST JUMPDEST PUSH1 0x0 PUSH2 0x476C DUP6 DUP3 DUP7 ADD PUSH2 0x41D0 JUMP JUMPDEST SWAP3 POP POP PUSH1 0x20 PUSH2 0x477D DUP6 DUP3 DUP7 ADD PUSH2 0x4732 JUMP JUMPDEST SWAP2 POP POP SWAP3 POP SWAP3 SWAP1 POP JUMP JUMPDEST PUSH1 0x0 PUSH8 0xFFFFFFFFFFFFFFFF DUP3 GT ISZERO PUSH2 0x47A2 JUMPI PUSH2 0x47A1 PUSH2 0x3E4D JUMP JUMPDEST JUMPDEST PUSH2 0x47AB DUP3 PUSH2 0x3E3C JUMP JUMPDEST SWAP1 POP PUSH1 0x20 DUP2 ADD SWAP1 POP SWAP2 SWAP1 POP JUMP JUMPDEST PUSH1 0x0 PUSH2 0x47CB PUSH2 0x47C6 DUP5 PUSH2 0x4787 JUMP JUMPDEST PUSH2 0x3EAD JUMP JUMPDEST SWAP1 POP DUP3 DUP2 MSTORE PUSH1 0x20 DUP2 ADD DUP5 DUP5 DUP5 ADD GT ISZERO PUSH2 0x47E7 JUMPI PUSH2 0x47E6 PUSH2 0x3E37 JUMP JUMPDEST JUMPDEST PUSH2 0x47F2 DUP5 DUP3 DUP6 PUSH2 0x3EF9 JUMP JUMPDEST POP SWAP4 SWAP3 POP POP POP JUMP JUMPDEST PUSH1 0x0 DUP3 PUSH1 0x1F DUP4 ADD SLT PUSH2 0x480F JUMPI PUSH2 0x480E PUSH2 0x3E32 JUMP JUMPDEST JUMPDEST DUP2 CALLDATALOAD PUSH2 0x481F DUP5 DUP3 PUSH1 0x20 DUP7 ADD PUSH2 0x47B8 JUMP JUMPDEST SWAP2 POP POP SWAP3 SWAP2 POP POP JUMP JUMPDEST PUSH1 0x0 DUP1 PUSH1 0x0 DUP1 PUSH1 0x80 DUP6 DUP8 SUB SLT ISZERO PUSH2 0x4842 JUMPI PUSH2 0x4841 PUSH2 0x3DF2 JUMP JUMPDEST JUMPDEST PUSH1 0x0 PUSH2 0x4850 DUP8 DUP3 DUP9 ADD PUSH2 0x41D0 JUMP JUMPDEST SWAP5 POP POP PUSH1 0x20 PUSH2 0x4861 DUP8 DUP3 DUP9 ADD PUSH2 0x41D0 JUMP JUMPDEST SWAP4 POP POP PUSH1 0x40 PUSH2 0x4872 DUP8 DUP3 DUP9 ADD PUSH2 0x3E1D JUMP JUMPDEST SWAP3 POP POP PUSH1 0x60 DUP6 ADD CALLDATALOAD PUSH8 0xFFFFFFFFFFFFFFFF DUP2 GT ISZERO PUSH2 0x4893 JUMPI PUSH2 0x4892 PUSH2 0x3DF7 JUMP JUMPDEST JUMPDEST PUSH2 0x489F DUP8 DUP3 DUP9 ADD PUSH2 0x47FA JUMP JUMPDEST SWAP2 POP POP SWAP3 SWAP6 SWAP2 SWAP5 POP SWAP3 POP JUMP JUMPDEST PUSH1 0x0 DUP1 PUSH1 0x40 DUP4 DUP6 SUB SLT ISZERO PUSH2 0x48C2 JUMPI PUSH2 0x48C1 PUSH2 0x3DF2 JUMP JUMPDEST JUMPDEST PUSH1 0x0 DUP4 ADD CALLDATALOAD PUSH8 0xFFFFFFFFFFFFFFFF DUP2 GT ISZERO PUSH2 0x48E0 JUMPI PUSH2 0x48DF PUSH2 0x3DF7 JUMP JUMPDEST JUMPDEST PUSH2 0x48EC DUP6 DUP3 DUP7 ADD PUSH2 0x3F4A JUMP JUMPDEST SWAP3 POP POP PUSH1 0x20 DUP4 ADD CALLDATALOAD PUSH8 0xFFFFFFFFFFFFFFFF DUP2 GT ISZERO PUSH2 0x490D JUMPI PUSH2 0x490C PUSH2 0x3DF7 JUMP JUMPDEST JUMPDEST PUSH2 0x4919 DUP6 DUP3 DUP7 ADD PUSH2 0x3F4A JUMP JUMPDEST SWAP2 POP POP SWAP3 POP SWAP3 SWAP1 POP JUMP JUMPDEST PUSH1 0x0 DUP1 PUSH1 0x40 DUP4 DUP6 SUB SLT ISZERO PUSH2 0x493A JUMPI PUSH2 0x4939 PUSH2 0x3DF2 JUMP JUMPDEST JUMPDEST PUSH1 0x0 PUSH2 0x4948 DUP6 DUP3 DUP7 ADD PUSH2 0x41D0 JUMP JUMPDEST SWAP3 POP POP PUSH1 0x20 PUSH2 0x4959 DUP6 DUP3 DUP7 ADD PUSH2 0x41D0 JUMP JUMPDEST SWAP2 POP POP SWAP3 POP SWAP3 SWAP1 POP JUMP JUMPDEST PUSH1 0x0 DUP1 PUSH1 0x40 DUP4 DUP6 SUB SLT ISZERO PUSH2 0x497A JUMPI PUSH2 0x4979 PUSH2 0x3DF2 JUMP JUMPDEST JUMPDEST PUSH1 0x0 PUSH2 0x4988 DUP6 DUP3 DUP7 ADD PUSH2 0x3E1D JUMP JUMPDEST SWAP3 POP POP PUSH1 0x20 PUSH2 0x4999 DUP6 DUP3 DUP7 ADD PUSH2 0x3E1D JUMP JUMPDEST SWAP2 POP POP SWAP3 POP SWAP3 SWAP1 POP JUMP JUMPDEST PUSH32 0x4552433732313A2063616C6C6572206973206E6F74206F776E6572206E6F7220 PUSH1 0x0 DUP3 ADD MSTORE PUSH32 0x617070726F766564000000000000000000000000000000000000000000000000 PUSH1 0x20 DUP3 ADD MSTORE POP JUMP JUMPDEST PUSH1 0x0 PUSH2 0x49FF PUSH1 0x28 DUP4 PUSH2 0x409A JUMP JUMPDEST SWAP2 POP PUSH2 0x4A0A DUP3 PUSH2 0x49A3 JUMP JUMPDEST PUSH1 0x40 DUP3 ADD SWAP1 POP SWAP2 SWAP1 POP JUMP JUMPDEST PUSH1 0x0 PUSH1 0x20 DUP3 ADD SWAP1 POP DUP2 DUP2 SUB PUSH1 0x0 DUP4 ADD MSTORE PUSH2 0x4A2E DUP2 PUSH2 0x49F2 JUMP JUMPDEST SWAP1 POP SWAP2 SWAP1 POP JUMP JUMPDEST PUSH32 0x4E487B7100000000000000000000000000000000000000000000000000000000 PUSH1 0x0 MSTORE PUSH1 0x11 PUSH1 0x4 MSTORE PUSH1 0x24 PUSH1 0x0 REVERT JUMPDEST PUSH1 0x0 PUSH2 0x4A6F DUP3 PUSH2 0x3DFC JUMP JUMPDEST SWAP2 POP PUSH1 0x0 DUP3 SUB PUSH2 0x4A82 JUMPI PUSH2 0x4A81 PUSH2 0x4A35 JUMP JUMPDEST JUMPDEST PUSH1 0x1 DUP3 SUB SWAP1 POP SWAP2 SWAP1 POP JUMP JUMPDEST PUSH32 0x4E487B7100000000000000000000000000000000000000000000000000000000 PUSH1 0x0 MSTORE PUSH1 0x22 PUSH1 0x4 MSTORE PUSH1 0x24 PUSH1 0x0 REVERT JUMPDEST PUSH1 0x0 PUSH1 0x2 DUP3 DIV SWAP1 POP PUSH1 0x1 DUP3 AND DUP1 PUSH2 0x4AD4 JUMPI PUSH1 0x7F DUP3 AND SWAP2 POP JUMPDEST PUSH1 0x20 DUP3 LT DUP2 SUB PUSH2 0x4AE7 JUMPI PUSH2 0x4AE6 PUSH2 0x4A8D JUMP JUMPDEST JUMPDEST POP SWAP2 SWAP1 POP JUMP JUMPDEST PUSH32 0x4552433732313A20617070726F76656420717565727920666F72206E6F6E6578 PUSH1 0x0 DUP3 ADD MSTORE PUSH32 0x697374656E7420746F6B656E0000000000000000000000000000000000000000 PUSH1 0x20 DUP3 ADD MSTORE POP JUMP JUMPDEST PUSH1 0x0 PUSH2 0x4B49 PUSH1 0x2C DUP4 PUSH2 0x409A JUMP JUMPDEST SWAP2 POP PUSH2 0x4B54 DUP3 PUSH2 0x4AED JUMP JUMPDEST PUSH1 0x40 DUP3 ADD SWAP1 POP SWAP2 SWAP1 POP JUMP JUMPDEST PUSH1 0x0 PUSH1 0x20 DUP3 ADD SWAP1 POP DUP2 DUP2 SUB PUSH1 0x0 DUP4 ADD MSTORE PUSH2 0x4B78 DUP2 PUSH2 0x4B3C JUMP JUMPDEST SWAP1 POP SWAP2 SWAP1 POP JUMP JUMPDEST PUSH32 0x4552433732313A20617070726F76616C20746F2063757272656E74206F776E65 PUSH1 0x0 DUP3 ADD MSTORE PUSH32 0x7200000000000000000000000000000000000000000000000000000000000000 PUSH1 0x20 DUP3 ADD MSTORE POP JUMP JUMPDEST PUSH1 0x0 PUSH2 0x4BDB PUSH1 0x21 DUP4 PUSH2 0x409A JUMP JUMPDEST SWAP2 POP PUSH2 0x4BE6 DUP3 PUSH2 0x4B7F JUMP JUMPDEST PUSH1 0x40 DUP3 ADD SWAP1 POP SWAP2 SWAP1 POP JUMP JUMPDEST PUSH1 0x0 PUSH1 0x20 DUP3 ADD SWAP1 POP DUP2 DUP2 SUB PUSH1 0x0 DUP4 ADD MSTORE PUSH2 0x4C0A DUP2 PUSH2 0x4BCE JUMP JUMPDEST SWAP1 POP SWAP2 SWAP1 POP JUMP JUMPDEST PUSH32 0x4552433732313A20617070726F76652063616C6C6572206973206E6F74206F77 PUSH1 0x0 DUP3 ADD MSTORE PUSH32 0x6E6572206E6F7220617070726F76656420666F7220616C6C0000000000000000 PUSH1 0x20 DUP3 ADD MSTORE POP JUMP JUMPDEST PUSH1 0x0 PUSH2 0x4C6D PUSH1 0x38 DUP4 PUSH2 0x409A JUMP JUMPDEST SWAP2 POP PUSH2 0x4C78 DUP3 PUSH2 0x4C11 JUMP JUMPDEST PUSH1 0x40 DUP3 ADD SWAP1 POP SWAP2 SWAP1 POP JUMP JUMPDEST PUSH1 0x0 PUSH1 0x20 DUP3 ADD SWAP1 POP DUP2 DUP2 SUB PUSH1 0x0 DUP4 ADD MSTORE PUSH2 0x4C9C DUP2 PUSH2 0x4C60 JUMP JUMPDEST SWAP1 POP SWAP2 SWAP1 POP JUMP JUMPDEST PUSH1 0x0 DUP2 SWAP1 POP SWAP3 SWAP2 POP POP JUMP JUMPDEST PUSH1 0x0 PUSH2 0x4CB9 DUP3 PUSH2 0x408F JUMP JUMPDEST PUSH2 0x4CC3 DUP2 DUP6 PUSH2 0x4CA3 JUMP JUMPDEST SWAP4 POP PUSH2 0x4CD3 DUP2 DUP6 PUSH1 0x20 DUP7 ADD PUSH2 0x40AB JUMP JUMPDEST DUP1 DUP5 ADD SWAP2 POP POP SWAP3 SWAP2 POP POP JUMP JUMPDEST PUSH1 0x0 PUSH2 0x4CEB DUP3 DUP5 PUSH2 0x4CAE JUMP JUMPDEST SWAP2 POP DUP2 SWAP1 POP SWAP3 SWAP2 POP POP JUMP JUMPDEST PUSH32 0x4552433732313A207472616E736665722063616C6C6572206973206E6F74206F PUSH1 0x0 DUP3 ADD MSTORE PUSH32 0x776E6572206E6F7220617070726F766564000000000000000000000000000000 PUSH1 0x20 DUP3 ADD MSTORE POP JUMP JUMPDEST PUSH1 0x0 PUSH2 0x4D52 PUSH1 0x31 DUP4 PUSH2 0x409A JUMP JUMPDEST SWAP2 POP PUSH2 0x4D5D DUP3 PUSH2 0x4CF6 JUMP JUMPDEST PUSH1 0x40 DUP3 ADD SWAP1 POP SWAP2 SWAP1 POP JUMP JUMPDEST PUSH1 0x0 PUSH1 0x20 DUP3 ADD SWAP1 POP DUP2 DUP2 SUB PUSH1 0x0 DUP4 ADD MSTORE PUSH2 0x4D81 DUP2 PUSH2 0x4D45 JUMP JUMPDEST SWAP1 POP SWAP2 SWAP1 POP JUMP JUMPDEST PUSH32 0x496E76616C696420746F6B656E20494400000000000000000000000000000000 PUSH1 0x0 DUP3 ADD MSTORE POP JUMP JUMPDEST PUSH1 0x0 PUSH2 0x4DBE PUSH1 0x10 DUP4 PUSH2 0x409A JUMP JUMPDEST SWAP2 POP PUSH2 0x4DC9 DUP3 PUSH2 0x4D88 JUMP JUMPDEST PUSH1 0x20 DUP3 ADD SWAP1 POP SWAP2 SWAP1 POP JUMP JUMPDEST PUSH1 0x0 PUSH1 0x20 DUP3 ADD SWAP1 POP DUP2 DUP2 SUB PUSH1 0x0 DUP4 ADD MSTORE PUSH2 0x4DED DUP2 PUSH2 0x4DB1 JUMP JUMPDEST SWAP1 POP SWAP2 SWAP1 POP JUMP JUMPDEST PUSH32 0x43616E6E6F7420636C6F6E65206120636C6F6E65000000000000000000000000 PUSH1 0x0 DUP3 ADD MSTORE POP JUMP JUMPDEST PUSH1 0x0 PUSH2 0x4E2A PUSH1 0x14 DUP4 PUSH2 0x409A JUMP JUMPDEST SWAP2 POP PUSH2 0x4E35 DUP3 PUSH2 0x4DF4 JUMP JUMPDEST PUSH1 0x20 DUP3 ADD SWAP1 POP SWAP2 SWAP1 POP JUMP JUMPDEST PUSH1 0x0 PUSH1 0x20 DUP3 ADD SWAP1 POP DUP2 DUP2 SUB PUSH1 0x0 DUP4 ADD MSTORE PUSH2 0x4E59 DUP2 PUSH2 0x4E1D JUMP JUMPDEST SWAP1 POP SWAP2 SWAP1 POP JUMP JUMPDEST PUSH32 0x496E73756666696369656E742066756E647320746F206D696E7420636C6F6E65 PUSH1 0x0 DUP3 ADD MSTORE POP JUMP JUMPDEST PUSH1 0x0 PUSH2 0x4E96 PUSH1 0x20 DUP4 PUSH2 0x409A JUMP JUMPDEST SWAP2 POP PUSH2 0x4EA1 DUP3 PUSH2 0x4E60 JUMP JUMPDEST PUSH1 0x20 DUP3 ADD SWAP1 POP SWAP2 SWAP1 POP JUMP JUMPDEST PUSH1 0x0 PUSH1 0x20 DUP3 ADD SWAP1 POP DUP2 DUP2 SUB PUSH1 0x0 DUP4 ADD MSTORE PUSH2 0x4EC5 DUP2 PUSH2 0x4E89 JUMP JUMPDEST SWAP1 POP SWAP2 SWAP1 POP JUMP JUMPDEST PUSH1 0x0 PUSH2 0x4ED7 DUP3 PUSH2 0x3DFC JUMP JUMPDEST SWAP2 POP PUSH32 0xFFFFFFFFFFFFFFFFFFFFFFFFFFFFFFFFFFFFFFFFFFFFFFFFFFFFFFFFFFFFFFFF DUP3 SUB PUSH2 0x4F09 JUMPI PUSH2 0x4F08 PUSH2 0x4A35 JUMP JUMPDEST JUMPDEST PUSH1 0x1 DUP3 ADD SWAP1 POP SWAP2 SWAP1 POP JUMP JUMPDEST PUSH32 0x4F776E61626C653A2063616C6C6572206973206E6F7420746865206F776E6572 PUSH1 0x0 DUP3 ADD MSTORE POP JUMP JUMPDEST PUSH1 0x0 PUSH2 0x4F4A PUSH1 0x20 DUP4 PUSH2 0x409A JUMP JUMPDEST SWAP2 POP PUSH2 0x4F55 DUP3 PUSH2 0x4F14 JUMP JUMPDEST PUSH1 0x20 DUP3 ADD SWAP1 POP SWAP2 SWAP1 POP JUMP JUMPDEST PUSH1 0x0 PUSH1 0x20 DUP3 ADD SWAP1 POP DUP2 DUP2 SUB PUSH1 0x0 DUP4 ADD MSTORE PUSH2 0x4F79 DUP2 PUSH2 0x4F3D JUMP JUMPDEST SWAP1 POP SWAP2 SWAP1 POP JUMP JUMPDEST PUSH32 0x4552433732313A206F776E657220717565727920666F72206E6F6E6578697374 PUSH1 0x0 DUP3 ADD MSTORE PUSH32 0x656E7420746F6B656E0000000000000000000000000000000000000000000000 PUSH1 0x20 DUP3 ADD MSTORE POP JUMP JUMPDEST PUSH1 0x0 PUSH2 0x4FDC PUSH1 0x29 DUP4 PUSH2 0x409A JUMP JUMPDEST SWAP2 POP PUSH2 0x4FE7 DUP3 PUSH2 0x4F80 JUMP JUMPDEST PUSH1 0x40 DUP3 ADD SWAP1 POP SWAP2 SWAP1 POP JUMP JUMPDEST PUSH1 0x0 PUSH1 0x20 DUP3 ADD SWAP1 POP DUP2 DUP2 SUB PUSH1 0x0 DUP4 ADD MSTORE PUSH2 0x500B DUP2 PUSH2 0x4FCF JUMP JUMPDEST SWAP1 POP SWAP2 SWAP1 POP JUMP JUMPDEST PUSH32 0x546F6B656E206973206120636C6F6E652C206E6F7420616E206F726967696E61 PUSH1 0x0 DUP3 ADD MSTORE PUSH32 0x6C00000000000000000000000000000000000000000000000000000000000000 PUSH1 0x20 DUP3 ADD MSTORE POP JUMP JUMPDEST PUSH1 0x0 PUSH2 0x506E PUSH1 0x21 DUP4 PUSH2 0x409A JUMP JUMPDEST SWAP2 POP PUSH2 0x5079 DUP3 PUSH2 0x5012 JUMP JUMPDEST PUSH1 0x40 DUP3 ADD SWAP1 POP SWAP2 SWAP1 POP JUMP JUMPDEST PUSH1 0x0 PUSH1 0x20 DUP3 ADD SWAP1 POP DUP2 DUP2 SUB PUSH1 0x0 DUP4 ADD MSTORE PUSH2 0x509D DUP2 PUSH2 0x5061 JUMP JUMPDEST SWAP1 POP SWAP2 SWAP1 POP JUMP JUMPDEST PUSH32 0x4552433732313A2062616C616E636520717565727920666F7220746865207A65 PUSH1 0x0 DUP3 ADD MSTORE PUSH32 0x726F206164647265737300000000000000000000000000000000000000000000 PUSH1 0x20 DUP3 ADD MSTORE POP JUMP JUMPDEST PUSH1 0x0 PUSH2 0x5100 PUSH1 0x2A DUP4 PUSH2 0x409A JUMP JUMPDEST SWAP2 POP PUSH2 0x510B DUP3 PUSH2 0x50A4 JUMP JUMPDEST PUSH1 0x40 DUP3 ADD SWAP1 POP SWAP2 SWAP1 POP JUMP JUMPDEST PUSH1 0x0 PUSH1 0x20 DUP3 ADD SWAP1 POP DUP2 DUP2 SUB PUSH1 0x0 DUP4 ADD MSTORE PUSH2 0x512F DUP2 PUSH2 0x50F3 JUMP JUMPDEST SWAP1 POP SWAP2 SWAP1 POP JUMP JUMPDEST PUSH1 0x0 DUP2 SWAP1 POP DUP2 PUSH1 0x0 MSTORE PUSH1 0x20 PUSH1 0x0 KECCAK256 SWAP1 POP SWAP2 SWAP1 POP JUMP JUMPDEST PUSH1 0x0 PUSH1 0x20 PUSH1 0x1F DUP4 ADD DIV SWAP1 POP SWAP2 SWAP1 POP JUMP JUMPDEST PUSH1 0x0 DUP3 DUP3 SHL SWAP1 POP SWAP3 SWAP2 POP POP JUMP JUMPDEST PUSH1 0x0 PUSH1 0x8 DUP4 MUL PUSH2 0x5198 PUSH32 0xFFFFFFFFFFFFFFFFFFFFFFFFFFFFFFFFFFFFFFFFFFFFFFFFFFFFFFFFFFFFFFFF DUP3 PUSH2 0x515B JUMP JUMPDEST PUSH2 0x51A2 DUP7 DUP4 PUSH2 0x515B JUMP JUMPDEST SWAP6 POP DUP1 NOT DUP5 AND SWAP4 POP DUP1 DUP7 AND DUP5 OR SWAP3 POP POP POP SWAP4 SWAP3 POP POP POP JUMP JUMPDEST PUSH1 0x0 DUP2 SWAP1 POP SWAP2 SWAP1 POP JUMP JUMPDEST PUSH1 0x0 PUSH2 0x51DF PUSH2 0x51DA PUSH2 0x51D5 DUP5 PUSH2 0x3DFC JUMP JUMPDEST PUSH2 0x51BA JUMP JUMPDEST PUSH2 0x3DFC JUMP JUMPDEST SWAP1 POP SWAP2 SWAP1 POP JUMP JUMPDEST PUSH1 0x0 DUP2 SWAP1 POP SWAP2 SWAP1 POP JUMP JUMPDEST PUSH2 0x51F9 DUP4 PUSH2 0x51C4 JUMP JUMPDEST PUSH2 0x520D PUSH2 0x5205 DUP3 PUSH2 0x51E6 JUMP JUMPDEST DUP5 DUP5 SLOAD PUSH2 0x5168 JUMP JUMPDEST DUP3 SSTORE POP POP POP POP JUMP JUMPDEST PUSH1 0x0 SWAP1 JUMP JUMPDEST PUSH2 0x5222 PUSH2 0x5215 JUMP JUMPDEST PUSH2 0x522D DUP2 DUP5 DUP5 PUSH2 0x51F0 JUMP JUMPDEST POP POP POP JUMP JUMPDEST JUMPDEST DUP2 DUP2 LT ISZERO PUSH2 0x5251 JUMPI PUSH2 0x5246 PUSH1 0x0 DUP3 PUSH2 0x521A JUMP JUMPDEST PUSH1 0x1 DUP2 ADD SWAP1 POP PUSH2 0x5233 JUMP JUMPDEST POP POP JUMP JUMPDEST PUSH1 0x1F DUP3 GT ISZERO PUSH2 0x5296 JUMPI PUSH2 0x5267 DUP2 PUSH2 0x5136 JUMP JUMPDEST PUSH2 0x5270 DUP5 PUSH2 0x514B JUMP JUMPDEST DUP2 ADD PUSH1 0x20 DUP6 LT ISZERO PUSH2 0x527F JUMPI DUP2 SWAP1 POP JUMPDEST PUSH2 0x5293 PUSH2 0x528B DUP6 PUSH2 0x514B JUMP JUMPDEST DUP4 ADD DUP3 PUSH2 0x5232 JUMP JUMPDEST POP POP JUMPDEST POP POP POP JUMP JUMPDEST PUSH1 0x0 DUP3 DUP3 SHR SWAP1 POP SWAP3 SWAP2 POP POP JUMP JUMPDEST PUSH1 0x0 PUSH2 0x52B9 PUSH1 0x0 NOT DUP5 PUSH1 0x8 MUL PUSH2 0x529B JUMP JUMPDEST NOT DUP1 DUP4 AND SWAP2 POP POP SWAP3 SWAP2 POP POP JUMP JUMPDEST PUSH1 0x0 PUSH2 0x52D2 DUP4 DUP4 PUSH2 0x52A8 JUMP JUMPDEST SWAP2 POP DUP3 PUSH1 0x2 MUL DUP3 OR SWAP1 POP SWAP3 SWAP2 POP POP JUMP JUMPDEST PUSH2 0x52EB DUP3 PUSH2 0x408F JUMP JUMPDEST PUSH8 0xFFFFFFFFFFFFFFFF DUP2 GT ISZERO PUSH2 0x5304 JUMPI PUSH2 0x5303 PUSH2 0x3E4D JUMP JUMPDEST JUMPDEST PUSH2 0x530E DUP3 SLOAD PUSH2 0x4ABC JUMP JUMPDEST PUSH2 0x5319 DUP3 DUP3 DUP6 PUSH2 0x5255 JUMP JUMPDEST PUSH1 0x0 PUSH1 0x20 SWAP1 POP PUSH1 0x1F DUP4 GT PUSH1 0x1 DUP2 EQ PUSH2 0x534C JUMPI PUSH1 0x0 DUP5 ISZERO PUSH2 0x533A JUMPI DUP3 DUP8 ADD MLOAD SWAP1 POP JUMPDEST PUSH2 0x5344 DUP6 DUP3 PUSH2 0x52C6 JUMP JUMPDEST DUP7 SSTORE POP PUSH2 0x53AC JUMP JUMPDEST PUSH1 0x1F NOT DUP5 AND PUSH2 0x535A DUP7 PUSH2 0x5136 JUMP JUMPDEST PUSH1 0x0 JUMPDEST DUP3 DUP2 LT ISZERO PUSH2 0x5382 JUMPI DUP5 DUP10 ADD MLOAD DUP3 SSTORE PUSH1 0x1 DUP3 ADD SWAP2 POP PUSH1 0x20 DUP6 ADD SWAP5 POP PUSH1 0x20 DUP2 ADD SWAP1 POP PUSH2 0x535D JUMP JUMPDEST DUP7 DUP4 LT ISZERO PUSH2 0x539F JUMPI DUP5 DUP10 ADD MLOAD PUSH2 0x539B PUSH1 0x1F DUP10 AND DUP3 PUSH2 0x52A8 JUMP JUMPDEST DUP4 SSTORE POP JUMPDEST PUSH1 0x1 PUSH1 0x2 DUP9 MUL ADD DUP9 SSTORE POP POP POP JUMPDEST POP POP POP POP POP POP JUMP JUMPDEST PUSH32 0x4E487B7100000000000000000000000000000000000000000000000000000000 PUSH1 0x0 MSTORE PUSH1 0x32 PUSH1 0x4 MSTORE PUSH1 0x24 PUSH1 0x0 REVERT JUMPDEST PUSH32 0x546F6B656E20646F6573206E6F74206578697374000000000000000000000000 PUSH1 0x0 DUP3 ADD MSTORE POP JUMP JUMPDEST PUSH1 0x0 PUSH2 0x5419 PUSH1 0x14 DUP4 PUSH2 0x409A JUMP JUMPDEST SWAP2 POP PUSH2 0x5424 DUP3 PUSH2 0x53E3 JUMP JUMPDEST PUSH1 0x20 DUP3 ADD SWAP1 POP SWAP2 SWAP1 POP JUMP JUMPDEST PUSH1 0x0 PUSH1 0x20 DUP3 ADD SWAP1 POP DUP2 DUP2 SUB PUSH1 0x0 DUP4 ADD MSTORE PUSH2 0x5448 DUP2 PUSH2 0x540C JUMP JUMPDEST SWAP1 POP SWAP2 SWAP1 POP JUMP JUMPDEST PUSH32 0x546F6B656E206973206E6F74206120636C6F6E65000000000000000000000000 PUSH1 0x0 DUP3 ADD MSTORE POP JUMP JUMPDEST PUSH1 0x0 PUSH2 0x5485 PUSH1 0x14 DUP4 PUSH2 0x409A JUMP JUMPDEST SWAP2 POP PUSH2 0x5490 DUP3 PUSH2 0x544F JUMP JUMPDEST PUSH1 0x20 DUP3 ADD SWAP1 POP SWAP2 SWAP1 POP JUMP JUMPDEST PUSH1 0x0 PUSH1 0x20 DUP3 ADD SWAP1 POP DUP2 DUP2 SUB PUSH1 0x0 DUP4 ADD MSTORE PUSH2 0x54B4 DUP2 PUSH2 0x5478 JUMP JUMPDEST SWAP1 POP SWAP2 SWAP1 POP JUMP JUMPDEST PUSH32 0x43616C6C6572206973206E6F7420616C6C6F77656420746F206D696E74000000 PUSH1 0x0 DUP3 ADD MSTORE POP JUMP JUMPDEST PUSH1 0x0 PUSH2 0x54F1 PUSH1 0x1D DUP4 PUSH2 0x409A JUMP JUMPDEST SWAP2 POP PUSH2 0x54FC DUP3 PUSH2 0x54BB JUMP JUMPDEST PUSH1 0x20 DUP3 ADD SWAP1 POP SWAP2 SWAP1 POP JUMP JUMPDEST PUSH1 0x0 PUSH1 0x20 DUP3 ADD SWAP1 POP DUP2 DUP2 SUB PUSH1 0x0 DUP4 ADD MSTORE PUSH2 0x5520 DUP2 PUSH2 0x54E4 JUMP JUMPDEST SWAP1 POP SWAP2 SWAP1 POP JUMP JUMPDEST PUSH32 0x43616C6C6572206973206E6F7420636F6E7472616374206F7220746F6B656E20 PUSH1 0x0 DUP3 ADD MSTORE PUSH32 0x6F776E6572000000000000000000000000000000000000000000000000000000 PUSH1 0x20 DUP3 ADD MSTORE POP JUMP JUMPDEST PUSH1 0x0 PUSH2 0x5583 PUSH1 0x25 DUP4 PUSH2 0x409A JUMP JUMPDEST SWAP2 POP PUSH2 0x558E DUP3 PUSH2 0x5527 JUMP JUMPDEST PUSH1 0x40 DUP3 ADD SWAP1 POP SWAP2 SWAP1 POP JUMP JUMPDEST PUSH1 0x0 PUSH1 0x20 DUP3 ADD SWAP1 POP DUP2 DUP2 SUB PUSH1 0x0 DUP4 ADD MSTORE PUSH2 0x55B2 DUP2 PUSH2 0x5576 JUMP JUMPDEST SWAP1 POP SWAP2 SWAP1 POP JUMP JUMPDEST PUSH32 0x4F776E61626C653A206E6577206F776E657220697320746865207A65726F2061 PUSH1 0x0 DUP3 ADD MSTORE PUSH32 0x6464726573730000000000000000000000000000000000000000000000000000 PUSH1 0x20 DUP3 ADD MSTORE POP JUMP JUMPDEST PUSH1 0x0 PUSH2 0x5615 PUSH1 0x26 DUP4 PUSH2 0x409A JUMP JUMPDEST SWAP2 POP PUSH2 0x5620 DUP3 PUSH2 0x55B9 JUMP JUMPDEST PUSH1 0x40 DUP3 ADD SWAP1 POP SWAP2 SWAP1 POP JUMP JUMPDEST PUSH1 0x0 PUSH1 0x20 DUP3 ADD SWAP1 POP DUP2 DUP2 SUB PUSH1 0x0 DUP4 ADD MSTORE PUSH2 0x5644 DUP2 PUSH2 0x5608 JUMP JUMPDEST SWAP1 POP SWAP2 SWAP1 POP JUMP JUMPDEST PUSH1 0x0 PUSH2 0x5656 DUP3 PUSH2 0x3DFC JUMP JUMPDEST SWAP2 POP PUSH2 0x5661 DUP4 PUSH2 0x3DFC JUMP JUMPDEST SWAP3 POP DUP3 DUP3 ADD SWAP1 POP DUP1 DUP3 GT ISZERO PUSH2 0x5679 JUMPI PUSH2 0x5678 PUSH2 0x4A35 JUMP JUMPDEST JUMPDEST SWAP3 SWAP2 POP POP JUMP JUMPDEST PUSH32 0x4552433732313A206F70657261746F7220717565727920666F72206E6F6E6578 PUSH1 0x0 DUP3 ADD MSTORE PUSH32 0x697374656E7420746F6B656E0000000000000000000000000000000000000000 PUSH1 0x20 DUP3 ADD MSTORE POP JUMP JUMPDEST PUSH1 0x0 PUSH2 0x56DB PUSH1 0x2C DUP4 PUSH2 0x409A JUMP JUMPDEST SWAP2 POP PUSH2 0x56E6 DUP3 PUSH2 0x567F JUMP JUMPDEST PUSH1 0x40 DUP3 ADD SWAP1 POP SWAP2 SWAP1 POP JUMP JUMPDEST PUSH1 0x0 PUSH1 0x20 DUP3 ADD SWAP1 POP DUP2 DUP2 SUB PUSH1 0x0 DUP4 ADD MSTORE PUSH2 0x570A DUP2 PUSH2 0x56CE JUMP JUMPDEST SWAP1 POP SWAP2 SWAP1 POP JUMP JUMPDEST PUSH1 0x0 PUSH2 0x571C DUP3 PUSH2 0x3DFC JUMP JUMPDEST SWAP2 POP PUSH2 0x5727 DUP4 PUSH2 0x3DFC JUMP JUMPDEST SWAP3 POP DUP3 DUP3 SUB SWAP1 POP DUP2 DUP2 GT ISZERO PUSH2 0x573F JUMPI PUSH2 0x573E PUSH2 0x4A35 JUMP JUMPDEST JUMPDEST SWAP3 SWAP2 POP POP JUMP JUMPDEST PUSH32 0x4E487B7100000000000000000000000000000000000000000000000000000000 PUSH1 0x0 MSTORE PUSH1 0x31 PUSH1 0x4 MSTORE PUSH1 0x24 PUSH1 0x0 REVERT JUMPDEST PUSH32 0x45524337323155524953746F726167653A2055524920736574206F66206E6F6E PUSH1 0x0 DUP3 ADD MSTORE PUSH32 0x6578697374656E7420746F6B656E000000000000000000000000000000000000 PUSH1 0x20 DUP3 ADD MSTORE POP JUMP JUMPDEST PUSH1 0x0 PUSH2 0x57D0 PUSH1 0x2E DUP4 PUSH2 0x409A JUMP JUMPDEST SWAP2 POP PUSH2 0x57DB DUP3 PUSH2 0x5774 JUMP JUMPDEST PUSH1 0x40 DUP3 ADD SWAP1 POP SWAP2 SWAP1 POP JUMP JUMPDEST PUSH1 0x0 PUSH1 0x20 DUP3 ADD SWAP1 POP DUP2 DUP2 SUB PUSH1 0x0 DUP4 ADD MSTORE PUSH2 0x57FF DUP2 PUSH2 0x57C3 JUMP JUMPDEST SWAP1 POP SWAP2 SWAP1 POP JUMP JUMPDEST PUSH32 0x4552433732313A20617070726F766520746F2063616C6C657200000000000000 PUSH1 0x0 DUP3 ADD MSTORE POP JUMP JUMPDEST PUSH1 0x0 PUSH2 0x583C PUSH1 0x19 DUP4 PUSH2 0x409A JUMP JUMPDEST SWAP2 POP PUSH2 0x5847 DUP3 PUSH2 0x5806 JUMP JUMPDEST PUSH1 0x20 DUP3 ADD SWAP1 POP SWAP2 SWAP1 POP JUMP JUMPDEST PUSH1 0x0 PUSH1 0x20 DUP3 ADD SWAP1 POP DUP2 DUP2 SUB PUSH1 0x0 DUP4 ADD MSTORE PUSH2 0x586B DUP2 PUSH2 0x582F JUMP JUMPDEST SWAP1 POP SWAP2 SWAP1 POP JUMP JUMPDEST PUSH32 0x4552433732313A207472616E7366657220746F206E6F6E204552433732315265 PUSH1 0x0 DUP3 ADD MSTORE PUSH32 0x63656976657220696D706C656D656E7465720000000000000000000000000000 PUSH1 0x20 DUP3 ADD MSTORE POP JUMP JUMPDEST PUSH1 0x0 PUSH2 0x58CE PUSH1 0x32 DUP4 PUSH2 0x409A JUMP JUMPDEST SWAP2 POP PUSH2 0x58D9 DUP3 PUSH2 0x5872 JUMP JUMPDEST PUSH1 0x40 DUP3 ADD SWAP1 POP SWAP2 SWAP1 POP JUMP JUMPDEST PUSH1 0x0 PUSH1 0x20 DUP3 ADD SWAP1 POP DUP2 DUP2 SUB PUSH1 0x0 DUP4 ADD MSTORE PUSH2 0x58FD DUP2 PUSH2 0x58C1 JUMP JUMPDEST SWAP1 POP SWAP2 SWAP1 POP JUMP JUMPDEST PUSH32 0x45524337323155524953746F726167653A2055524920717565727920666F7220 PUSH1 0x0 DUP3 ADD MSTORE PUSH32 0x6E6F6E6578697374656E7420746F6B656E000000000000000000000000000000 PUSH1 0x20 DUP3 ADD MSTORE POP JUMP JUMPDEST PUSH1 0x0 PUSH2 0x5960 PUSH1 0x31 DUP4 PUSH2 0x409A JUMP JUMPDEST SWAP2 POP PUSH2 0x596B DUP3 PUSH2 0x5904 JUMP JUMPDEST PUSH1 0x40 DUP3 ADD SWAP1 POP SWAP2 SWAP1 POP JUMP JUMPDEST PUSH1 0x0 PUSH1 0x20 DUP3 ADD SWAP1 POP DUP2 DUP2 SUB PUSH1 0x0 DUP4 ADD MSTORE PUSH2 0x598F DUP2 PUSH2 0x5953 JUMP JUMPDEST SWAP1 POP SWAP2 SWAP1 POP JUMP JUMPDEST PUSH1 0x0 PUSH2 0x59A2 DUP3 DUP6 PUSH2 0x4CAE JUMP JUMPDEST SWAP2 POP PUSH2 0x59AE DUP3 DUP5 PUSH2 0x4CAE JUMP JUMPDEST SWAP2 POP DUP2 SWAP1 POP SWAP4 SWAP3 POP POP POP JUMP JUMPDEST PUSH32 0x4E487B7100000000000000000000000000000000000000000000000000000000 PUSH1 0x0 MSTORE PUSH1 0x21 PUSH1 0x4 MSTORE PUSH1 0x24 PUSH1 0x0 REVERT JUMPDEST PUSH32 0x4552433732313A207472616E73666572206F6620746F6B656E20746861742069 PUSH1 0x0 DUP3 ADD MSTORE PUSH32 0x73206E6F74206F776E0000000000000000000000000000000000000000000000 PUSH1 0x20 DUP3 ADD MSTORE POP JUMP JUMPDEST PUSH1 0x0 PUSH2 0x5A45 PUSH1 0x29 DUP4 PUSH2 0x409A JUMP JUMPDEST SWAP2 POP PUSH2 0x5A50 DUP3 PUSH2 0x59E9 JUMP JUMPDEST PUSH1 0x40 DUP3 ADD SWAP1 POP SWAP2 SWAP1 POP JUMP JUMPDEST PUSH1 0x0 PUSH1 0x20 DUP3 ADD SWAP1 POP DUP2 DUP2 SUB PUSH1 0x0 DUP4 ADD MSTORE PUSH2 0x5A74 DUP2 PUSH2 0x5A38 JUMP JUMPDEST SWAP1 POP SWAP2 SWAP1 POP JUMP JUMPDEST PUSH32 0x4552433732313A207472616E7366657220746F20746865207A65726F20616464 PUSH1 0x0 DUP3 ADD MSTORE PUSH32 0x7265737300000000000000000000000000000000000000000000000000000000 PUSH1 0x20 DUP3 ADD MSTORE POP JUMP JUMPDEST PUSH1 0x0 PUSH2 0x5AD7 PUSH1 0x24 DUP4 PUSH2 0x409A JUMP JUMPDEST SWAP2 POP PUSH2 0x5AE2 DUP3 PUSH2 0x5A7B JUMP JUMPDEST PUSH1 0x40 DUP3 ADD SWAP1 POP SWAP2 SWAP1 POP JUMP JUMPDEST PUSH1 0x0 PUSH1 0x20 DUP3 ADD SWAP1 POP DUP2 DUP2 SUB PUSH1 0x0 DUP4 ADD MSTORE PUSH2 0x5B06 DUP2 PUSH2 0x5ACA JUMP JUMPDEST SWAP1 POP SWAP2 SWAP1 POP JUMP JUMPDEST PUSH1 0x0 DUP2 MLOAD SWAP1 POP SWAP2 SWAP1 POP JUMP JUMPDEST PUSH1 0x0 DUP3 DUP3 MSTORE PUSH1 0x20 DUP3 ADD SWAP1 POP SWAP3 SWAP2 POP POP JUMP JUMPDEST PUSH1 0x0 PUSH2 0x5B34 DUP3 PUSH2 0x5B0D JUMP JUMPDEST PUSH2 0x5B3E DUP2 DUP6 PUSH2 0x5B18 JUMP JUMPDEST SWAP4 POP PUSH2 0x5B4E DUP2 DUP6 PUSH1 0x20 DUP7 ADD PUSH2 0x40AB JUMP JUMPDEST PUSH2 0x5B57 DUP2 PUSH2 0x3E3C JUMP JUMPDEST DUP5 ADD SWAP2 POP POP SWAP3 SWAP2 POP POP JUMP JUMPDEST PUSH1 0x0 PUSH1 0x80 DUP3 ADD SWAP1 POP PUSH2 0x5B77 PUSH1 0x0 DUP4 ADD DUP8 PUSH2 0x418F JUMP JUMPDEST PUSH2 0x5B84 PUSH1 0x20 DUP4 ADD DUP7 PUSH2 0x418F JUMP JUMPDEST PUSH2 0x5B91 PUSH1 0x40 DUP4 ADD DUP6 PUSH2 0x4491 JUMP JUMPDEST DUP2 DUP2 SUB PUSH1 0x60 DUP4 ADD MSTORE PUSH2 0x5BA3 DUP2 DUP5 PUSH2 0x5B29 JUMP JUMPDEST SWAP1 POP SWAP6 SWAP5 POP POP POP POP POP JUMP JUMPDEST PUSH1 0x0 DUP2 MLOAD SWAP1 POP PUSH2 0x5BBD DUP2 PUSH2 0x4000 JUMP JUMPDEST SWAP3 SWAP2 POP POP JUMP JUMPDEST PUSH1 0x0 PUSH1 0x20 DUP3 DUP5 SUB SLT ISZERO PUSH2 0x5BD9 JUMPI PUSH2 0x5BD8 PUSH2 0x3DF2 JUMP JUMPDEST JUMPDEST PUSH1 0x0 PUSH2 0x5BE7 DUP5 DUP3 DUP6 ADD PUSH2 0x5BAE JUMP JUMPDEST SWAP2 POP POP SWAP3 SWAP2 POP POP JUMP JUMPDEST PUSH32 0x4552433732314D657461646174613A2055524920717565727920666F72206E6F PUSH1 0x0 DUP3 ADD MSTORE PUSH32 0x6E6578697374656E7420746F6B656E0000000000000000000000000000000000 PUSH1 0x20 DUP3 ADD MSTORE POP JUMP JUMPDEST PUSH1 0x0 PUSH2 0x5C4C PUSH1 0x2F DUP4 PUSH2 0x409A JUMP JUMPDEST SWAP2 POP PUSH2 0x5C57 DUP3 PUSH2 0x5BF0 JUMP JUMPDEST PUSH1 0x40 DUP3 ADD SWAP1 POP SWAP2 SWAP1 POP JUMP JUMPDEST PUSH1 0x0 PUSH1 0x20 DUP3 ADD SWAP1 POP DUP2 DUP2 SUB PUSH1 0x0 DUP4 ADD MSTORE PUSH2 0x5C7B DUP2 PUSH2 0x5C3F JUMP JUMPDEST SWAP1 POP SWAP2 SWAP1 POP JUMP JUMPDEST PUSH32 0x4552433732313A206D696E7420746F20746865207A65726F2061646472657373 PUSH1 0x0 DUP3 ADD MSTORE POP JUMP JUMPDEST PUSH1 0x0 PUSH2 0x5CB8 PUSH1 0x20 DUP4 PUSH2 0x409A JUMP JUMPDEST SWAP2 POP PUSH2 0x5CC3 DUP3 PUSH2 0x5C82 JUMP JUMPDEST PUSH1 0x20 DUP3 ADD SWAP1 POP SWAP2 SWAP1 POP JUMP JUMPDEST PUSH1 0x0 PUSH1 0x20 DUP3 ADD SWAP1 POP DUP2 DUP2 SUB PUSH1 0x0 DUP4 ADD MSTORE PUSH2 0x5CE7 DUP2 PUSH2 0x5CAB JUMP JUMPDEST SWAP1 POP SWAP2 SWAP1 POP JUMP JUMPDEST PUSH32 0x4552433732313A20746F6B656E20616C7265616479206D696E74656400000000 PUSH1 0x0 DUP3 ADD MSTORE POP JUMP JUMPDEST PUSH1 0x0 PUSH2 0x5D24 PUSH1 0x1C DUP4 PUSH2 0x409A JUMP JUMPDEST SWAP2 POP PUSH2 0x5D2F DUP3 PUSH2 0x5CEE JUMP JUMPDEST PUSH1 0x20 DUP3 ADD SWAP1 POP SWAP2 SWAP1 POP JUMP JUMPDEST PUSH1 0x0 PUSH1 0x20 DUP3 ADD SWAP1 POP DUP2 DUP2 SUB PUSH1 0x0 DUP4 ADD MSTORE PUSH2 0x5D53 DUP2 PUSH2 0x5D17 JUMP JUMPDEST SWAP1 POP SWAP2 SWAP1 POP JUMP JUMPDEST PUSH32 0x4E487B7100000000000000000000000000000000000000000000000000000000 PUSH1 0x0 MSTORE PUSH1 0x12 PUSH1 0x4 MSTORE PUSH1 0x24 PUSH1 0x0 REVERT JUMPDEST PUSH1 0x0 PUSH2 0x5D94 DUP3 PUSH2 0x3DFC JUMP JUMPDEST SWAP2 POP PUSH2 0x5D9F DUP4 PUSH2 0x3DFC JUMP JUMPDEST SWAP3 POP DUP3 PUSH2 0x5DAF JUMPI PUSH2 0x5DAE PUSH2 0x5D5A JUMP JUMPDEST JUMPDEST DUP3 DUP3 DIV SWAP1 POP SWAP3 SWAP2 POP POP JUMP JUMPDEST PUSH1 0x0 PUSH2 0x5DC5 DUP3 PUSH2 0x3DFC JUMP JUMPDEST SWAP2 POP PUSH2 0x5DD0 DUP4 PUSH2 0x3DFC JUMP JUMPDEST SWAP3 POP DUP3 PUSH2 0x5DE0 JUMPI PUSH2 0x5DDF PUSH2 0x5D5A JUMP JUMPDEST JUMPDEST DUP3 DUP3 MOD SWAP1 POP SWAP3 SWAP2 POP POP JUMP INVALID LOG2 PUSH5 0x6970667358 0x22 SLT KECCAK256 0xC9 RETURN SWAP6 SWAP9 CALLDATACOPY 0xEA ADDMOD 0xA5 0xD0 0xF9 0xD8 PUSH4 0xCBCF7AB7 0x2D 0xF6 DUP7 JUMP EQ SIGNEXTEND 0xB3 0xCC DUP16 JUMPI 0xB1 CALLER 0xC1 0xC5 0xD2 PUSH14 0x64736F6C63430008120033000000 "
		},
		"gasEstimates": {
			"creation": {
				"codeDepositCost": "4819400",
				"executionCost": "infinite",
				"totalCost": "infinite"
			},
			"external": {
				"approve(address,uint256)": "infinite",
				"balanceOf(address)": "2987",
				"burnToken(uint256,string)": "infinite",
				"creationTime()": "2562",
				"description()": "infinite",
				"getAllMintedTokens(uint8,string)": "infinite",
				"getApproved(uint256)": "5273",
				"getApprovedMinters()": "infinite",
				"getClonePrice(uint256)": "infinite",
				"getClonesOfOriginal(uint256)": "infinite",
				"getContractCreator()": "2590",
				"getDefaultClonePrice()": "2504",
				"getHasClonePrice(uint256)": "5162",
				"getOriginal(uint256)": "infinite",
				"getOwnedTokens(address,uint8,string)": "infinite",
				"getTokenCreator(uint256)": "5205",
				"getTokenIdByUrl(string)": "infinite",
				"getTotalMintClonedTokens()": "2527",
				"getTotalMintOriginalTokens()": "2482",
				"getTotalMintedTokens()": "infinite",
				"isApprovedForAll(address,address)": "infinite",
				"isClone(uint256)": "2890",
				"mintClone(uint256,string)": "infinite",
				"mintNFT(string,string)": "infinite",
				"name()": "infinite",
				"owner()": "2656",
				"ownerOf(uint256)": "3041",
				"renounceOwnership()": "30507",
				"safeTransferFrom(address,address,uint256)": "infinite",
				"safeTransferFrom(address,address,uint256,bytes)": "infinite",
				"setApprovalForAll(address,bool)": "infinite",
				"setClonePrice(uint256,uint256)": "infinite",
				"supportsInterface(bytes4)": "842",
				"symbol()": "infinite",
				"tokenURI(uint256)": "infinite",
				"transferFrom(address,address,uint256)": "infinite",
				"transferOwnership(address)": "30830",
				"updateContract(string,uint256,address[])": "infinite",
				"withdraw()": "infinite"
			},
			"internal": {
				"_burn(uint256)": "infinite",
				"_transfer(address,address,uint256)": "infinite",
				"containsToken(uint256[] memory,uint256)": "infinite",
				"filterTokens(uint256[] memory,enum BookmarkNFT.CloneFilter,uint256[] memory,bool)": "infinite",
				"isValidToken(uint256,enum BookmarkNFT.CloneFilter,uint256[] memory,bool)": "infinite",
				"removeTokenFromURL(string memory,uint256)": "infinite"
			}
		},
		"methodIdentifiers": {
			"approve(address,uint256)": "095ea7b3",
			"balanceOf(address)": "70a08231",
			"burnToken(uint256,string)": "010f7735",
			"creationTime()": "d8270dce",
			"description()": "7284e416",
			"getAllMintedTokens(uint8,string)": "1b8899ce",
			"getApproved(uint256)": "081812fc",
			"getApprovedMinters()": "768d7dbb",
			"getClonePrice(uint256)": "d800fe45",
			"getClonesOfOriginal(uint256)": "639032cc",
			"getContractCreator()": "0e258726",
			"getDefaultClonePrice()": "c6af1122",
			"getHasClonePrice(uint256)": "c144dd2a",
			"getOriginal(uint256)": "bc8c778f",
			"getOwnedTokens(address,uint8,string)": "4d159ec9",
			"getTokenCreator(uint256)": "934689a9",
			"getTokenIdByUrl(string)": "1741f3e2",
			"getTotalMintClonedTokens()": "7d5298b9",
			"getTotalMintOriginalTokens()": "4da6de3f",
			"getTotalMintedTokens()": "f67a769c",
			"isApprovedForAll(address,address)": "e985e9c5",
			"isClone(uint256)": "385eda9c",
			"mintClone(uint256,string)": "2aa2e90a",
			"mintNFT(string,string)": "e9605544",
			"name()": "06fdde03",
			"owner()": "8da5cb5b",
			"ownerOf(uint256)": "6352211e",
			"renounceOwnership()": "715018a6",
			"safeTransferFrom(address,address,uint256)": "42842e0e",
			"safeTransferFrom(address,address,uint256,bytes)": "b88d4fde",
			"setApprovalForAll(address,bool)": "a22cb465",
			"setClonePrice(uint256,uint256)": "ef74248d",
			"supportsInterface(bytes4)": "01ffc9a7",
			"symbol()": "95d89b41",
			"tokenURI(uint256)": "c87b56dd",
			"transferFrom(address,address,uint256)": "23b872dd",
			"transferOwnership(address)": "f2fde38b",
			"updateContract(string,uint256,address[])": "8909ab12",
			"withdraw()": "3ccfd60b"
		}
	},
	"abi": [
		{
			"inputs": [
				{
					"internalType": "string",
					"name": "name",
					"type": "string"
				},
				{
					"internalType": "string",
					"name": "symbol",
					"type": "string"
				},
				{
					"internalType": "string",
					"name": "_description",
					"type": "string"
				},
				{
					"internalType": "uint256",
					"name": "defaultClonePrice",
					"type": "uint256"
				}
			],
			"stateMutability": "nonpayable",
			"type": "constructor"
		},
		{
			"anonymous": false,
			"inputs": [
				{
					"indexed": true,
					"internalType": "address",
					"name": "owner",
					"type": "address"
				},
				{
					"indexed": true,
					"internalType": "address",
					"name": "approved",
					"type": "address"
				},
				{
					"indexed": true,
					"internalType": "uint256",
					"name": "tokenId",
					"type": "uint256"
				}
			],
			"name": "Approval",
			"type": "event"
		},
		{
			"anonymous": false,
			"inputs": [
				{
					"indexed": true,
					"internalType": "address",
					"name": "owner",
					"type": "address"
				},
				{
					"indexed": true,
					"internalType": "address",
					"name": "operator",
					"type": "address"
				},
				{
					"indexed": false,
					"internalType": "bool",
					"name": "approved",
					"type": "bool"
				}
			],
			"name": "ApprovalForAll",
			"type": "event"
		},
		{
			"anonymous": false,
			"inputs": [
				{
					"indexed": true,
					"internalType": "address",
					"name": "previousOwner",
					"type": "address"
				},
				{
					"indexed": true,
					"internalType": "address",
					"name": "newOwner",
					"type": "address"
				}
			],
			"name": "OwnershipTransferred",
			"type": "event"
		},
		{
			"anonymous": false,
			"inputs": [
				{
					"indexed": true,
					"internalType": "address",
					"name": "from",
					"type": "address"
				},
				{
					"indexed": true,
					"internalType": "address",
					"name": "to",
					"type": "address"
				},
				{
					"indexed": true,
					"internalType": "uint256",
					"name": "tokenId",
					"type": "uint256"
				}
			],
			"name": "Transfer",
			"type": "event"
		},
		{
			"inputs": [
				{
					"internalType": "address",
					"name": "to",
					"type": "address"
				},
				{
					"internalType": "uint256",
					"name": "tokenId",
					"type": "uint256"
				}
			],
			"name": "approve",
			"outputs": [],
			"stateMutability": "nonpayable",
			"type": "function"
		},
		{
			"inputs": [
				{
					"internalType": "address",
					"name": "owner",
					"type": "address"
				}
			],
			"name": "balanceOf",
			"outputs": [
				{
					"internalType": "uint256",
					"name": "",
					"type": "uint256"
				}
			],
			"stateMutability": "view",
			"type": "function"
		},
		{
			"inputs": [
				{
					"internalType": "uint256",
					"name": "tokenId",
					"type": "uint256"
				},
				{
					"internalType": "string",
					"name": "_url",
					"type": "string"
				}
			],
			"name": "burnToken",
			"outputs": [],
			"stateMutability": "nonpayable",
			"type": "function"
		},
		{
			"inputs": [],
			"name": "creationTime",
			"outputs": [
				{
					"internalType": "uint256",
					"name": "",
					"type": "uint256"
				}
			],
			"stateMutability": "view",
			"type": "function"
		},
		{
			"inputs": [],
			"name": "description",
			"outputs": [
				{
					"internalType": "string",
					"name": "",
					"type": "string"
				}
			],
			"stateMutability": "view",
			"type": "function"
		},
		{
			"inputs": [
				{
					"internalType": "enum BookmarkNFT.CloneFilter",
					"name": "filter",
					"type": "uint8"
				},
				{
					"internalType": "string",
					"name": "url",
					"type": "string"
				}
			],
			"name": "getAllMintedTokens",
			"outputs": [
				{
					"internalType": "uint256[]",
					"name": "",
					"type": "uint256[]"
				}
			],
			"stateMutability": "view",
			"type": "function"
		},
		{
			"inputs": [
				{
					"internalType": "uint256",
					"name": "tokenId",
					"type": "uint256"
				}
			],
			"name": "getApproved",
			"outputs": [
				{
					"internalType": "address",
					"name": "",
					"type": "address"
				}
			],
			"stateMutability": "view",
			"type": "function"
		},
		{
			"inputs": [],
			"name": "getApprovedMinters",
			"outputs": [
				{
					"internalType": "address[]",
					"name": "",
					"type": "address[]"
				}
			],
			"stateMutability": "view",
			"type": "function"
		},
		{
			"inputs": [
				{
					"internalType": "uint256",
					"name": "tokenId",
					"type": "uint256"
				}
			],
			"name": "getClonePrice",
			"outputs": [
				{
					"internalType": "uint256",
					"name": "",
					"type": "uint256"
				}
			],
			"stateMutability": "view",
			"type": "function"
		},
		{
			"inputs": [
				{
					"internalType": "uint256",
					"name": "tokenId",
					"type": "uint256"
				}
			],
			"name": "getClonesOfOriginal",
			"outputs": [
				{
					"internalType": "uint256[]",
					"name": "",
					"type": "uint256[]"
				}
			],
			"stateMutability": "view",
			"type": "function"
		},
		{
			"inputs": [],
			"name": "getContractCreator",
			"outputs": [
				{
					"internalType": "address",
					"name": "",
					"type": "address"
				}
			],
			"stateMutability": "view",
			"type": "function"
		},
		{
			"inputs": [],
			"name": "getDefaultClonePrice",
			"outputs": [
				{
					"internalType": "uint256",
					"name": "",
					"type": "uint256"
				}
			],
			"stateMutability": "view",
			"type": "function"
		},
		{
			"inputs": [
				{
					"internalType": "uint256",
					"name": "tokenId",
					"type": "uint256"
				}
			],
			"name": "getHasClonePrice",
			"outputs": [
				{
					"internalType": "bool",
					"name": "",
					"type": "bool"
				}
			],
			"stateMutability": "view",
			"type": "function"
		},
		{
			"inputs": [
				{
					"internalType": "uint256",
					"name": "tokenId",
					"type": "uint256"
				}
			],
			"name": "getOriginal",
			"outputs": [
				{
					"internalType": "uint256",
					"name": "",
					"type": "uint256"
				}
			],
			"stateMutability": "view",
			"type": "function"
		},
		{
			"inputs": [
				{
					"internalType": "address",
					"name": "owner",
					"type": "address"
				},
				{
					"internalType": "enum BookmarkNFT.CloneFilter",
					"name": "filter",
					"type": "uint8"
				},
				{
					"internalType": "string",
					"name": "url",
					"type": "string"
				}
			],
			"name": "getOwnedTokens",
			"outputs": [
				{
					"internalType": "uint256[]",
					"name": "",
					"type": "uint256[]"
				}
			],
			"stateMutability": "view",
			"type": "function"
		},
		{
			"inputs": [
				{
					"internalType": "uint256",
					"name": "tokenId",
					"type": "uint256"
				}
			],
			"name": "getTokenCreator",
			"outputs": [
				{
					"internalType": "address",
					"name": "",
					"type": "address"
				}
			],
			"stateMutability": "view",
			"type": "function"
		},
		{
			"inputs": [
				{
					"internalType": "string",
					"name": "_url",
					"type": "string"
				}
			],
			"name": "getTokenIdByUrl",
			"outputs": [
				{
					"internalType": "uint256[]",
					"name": "",
					"type": "uint256[]"
				}
			],
			"stateMutability": "view",
			"type": "function"
		},
		{
			"inputs": [],
			"name": "getTotalMintClonedTokens",
			"outputs": [
				{
					"internalType": "uint256",
					"name": "",
					"type": "uint256"
				}
			],
			"stateMutability": "view",
			"type": "function"
		},
		{
			"inputs": [],
			"name": "getTotalMintOriginalTokens",
			"outputs": [
				{
					"internalType": "uint256",
					"name": "",
					"type": "uint256"
				}
			],
			"stateMutability": "view",
			"type": "function"
		},
		{
			"inputs": [],
			"name": "getTotalMintedTokens",
			"outputs": [
				{
					"internalType": "uint256",
					"name": "",
					"type": "uint256"
				}
			],
			"stateMutability": "view",
			"type": "function"
		},
		{
			"inputs": [
				{
					"internalType": "address",
					"name": "owner",
					"type": "address"
				},
				{
					"internalType": "address",
					"name": "operator",
					"type": "address"
				}
			],
			"name": "isApprovedForAll",
			"outputs": [
				{
					"internalType": "bool",
					"name": "",
					"type": "bool"
				}
			],
			"stateMutability": "view",
			"type": "function"
		},
		{
			"inputs": [
				{
					"internalType": "uint256",
					"name": "tokenId",
					"type": "uint256"
				}
			],
			"name": "isClone",
			"outputs": [
				{
					"internalType": "bool",
					"name": "",
					"type": "bool"
				}
			],
			"stateMutability": "view",
			"type": "function"
		},
		{
			"inputs": [
				{
					"internalType": "uint256",
					"name": "tokenId",
					"type": "uint256"
				},
				{
					"internalType": "string",
					"name": "_tokenURI",
					"type": "string"
				}
			],
			"name": "mintClone",
			"outputs": [],
			"stateMutability": "payable",
			"type": "function"
		},
		{
			"inputs": [
				{
					"internalType": "string",
					"name": "_tokenURI",
					"type": "string"
				},
				{
					"internalType": "string",
					"name": "_url",
					"type": "string"
				}
			],
			"name": "mintNFT",
			"outputs": [],
			"stateMutability": "nonpayable",
			"type": "function"
		},
		{
			"inputs": [],
			"name": "name",
			"outputs": [
				{
					"internalType": "string",
					"name": "",
					"type": "string"
				}
			],
			"stateMutability": "view",
			"type": "function"
		},
		{
			"inputs": [],
			"name": "owner",
			"outputs": [
				{
					"internalType": "address",
					"name": "",
					"type": "address"
				}
			],
			"stateMutability": "view",
			"type": "function"
		},
		{
			"inputs": [
				{
					"internalType": "uint256",
					"name": "tokenId",
					"type": "uint256"
				}
			],
			"name": "ownerOf",
			"outputs": [
				{
					"internalType": "address",
					"name": "",
					"type": "address"
				}
			],
			"stateMutability": "view",
			"type": "function"
		},
		{
			"inputs": [],
			"name": "renounceOwnership",
			"outputs": [],
			"stateMutability": "nonpayable",
			"type": "function"
		},
		{
			"inputs": [
				{
					"internalType": "address",
					"name": "from",
					"type": "address"
				},
				{
					"internalType": "address",
					"name": "to",
					"type": "address"
				},
				{
					"internalType": "uint256",
					"name": "tokenId",
					"type": "uint256"
				}
			],
			"name": "safeTransferFrom",
			"outputs": [],
			"stateMutability": "nonpayable",
			"type": "function"
		},
		{
			"inputs": [
				{
					"internalType": "address",
					"name": "from",
					"type": "address"
				},
				{
					"internalType": "address",
					"name": "to",
					"type": "address"
				},
				{
					"internalType": "uint256",
					"name": "tokenId",
					"type": "uint256"
				},
				{
					"internalType": "bytes",
					"name": "_data",
					"type": "bytes"
				}
			],
			"name": "safeTransferFrom",
			"outputs": [],
			"stateMutability": "nonpayable",
			"type": "function"
		},
		{
			"inputs": [
				{
					"internalType": "address",
					"name": "operator",
					"type": "address"
				},
				{
					"internalType": "bool",
					"name": "approved",
					"type": "bool"
				}
			],
			"name": "setApprovalForAll",
			"outputs": [],
			"stateMutability": "nonpayable",
			"type": "function"
		},
		{
			"inputs": [
				{
					"internalType": "uint256",
					"name": "tokenId",
					"type": "uint256"
				},
				{
					"internalType": "uint256",
					"name": "newPrice",
					"type": "uint256"
				}
			],
			"name": "setClonePrice",
			"outputs": [],
			"stateMutability": "nonpayable",
			"type": "function"
		},
		{
			"inputs": [
				{
					"internalType": "bytes4",
					"name": "interfaceId",
					"type": "bytes4"
				}
			],
			"name": "supportsInterface",
			"outputs": [
				{
					"internalType": "bool",
					"name": "",
					"type": "bool"
				}
			],
			"stateMutability": "view",
			"type": "function"
		},
		{
			"inputs": [],
			"name": "symbol",
			"outputs": [
				{
					"internalType": "string",
					"name": "",
					"type": "string"
				}
			],
			"stateMutability": "view",
			"type": "function"
		},
		{
			"inputs": [
				{
					"internalType": "uint256",
					"name": "tokenId",
					"type": "uint256"
				}
			],
			"name": "tokenURI",
			"outputs": [
				{
					"internalType": "string",
					"name": "",
					"type": "string"
				}
			],
			"stateMutability": "view",
			"type": "function"
		},
		{
			"inputs": [
				{
					"internalType": "address",
					"name": "from",
					"type": "address"
				},
				{
					"internalType": "address",
					"name": "to",
					"type": "address"
				},
				{
					"internalType": "uint256",
					"name": "tokenId",
					"type": "uint256"
				}
			],
			"name": "transferFrom",
			"outputs": [],
			"stateMutability": "nonpayable",
			"type": "function"
		},
		{
			"inputs": [
				{
					"internalType": "address",
					"name": "newOwner",
					"type": "address"
				}
			],
			"name": "transferOwnership",
			"outputs": [],
			"stateMutability": "nonpayable",
			"type": "function"
		},
		{
			"inputs": [
				{
					"internalType": "string",
					"name": "_description",
					"type": "string"
				},
				{
					"internalType": "uint256",
					"name": "_newDefaultClonePrice",
					"type": "uint256"
				},
				{
					"internalType": "address[]",
					"name": "_minters",
					"type": "address[]"
				}
			],
			"name": "updateContract",
			"outputs": [],
			"stateMutability": "nonpayable",
			"type": "function"
		},
		{
			"inputs": [],
			"name": "withdraw",
			"outputs": [],
			"stateMutability": "nonpayable",
			"type": "function"
		}
	]
}